{
	"backend/Betting.sol": {
		"Betting": {
			"abi": [
				{
					"inputs": [
						{
							"internalType": "address",
							"name": "_gameManager",
							"type": "address"
						},
						{
							"internalType": "address",
							"name": "_config",
							"type": "address"
						}
					],
					"stateMutability": "nonpayable",
					"type": "constructor"
				},
				{
					"inputs": [
						{
							"internalType": "uint256",
							"name": "sent",
							"type": "uint256"
						},
						{
							"internalType": "uint256",
							"name": "maximum",
							"type": "uint256"
						}
					],
					"name": "BetAboveMaximum",
					"type": "error"
				},
				{
					"inputs": [
						{
							"internalType": "uint256",
							"name": "sent",
							"type": "uint256"
						},
						{
							"internalType": "uint256",
							"name": "minimum",
							"type": "uint256"
						}
					],
					"name": "BetBelowMinimum",
					"type": "error"
				},
				{
					"inputs": [],
					"name": "BettingWindowExpired",
					"type": "error"
				},
				{
					"inputs": [],
					"name": "FeeAlreadyWithdrawn",
					"type": "error"
				},
				{
					"inputs": [],
					"name": "HouseCannotBet",
					"type": "error"
				},
				{
					"inputs": [
						{
							"internalType": "uint8",
							"name": "colour",
							"type": "uint8"
						},
						{
							"internalType": "uint8",
							"name": "numColours",
							"type": "uint8"
						}
					],
					"name": "InvalidColour",
					"type": "error"
				},
				{
					"inputs": [],
					"name": "NoBetsToProcess",
					"type": "error"
				},
				{
					"inputs": [],
					"name": "NotRoundHouse",
					"type": "error"
				},
				{
					"inputs": [],
					"name": "ReentrancyGuardReentrantCall",
					"type": "error"
				},
				{
					"inputs": [],
					"name": "RoundNotCancelled",
					"type": "error"
				},
				{
					"inputs": [],
					"name": "RoundNotOpen",
					"type": "error"
				},
				{
					"inputs": [],
					"name": "RoundNotResolved",
					"type": "error"
				},
				{
					"inputs": [],
					"name": "TransferFailed",
					"type": "error"
				},
				{
					"anonymous": false,
					"inputs": [
						{
							"indexed": true,
							"internalType": "uint256",
							"name": "roundId",
							"type": "uint256"
						},
						{
							"indexed": true,
							"internalType": "address",
							"name": "player",
							"type": "address"
						},
						{
							"indexed": false,
							"internalType": "uint8",
							"name": "chosenColour",
							"type": "uint8"
						},
						{
							"indexed": false,
							"internalType": "uint256",
							"name": "amount",
							"type": "uint256"
						},
						{
							"indexed": false,
							"internalType": "uint256",
							"name": "multiplier",
							"type": "uint256"
						}
					],
					"name": "BetPlaced",
					"type": "event"
				},
				{
					"anonymous": false,
					"inputs": [
						{
							"indexed": true,
							"internalType": "uint256",
							"name": "roundId",
							"type": "uint256"
						},
						{
							"indexed": true,
							"internalType": "address",
							"name": "house",
							"type": "address"
						},
						{
							"indexed": false,
							"internalType": "uint256",
							"name": "fee",
							"type": "uint256"
						}
					],
					"name": "HouseFeeWithdrawn",
					"type": "event"
				},
				{
					"anonymous": false,
					"inputs": [
						{
							"indexed": true,
							"internalType": "uint256",
							"name": "roundId",
							"type": "uint256"
						},
						{
							"indexed": true,
							"internalType": "address",
							"name": "player",
							"type": "address"
						},
						{
							"indexed": false,
							"internalType": "uint256",
							"name": "refund",
							"type": "uint256"
						}
					],
					"name": "RefundClaimed",
					"type": "event"
				},
				{
					"anonymous": false,
					"inputs": [
						{
							"indexed": true,
							"internalType": "uint256",
							"name": "roundId",
							"type": "uint256"
						},
						{
							"indexed": true,
							"internalType": "address",
							"name": "player",
							"type": "address"
						},
						{
							"indexed": false,
							"internalType": "uint256",
							"name": "payout",
							"type": "uint256"
						}
					],
					"name": "WinningsClaimed",
					"type": "event"
				},
				{
					"inputs": [
						{
							"internalType": "uint256",
							"name": "",
							"type": "uint256"
						},
						{
							"internalType": "uint256",
							"name": "",
							"type": "uint256"
						}
					],
					"name": "bets",
					"outputs": [
						{
							"internalType": "address",
							"name": "player",
							"type": "address"
						},
						{
							"internalType": "uint8",
							"name": "chosenColour",
							"type": "uint8"
						},
						{
							"internalType": "uint256",
							"name": "amount",
							"type": "uint256"
						},
						{
							"internalType": "uint256",
							"name": "timestamp",
							"type": "uint256"
						},
						{
							"internalType": "uint256",
							"name": "multiplier",
							"type": "uint256"
						},
						{
							"internalType": "bool",
							"name": "claimed",
							"type": "bool"
						}
					],
					"stateMutability": "view",
					"type": "function"
				},
				{
					"inputs": [
						{
							"internalType": "uint256",
							"name": "roundId",
							"type": "uint256"
						}
					],
					"name": "claimRefund",
					"outputs": [],
					"stateMutability": "nonpayable",
					"type": "function"
				},
				{
					"inputs": [
						{
							"internalType": "uint256",
							"name": "roundId",
							"type": "uint256"
						}
					],
					"name": "claimWinnings",
					"outputs": [],
					"stateMutability": "nonpayable",
					"type": "function"
				},
				{
					"inputs": [],
					"name": "config",
					"outputs": [
						{
							"internalType": "contract IConfig",
							"name": "",
							"type": "address"
						}
					],
					"stateMutability": "view",
					"type": "function"
				},
				{
					"inputs": [],
					"name": "gameManager",
					"outputs": [
						{
							"internalType": "contract IGameManager",
							"name": "",
							"type": "address"
						}
					],
					"stateMutability": "view",
					"type": "function"
				},
				{
					"inputs": [
						{
							"internalType": "uint256",
							"name": "roundId",
							"type": "uint256"
						}
					],
					"name": "getBets",
					"outputs": [
						{
							"components": [
								{
									"internalType": "address",
									"name": "player",
									"type": "address"
								},
								{
									"internalType": "uint8",
									"name": "chosenColour",
									"type": "uint8"
								},
								{
									"internalType": "uint256",
									"name": "amount",
									"type": "uint256"
								},
								{
									"internalType": "uint256",
									"name": "timestamp",
									"type": "uint256"
								},
								{
									"internalType": "uint256",
									"name": "multiplier",
									"type": "uint256"
								},
								{
									"internalType": "bool",
									"name": "claimed",
									"type": "bool"
								}
							],
							"internalType": "struct Betting.Bet[]",
							"name": "",
							"type": "tuple[]"
						}
					],
					"stateMutability": "view",
					"type": "function"
				},
				{
					"inputs": [
						{
							"internalType": "uint256",
							"name": "roundId",
							"type": "uint256"
						},
						{
							"internalType": "address",
							"name": "player",
							"type": "address"
						}
					],
					"name": "getPlayerBetIndices",
					"outputs": [
						{
							"internalType": "uint256[]",
							"name": "",
							"type": "uint256[]"
						}
					],
					"stateMutability": "view",
					"type": "function"
				},
				{
					"inputs": [
						{
							"internalType": "uint256",
							"name": "",
							"type": "uint256"
						}
					],
					"name": "houseFeeWithdrawn",
					"outputs": [
						{
							"internalType": "bool",
							"name": "",
							"type": "bool"
						}
					],
					"stateMutability": "view",
					"type": "function"
				},
				{
					"inputs": [
						{
							"internalType": "uint256",
							"name": "roundId",
							"type": "uint256"
						},
						{
							"internalType": "uint8",
							"name": "colour",
							"type": "uint8"
						}
					],
					"name": "placeBet",
					"outputs": [],
					"stateMutability": "payable",
					"type": "function"
				},
				{
					"inputs": [
						{
							"internalType": "uint256",
							"name": "",
							"type": "uint256"
						},
						{
							"internalType": "address",
							"name": "",
							"type": "address"
						},
						{
							"internalType": "uint256",
							"name": "",
							"type": "uint256"
						}
					],
					"name": "playerBetIndices",
					"outputs": [
						{
							"internalType": "uint256",
							"name": "",
							"type": "uint256"
						}
					],
					"stateMutability": "view",
					"type": "function"
				},
				{
					"inputs": [
						{
							"internalType": "uint256",
							"name": "",
							"type": "uint256"
						}
					],
					"name": "totalPot",
					"outputs": [
						{
							"internalType": "uint256",
							"name": "",
							"type": "uint256"
						}
					],
					"stateMutability": "view",
					"type": "function"
				},
				{
					"inputs": [
						{
							"internalType": "uint256",
							"name": "roundId",
							"type": "uint256"
						}
					],
					"name": "withdrawHouseFee",
					"outputs": [],
					"stateMutability": "nonpayable",
					"type": "function"
				}
			],
			"devdoc": {
				"errors": {
					"ReentrancyGuardReentrantCall()": [
						{
							"details": "Unauthorized reentrant call."
						}
					]
				},
				"kind": "dev",
				"methods": {
					"claimRefund(uint256)": {
						"params": {
							"roundId": "The ID of the cancelled round."
						}
					},
					"claimWinnings(uint256)": {
						"params": {
							"roundId": "The ID of the resolved round."
						}
					},
					"placeBet(uint256,uint8)": {
						"params": {
							"colour": "Zero-based colour index (must be < round.numColours).",
							"roundId": "The ID of the round to bet on."
						}
					},
					"withdrawHouseFee(uint256)": {
						"params": {
							"roundId": "The ID of the resolved round."
						}
					}
				},
				"stateVariables": {
					"bets": {
						"details": "round ID → all bets placed in that round"
					},
					"houseFeeWithdrawn": {
						"details": "round ID → whether the house has already withdrawn its fee"
					},
					"playerBetIndices": {
						"details": "round ID → player address → indices into bets[roundId]"
					},
					"totalPot": {
						"details": "round ID → total ETH wagered (wei)"
					}
				},
				"version": 1
			},
			"evm": {
				"assembly": "    /* \"backend/Betting.sol\":731:15085  contract Betting is ReentrancyGuard {... */\n  mstore(0x40, 0xc0)\n    /* \"backend/Betting.sol\":3641:3784  constructor(address _gameManager, address _config) {... */\n  callvalue\n  dup1\n  iszero\n  tag_1\n  jumpi\n  revert(0x00, 0x00)\ntag_1:\n  pop\n  mload(0x40)\n  sub(codesize, bytecodeSize)\n  dup1\n  bytecodeSize\n  dup4\n  codecopy\n  dup2\n  dup2\n  add\n  0x40\n  mstore\n  dup2\n  add\n  swap1\n  tag_2\n  swap2\n  swap1\n  tag_3\n  jump\t// in\ntag_2:\n    /* \"@openzeppelin/contracts/utils/ReentrancyGuard.sol\":2365:2366  1 */\n  0x01\n    /* \"@openzeppelin/contracts/utils/ReentrancyGuard.sol\":2539:2585  _reentrancyGuardStorageSlot().getUint256Slot() */\n  tag_7\n    /* \"@openzeppelin/contracts/utils/ReentrancyGuard.sol\":2539:2568  _reentrancyGuardStorageSlot() */\n  tag_8\n    /* \"@openzeppelin/contracts/utils/ReentrancyGuard.sol\":2539:2566  _reentrancyGuardStorageSlot */\n  shl(0x20, tag_9)\n    /* \"@openzeppelin/contracts/utils/ReentrancyGuard.sol\":2539:2568  _reentrancyGuardStorageSlot() */\n  0x20\n  shr\n  jump\t// in\ntag_8:\n    /* \"@openzeppelin/contracts/utils/ReentrancyGuard.sol\":2539:2583  _reentrancyGuardStorageSlot().getUint256Slot */\n  shl(0x20, tag_10)\n    /* \"@openzeppelin/contracts/utils/ReentrancyGuard.sol\":2539:2585  _reentrancyGuardStorageSlot().getUint256Slot() */\n  0x20\n  shr\n  jump\t// in\ntag_7:\n    /* \"@openzeppelin/contracts/utils/ReentrancyGuard.sol\":2539:2591  _reentrancyGuardStorageSlot().getUint256Slot().value */\n  0x00\n  add\n    /* \"@openzeppelin/contracts/utils/ReentrancyGuard.sol\":2539:2605  _reentrancyGuardStorageSlot().getUint256Slot().value = NOT_ENTERED */\n  dup2\n  swap1\n  sstore\n  pop\n    /* \"backend/Betting.sol\":3729:3741  _gameManager */\n  dup2\n    /* \"backend/Betting.sol\":3702:3742  gameManager = IGameManager(_gameManager) */\n  0xffffffffffffffffffffffffffffffffffffffff\n  and\n  0x80\n  dup2\n  0xffffffffffffffffffffffffffffffffffffffff\n  and\n  dup2\n  mstore\n  pop\n  pop\n    /* \"backend/Betting.sol\":3769:3776  _config */\n  dup1\n    /* \"backend/Betting.sol\":3752:3777  config = IConfig(_config) */\n  0xffffffffffffffffffffffffffffffffffffffff\n  and\n  0xa0\n  dup2\n  0xffffffffffffffffffffffffffffffffffffffff\n  and\n  dup2\n  mstore\n  pop\n  pop\n    /* \"backend/Betting.sol\":3641:3784  constructor(address _gameManager, address _config) {... */\n  pop\n  pop\n    /* \"backend/Betting.sol\":731:15085  contract Betting is ReentrancyGuard {... */\n  jump(tag_12)\n    /* \"@openzeppelin/contracts/utils/ReentrancyGuard.sol\":4636:4763  function _reentrancyGuardStorageSlot() internal pure virtual returns (bytes32) {... */\ntag_9:\n    /* \"@openzeppelin/contracts/utils/ReentrancyGuard.sol\":4706:4713  bytes32 */\n  0x00\n    /* \"@openzeppelin/contracts/utils/ReentrancyGuard.sol\":1505:1571  0x9b779b17422d0df92223018b32b4d1fa46e071723d6817e2486d003becc55f00 */\n  0x9b779b17422d0df92223018b32b4d1fa46e071723d6817e2486d003becc55f00\n    /* \"@openzeppelin/contracts/utils/ReentrancyGuard.sol\":4732:4756  REENTRANCY_GUARD_STORAGE */\n  0x00\n  shl\n    /* \"@openzeppelin/contracts/utils/ReentrancyGuard.sol\":4725:4756  return REENTRANCY_GUARD_STORAGE */\n  swap1\n  pop\n    /* \"@openzeppelin/contracts/utils/ReentrancyGuard.sol\":4636:4763  function _reentrancyGuardStorageSlot() internal pure virtual returns (bytes32) {... */\n  swap1\n  jump\t// out\n    /* \"@openzeppelin/contracts/utils/StorageSlot.sol\":2679:2842  function getUint256Slot(bytes32 slot) internal pure returns (Uint256Slot storage r) {... */\ntag_10:\n    /* \"@openzeppelin/contracts/utils/StorageSlot.sol\":2740:2761  Uint256Slot storage r */\n  0x00\n    /* \"@openzeppelin/contracts/utils/StorageSlot.sol\":2822:2826  slot */\n  dup2\n    /* \"@openzeppelin/contracts/utils/StorageSlot.sol\":2812:2826  r.slot := slot */\n  swap1\n  pop\n    /* \"@openzeppelin/contracts/utils/StorageSlot.sol\":2679:2842  function getUint256Slot(bytes32 slot) internal pure returns (Uint256Slot storage r) {... */\n  swap2\n  swap1\n  pop\n  jump\t// out\n    /* \"#utility.yul\":88:205   */\ntag_16:\n    /* \"#utility.yul\":197:198   */\n  0x00\n    /* \"#utility.yul\":194:195   */\n  0x00\n    /* \"#utility.yul\":187:199   */\n  revert\n    /* \"#utility.yul\":334:460   */\ntag_18:\n    /* \"#utility.yul\":371:378   */\n  0x00\n    /* \"#utility.yul\":411:453   */\n  0xffffffffffffffffffffffffffffffffffffffff\n    /* \"#utility.yul\":404:409   */\n  dup3\n    /* \"#utility.yul\":400:454   */\n  and\n    /* \"#utility.yul\":389:454   */\n  swap1\n  pop\n    /* \"#utility.yul\":334:460   */\n  swap2\n  swap1\n  pop\n  jump\t// out\n    /* \"#utility.yul\":466:562   */\ntag_19:\n    /* \"#utility.yul\":503:510   */\n  0x00\n    /* \"#utility.yul\":532:556   */\n  tag_28\n    /* \"#utility.yul\":550:555   */\n  dup3\n    /* \"#utility.yul\":532:556   */\n  tag_18\n  jump\t// in\ntag_28:\n    /* \"#utility.yul\":521:556   */\n  swap1\n  pop\n    /* \"#utility.yul\":466:562   */\n  swap2\n  swap1\n  pop\n  jump\t// out\n    /* \"#utility.yul\":568:690   */\ntag_20:\n    /* \"#utility.yul\":641:665   */\n  tag_30\n    /* \"#utility.yul\":659:664   */\n  dup2\n    /* \"#utility.yul\":641:665   */\n  tag_19\n  jump\t// in\ntag_30:\n    /* \"#utility.yul\":634:639   */\n  dup2\n    /* \"#utility.yul\":631:666   */\n  eq\n    /* \"#utility.yul\":621:684   */\n  tag_31\n  jumpi\n    /* \"#utility.yul\":680:681   */\n  0x00\n    /* \"#utility.yul\":677:678   */\n  0x00\n    /* \"#utility.yul\":670:682   */\n  revert\n    /* \"#utility.yul\":621:684   */\ntag_31:\n    /* \"#utility.yul\":568:690   */\n  pop\n  jump\t// out\n    /* \"#utility.yul\":696:839   */\ntag_21:\n    /* \"#utility.yul\":753:758   */\n  0x00\n    /* \"#utility.yul\":784:790   */\n  dup2\n    /* \"#utility.yul\":778:791   */\n  mload\n    /* \"#utility.yul\":769:791   */\n  swap1\n  pop\n    /* \"#utility.yul\":800:833   */\n  tag_33\n    /* \"#utility.yul\":827:832   */\n  dup2\n    /* \"#utility.yul\":800:833   */\n  tag_20\n  jump\t// in\ntag_33:\n    /* \"#utility.yul\":696:839   */\n  swap3\n  swap2\n  pop\n  pop\n  jump\t// out\n    /* \"#utility.yul\":845:1352   */\ntag_3:\n    /* \"#utility.yul\":924:930   */\n  0x00\n    /* \"#utility.yul\":932:938   */\n  0x00\n    /* \"#utility.yul\":981:983   */\n  0x40\n    /* \"#utility.yul\":969:978   */\n  dup4\n    /* \"#utility.yul\":960:967   */\n  dup6\n    /* \"#utility.yul\":956:979   */\n  sub\n    /* \"#utility.yul\":952:984   */\n  slt\n    /* \"#utility.yul\":949:1068   */\n  iszero\n  tag_35\n  jumpi\n    /* \"#utility.yul\":987:1066   */\n  tag_36\n  tag_16\n  jump\t// in\ntag_36:\n    /* \"#utility.yul\":949:1068   */\ntag_35:\n    /* \"#utility.yul\":1107:1108   */\n  0x00\n    /* \"#utility.yul\":1132:1196   */\n  tag_37\n    /* \"#utility.yul\":1188:1195   */\n  dup6\n    /* \"#utility.yul\":1179:1185   */\n  dup3\n    /* \"#utility.yul\":1168:1177   */\n  dup7\n    /* \"#utility.yul\":1164:1186   */\n  add\n    /* \"#utility.yul\":1132:1196   */\n  tag_21\n  jump\t// in\ntag_37:\n    /* \"#utility.yul\":1122:1196   */\n  swap3\n  pop\n    /* \"#utility.yul\":1078:1206   */\n  pop\n    /* \"#utility.yul\":1245:1247   */\n  0x20\n    /* \"#utility.yul\":1271:1335   */\n  tag_38\n    /* \"#utility.yul\":1327:1334   */\n  dup6\n    /* \"#utility.yul\":1318:1324   */\n  dup3\n    /* \"#utility.yul\":1307:1316   */\n  dup7\n    /* \"#utility.yul\":1303:1325   */\n  add\n    /* \"#utility.yul\":1271:1335   */\n  tag_21\n  jump\t// in\ntag_38:\n    /* \"#utility.yul\":1261:1335   */\n  swap2\n  pop\n    /* \"#utility.yul\":1216:1345   */\n  pop\n    /* \"#utility.yul\":845:1352   */\n  swap3\n  pop\n  swap3\n  swap1\n  pop\n  jump\t// out\n    /* \"backend/Betting.sol\":731:15085  contract Betting is ReentrancyGuard {... */\ntag_12:\n  mload(0x80)\n  mload(0xa0)\n  codecopy(0x00, dataOffset(sub_0), dataSize(sub_0))\n  0x00\n  assignImmutable(\"0x41e56607cad04c134e4e470c9fce76566c1848af363d3617ff5ce2939142f7f3\")\n  0x00\n  assignImmutable(\"0xe9d2e5d7dcf681fb037cdc034b01f1fe792271e130f784f84f54ff4ae7a73679\")\n  return(0x00, dataSize(sub_0))\nstop\n\nsub_0: assembly {\n        /* \"backend/Betting.sol\":731:15085  contract Betting is ReentrancyGuard {... */\n      mstore(0x40, 0x80)\n      jumpi(tag_1, lt(calldatasize, 0x04))\n      shr(0xe0, calldataload(0x00))\n      dup1\n      0x6a09f6be\n      gt\n      tag_14\n      jumpi\n      dup1\n      0x6a09f6be\n      eq\n      tag_8\n      jumpi\n      dup1\n      0x79502c55\n      eq\n      tag_9\n      jumpi\n      dup1\n      0x7e033ad2\n      eq\n      tag_10\n      jumpi\n      dup1\n      0xa632c457\n      eq\n      tag_11\n      jumpi\n      dup1\n      0xc6b05266\n      eq\n      tag_12\n      jumpi\n      dup1\n      0xe852ebc8\n      eq\n      tag_13\n      jumpi\n      jump(tag_1)\n    tag_14:\n      dup1\n      0x03edf914\n      eq\n      tag_2\n      jumpi\n      dup1\n      0x1ccf6955\n      eq\n      tag_3\n      jumpi\n      dup1\n      0x3a56fa62\n      eq\n      tag_4\n      jumpi\n      dup1\n      0x5b7baf64\n      eq\n      tag_5\n      jumpi\n      dup1\n      0x5f16348f\n      eq\n      tag_6\n      jumpi\n      dup1\n      0x677bd9ff\n      eq\n      tag_7\n      jumpi\n    tag_1:\n      revert(0x00, 0x00)\n        /* \"backend/Betting.sol\":4167:5830  function placeBet(uint256 roundId, uint8 colour) external payable {... */\n    tag_2:\n      tag_15\n      0x04\n      dup1\n      calldatasize\n      sub\n      dup2\n      add\n      swap1\n      tag_16\n      swap2\n      swap1\n      tag_17\n      jump\t// in\n    tag_16:\n      tag_18\n      jump\t// in\n    tag_15:\n      stop\n        /* \"backend/Betting.sol\":12126:12234  function getBets(uint256 roundId) external view returns (Bet[] memory) {... */\n    tag_3:\n      callvalue\n      dup1\n      iszero\n      tag_19\n      jumpi\n      revert(0x00, 0x00)\n    tag_19:\n      pop\n      tag_20\n      0x04\n      dup1\n      calldatasize\n      sub\n      dup2\n      add\n      swap1\n      tag_21\n      swap2\n      swap1\n      tag_22\n      jump\t// in\n    tag_21:\n      tag_23\n      jump\t// in\n    tag_20:\n      mload(0x40)\n      tag_24\n      swap2\n      swap1\n      tag_25\n      jump\t// in\n    tag_24:\n      mload(0x40)\n      dup1\n      swap2\n      sub\n      swap1\n      return\n        /* \"backend/Betting.sol\":12316:12504  function getPlayerBetIndices(uint256 roundId, address player)... */\n    tag_4:\n      callvalue\n      dup1\n      iszero\n      tag_26\n      jumpi\n      revert(0x00, 0x00)\n    tag_26:\n      pop\n      tag_27\n      0x04\n      dup1\n      calldatasize\n      sub\n      dup2\n      add\n      swap1\n      tag_28\n      swap2\n      swap1\n      tag_29\n      jump\t// in\n    tag_28:\n      tag_30\n      jump\t// in\n    tag_27:\n      mload(0x40)\n      tag_31\n      swap2\n      swap1\n      tag_32\n      jump\t// in\n    tag_31:\n      mload(0x40)\n      dup1\n      swap2\n      sub\n      swap1\n      return\n        /* \"backend/Betting.sol\":8827:10270  function claimRefund(uint256 roundId) external nonReentrant {... */\n    tag_5:\n      callvalue\n      dup1\n      iszero\n      tag_33\n      jumpi\n      revert(0x00, 0x00)\n    tag_33:\n      pop\n      tag_34\n      0x04\n      dup1\n      calldatasize\n      sub\n      dup2\n      add\n      swap1\n      tag_35\n      swap2\n      swap1\n      tag_22\n      jump\t// in\n    tag_35:\n      tag_36\n      jump\t// in\n    tag_34:\n      stop\n        /* \"backend/Betting.sol\":1727:1800  mapping(uint256 => mapping(address => uint256[])) public playerBetIndices */\n    tag_6:\n      callvalue\n      dup1\n      iszero\n      tag_37\n      jumpi\n      revert(0x00, 0x00)\n    tag_37:\n      pop\n      tag_38\n      0x04\n      dup1\n      calldatasize\n      sub\n      dup2\n      add\n      swap1\n      tag_39\n      swap2\n      swap1\n      tag_40\n      jump\t// in\n    tag_39:\n      tag_41\n      jump\t// in\n    tag_38:\n      mload(0x40)\n      tag_42\n      swap2\n      swap1\n      tag_43\n      jump\t// in\n    tag_42:\n      mload(0x40)\n      dup1\n      swap2\n      sub\n      swap1\n      return\n        /* \"backend/Betting.sol\":6150:8507  function claimWinnings(uint256 roundId) external nonReentrant {... */\n    tag_7:\n      callvalue\n      dup1\n      iszero\n      tag_44\n      jumpi\n      revert(0x00, 0x00)\n    tag_44:\n      pop\n      tag_45\n      0x04\n      dup1\n      calldatasize\n      sub\n      dup2\n      add\n      swap1\n      tag_46\n      swap2\n      swap1\n      tag_22\n      jump\t// in\n    tag_46:\n      tag_47\n      jump\t// in\n    tag_45:\n      stop\n        /* \"backend/Betting.sol\":1611:1648  mapping(uint256 => Bet[]) public bets */\n    tag_8:\n      callvalue\n      dup1\n      iszero\n      tag_48\n      jumpi\n      revert(0x00, 0x00)\n    tag_48:\n      pop\n      tag_49\n      0x04\n      dup1\n      calldatasize\n      sub\n      dup2\n      add\n      swap1\n      tag_50\n      swap2\n      swap1\n      tag_51\n      jump\t// in\n    tag_50:\n      tag_52\n      jump\t// in\n    tag_49:\n      mload(0x40)\n      tag_53\n      swap7\n      swap6\n      swap5\n      swap4\n      swap3\n      swap2\n      swap1\n      tag_54\n      jump\t// in\n    tag_53:\n      mload(0x40)\n      dup1\n      swap2\n      sub\n      swap1\n      return\n        /* \"backend/Betting.sol\":1517:1548  IConfig public immutable config */\n    tag_9:\n      callvalue\n      dup1\n      iszero\n      tag_55\n      jumpi\n      revert(0x00, 0x00)\n    tag_55:\n      pop\n      tag_56\n      tag_57\n      jump\t// in\n    tag_56:\n      mload(0x40)\n      tag_58\n      swap2\n      swap1\n      tag_59\n      jump\t// in\n    tag_58:\n      mload(0x40)\n      dup1\n      swap2\n      sub\n      swap1\n      return\n        /* \"backend/Betting.sol\":1981:2030  mapping(uint256 => bool) public houseFeeWithdrawn */\n    tag_10:\n      callvalue\n      dup1\n      iszero\n      tag_60\n      jumpi\n      revert(0x00, 0x00)\n    tag_60:\n      pop\n      tag_61\n      0x04\n      dup1\n      calldatasize\n      sub\n      dup2\n      add\n      swap1\n      tag_62\n      swap2\n      swap1\n      tag_22\n      jump\t// in\n    tag_62:\n      tag_63\n      jump\t// in\n    tag_61:\n      mload(0x40)\n      tag_64\n      swap2\n      swap1\n      tag_65\n      jump\t// in\n    tag_64:\n      mload(0x40)\n      dup1\n      swap2\n      sub\n      swap1\n      return\n        /* \"backend/Betting.sol\":1857:1900  mapping(uint256 => uint256) public totalPot */\n    tag_11:\n      callvalue\n      dup1\n      iszero\n      tag_66\n      jumpi\n      revert(0x00, 0x00)\n    tag_66:\n      pop\n      tag_67\n      0x04\n      dup1\n      calldatasize\n      sub\n      dup2\n      add\n      swap1\n      tag_68\n      swap2\n      swap1\n      tag_22\n      jump\t// in\n    tag_68:\n      tag_69\n      jump\t// in\n    tag_67:\n      mload(0x40)\n      tag_70\n      swap2\n      swap1\n      tag_43\n      jump\t// in\n    tag_70:\n      mload(0x40)\n      dup1\n      swap2\n      sub\n      swap1\n      return\n        /* \"backend/Betting.sol\":1470:1511  IGameManager public immutable gameManager */\n    tag_12:\n      callvalue\n      dup1\n      iszero\n      tag_71\n      jumpi\n      revert(0x00, 0x00)\n    tag_71:\n      pop\n      tag_72\n      tag_73\n      jump\t// in\n    tag_72:\n      mload(0x40)\n      tag_74\n      swap2\n      swap1\n      tag_75\n      jump\t// in\n    tag_74:\n      mload(0x40)\n      dup1\n      swap2\n      sub\n      swap1\n      return\n        /* \"backend/Betting.sol\":10574:11858  function withdrawHouseFee(uint256 roundId) external nonReentrant {... */\n    tag_13:\n      callvalue\n      dup1\n      iszero\n      tag_76\n      jumpi\n      revert(0x00, 0x00)\n    tag_76:\n      pop\n      tag_77\n      0x04\n      dup1\n      calldatasize\n      sub\n      dup2\n      add\n      swap1\n      tag_78\n      swap2\n      swap1\n      tag_22\n      jump\t// in\n    tag_78:\n      tag_79\n      jump\t// in\n    tag_77:\n      stop\n        /* \"backend/Betting.sol\":4167:5830  function placeBet(uint256 roundId, uint8 colour) external payable {... */\n    tag_18:\n        /* \"backend/Betting.sol\":4243:4274  IGameManager.Round memory round */\n      0x00\n        /* \"backend/Betting.sol\":4277:4288  gameManager */\n      immutable(\"0xe9d2e5d7dcf681fb037cdc034b01f1fe792271e130f784f84f54ff4ae7a73679\")\n        /* \"backend/Betting.sol\":4277:4297  gameManager.getRound */\n      0xffffffffffffffffffffffffffffffffffffffff\n      and\n      0x8f1327c0\n        /* \"backend/Betting.sol\":4298:4305  roundId */\n      dup5\n        /* \"backend/Betting.sol\":4277:4306  gameManager.getRound(roundId) */\n      mload(0x40)\n      dup3\n      0xffffffff\n      and\n      0xe0\n      shl\n      dup2\n      mstore\n      0x04\n      add\n      tag_81\n      swap2\n      swap1\n      tag_43\n      jump\t// in\n    tag_81:\n      0x0180\n      mload(0x40)\n      dup1\n      dup4\n      sub\n      dup2\n      dup7\n      gas\n      staticcall\n      iszero\n      dup1\n      iszero\n      tag_83\n      jumpi\n      returndatacopy(0x00, 0x00, returndatasize)\n      revert(0x00, returndatasize)\n    tag_83:\n      pop\n      pop\n      pop\n      pop\n      mload(0x40)\n      returndatasize\n      not(0x1f)\n      0x1f\n      dup3\n      add\n      and\n      dup3\n      add\n      dup1\n      0x40\n      mstore\n      pop\n      dup2\n      add\n      swap1\n      tag_84\n      swap2\n      swap1\n      tag_85\n      jump\t// in\n    tag_84:\n        /* \"backend/Betting.sol\":4243:4306  IGameManager.Round memory round = gameManager.getRound(roundId) */\n      swap1\n      pop\n        /* \"backend/Betting.sol\":4539:4567  IGameManager.RoundState.OPEN */\n      0x00\n        /* \"backend/Betting.sol\":4524:4567  round.state != IGameManager.RoundState.OPEN */\n      0x03\n      dup2\n      gt\n      iszero\n      tag_86\n      jumpi\n      tag_87\n      tag_88\n      jump\t// in\n    tag_87:\n    tag_86:\n        /* \"backend/Betting.sol\":4524:4529  round */\n      dup2\n        /* \"backend/Betting.sol\":4524:4535  round.state */\n      0x0160\n      add\n      mload\n        /* \"backend/Betting.sol\":4524:4567  round.state != IGameManager.RoundState.OPEN */\n      0x03\n      dup2\n      gt\n      iszero\n      tag_89\n      jumpi\n      tag_90\n      tag_88\n      jump\t// in\n    tag_90:\n    tag_89:\n      eq\n        /* \"backend/Betting.sol\":4520:4590  if (round.state != IGameManager.RoundState.OPEN) revert RoundNotOpen() */\n      tag_91\n      jumpi\n        /* \"backend/Betting.sol\":4576:4590  RoundNotOpen() */\n      mload(0x40)\n      0x402bc00700000000000000000000000000000000000000000000000000000000\n      dup2\n      mstore\n      0x04\n      add\n      mload(0x40)\n      dup1\n      swap2\n      sub\n      swap1\n      revert\n        /* \"backend/Betting.sol\":4520:4590  if (round.state != IGameManager.RoundState.OPEN) revert RoundNotOpen() */\n    tag_91:\n        /* \"backend/Betting.sol\":4623:4628  round */\n      dup1\n        /* \"backend/Betting.sol\":4623:4645  round.bettingWindowEnd */\n      0x0140\n      add\n      mload\n        /* \"backend/Betting.sol\":4604:4619  block.timestamp */\n      timestamp\n        /* \"backend/Betting.sol\":4604:4645  block.timestamp >= round.bettingWindowEnd */\n      lt\n        /* \"backend/Betting.sol\":4600:4676  if (block.timestamp >= round.bettingWindowEnd) revert BettingWindowExpired() */\n      tag_92\n      jumpi\n        /* \"backend/Betting.sol\":4654:4676  BettingWindowExpired() */\n      mload(0x40)\n      0x7392756200000000000000000000000000000000000000000000000000000000\n      dup2\n      mstore\n      0x04\n      add\n      mload(0x40)\n      dup1\n      swap2\n      sub\n      swap1\n      revert\n        /* \"backend/Betting.sol\":4600:4676  if (block.timestamp >= round.bettingWindowEnd) revert BettingWindowExpired() */\n    tag_92:\n        /* \"backend/Betting.sol\":4702:4707  round */\n      dup1\n        /* \"backend/Betting.sol\":4702:4714  round.minBet */\n      0x80\n      add\n      mload\n        /* \"backend/Betting.sol\":4690:4699  msg.value */\n      callvalue\n        /* \"backend/Betting.sol\":4690:4714  msg.value < round.minBet */\n      lt\n        /* \"backend/Betting.sol\":4686:4763  if (msg.value < round.minBet) revert BetBelowMinimum(msg.value, round.minBet) */\n      iszero\n      tag_93\n      jumpi\n        /* \"backend/Betting.sol\":4739:4748  msg.value */\n      callvalue\n        /* \"backend/Betting.sol\":4750:4755  round */\n      dup2\n        /* \"backend/Betting.sol\":4750:4762  round.minBet */\n      0x80\n      add\n      mload\n        /* \"backend/Betting.sol\":4723:4763  BetBelowMinimum(msg.value, round.minBet) */\n      mload(0x40)\n      0x171c752700000000000000000000000000000000000000000000000000000000\n      dup2\n      mstore\n      0x04\n      add\n      tag_94\n      swap3\n      swap2\n      swap1\n      tag_95\n      jump\t// in\n    tag_94:\n      mload(0x40)\n      dup1\n      swap2\n      sub\n      swap1\n      revert\n        /* \"backend/Betting.sol\":4686:4763  if (msg.value < round.minBet) revert BetBelowMinimum(msg.value, round.minBet) */\n    tag_93:\n        /* \"backend/Betting.sol\":4789:4794  round */\n      dup1\n        /* \"backend/Betting.sol\":4789:4801  round.maxBet */\n      0xa0\n      add\n      mload\n        /* \"backend/Betting.sol\":4777:4786  msg.value */\n      callvalue\n        /* \"backend/Betting.sol\":4777:4801  msg.value > round.maxBet */\n      gt\n        /* \"backend/Betting.sol\":4773:4850  if (msg.value > round.maxBet) revert BetAboveMaximum(msg.value, round.maxBet) */\n      iszero\n      tag_96\n      jumpi\n        /* \"backend/Betting.sol\":4826:4835  msg.value */\n      callvalue\n        /* \"backend/Betting.sol\":4837:4842  round */\n      dup2\n        /* \"backend/Betting.sol\":4837:4849  round.maxBet */\n      0xa0\n      add\n      mload\n        /* \"backend/Betting.sol\":4810:4850  BetAboveMaximum(msg.value, round.maxBet) */\n      mload(0x40)\n      0x02fc3a4500000000000000000000000000000000000000000000000000000000\n      dup2\n      mstore\n      0x04\n      add\n      tag_97\n      swap3\n      swap2\n      swap1\n      tag_95\n      jump\t// in\n    tag_97:\n      mload(0x40)\n      dup1\n      swap2\n      sub\n      swap1\n      revert\n        /* \"backend/Betting.sol\":4773:4850  if (msg.value > round.maxBet) revert BetAboveMaximum(msg.value, round.maxBet) */\n    tag_96:\n        /* \"backend/Betting.sol\":4874:4879  round */\n      dup1\n        /* \"backend/Betting.sol\":4874:4890  round.numColours */\n      0x60\n      add\n      mload\n        /* \"backend/Betting.sol\":4864:4890  colour >= round.numColours */\n      0xff\n      and\n        /* \"backend/Betting.sol\":4864:4870  colour */\n      dup3\n        /* \"backend/Betting.sol\":4864:4890  colour >= round.numColours */\n      0xff\n      and\n      lt\n        /* \"backend/Betting.sol\":4860:4938  if (colour >= round.numColours) revert InvalidColour(colour, round.numColours) */\n      tag_98\n      jumpi\n        /* \"backend/Betting.sol\":4913:4919  colour */\n      dup2\n        /* \"backend/Betting.sol\":4921:4926  round */\n      dup2\n        /* \"backend/Betting.sol\":4921:4937  round.numColours */\n      0x60\n      add\n      mload\n        /* \"backend/Betting.sol\":4899:4938  InvalidColour(colour, round.numColours) */\n      mload(0x40)\n      0xac5ac47300000000000000000000000000000000000000000000000000000000\n      dup2\n      mstore\n      0x04\n      add\n      tag_99\n      swap3\n      swap2\n      swap1\n      tag_100\n      jump\t// in\n    tag_99:\n      mload(0x40)\n      dup1\n      swap2\n      sub\n      swap1\n      revert\n        /* \"backend/Betting.sol\":4860:4938  if (colour >= round.numColours) revert InvalidColour(colour, round.numColours) */\n    tag_98:\n        /* \"backend/Betting.sol\":4966:4971  round */\n      dup1\n        /* \"backend/Betting.sol\":4966:4977  round.house */\n      0x20\n      add\n      mload\n        /* \"backend/Betting.sol\":4952:4977  msg.sender == round.house */\n      0xffffffffffffffffffffffffffffffffffffffff\n      and\n        /* \"backend/Betting.sol\":4952:4962  msg.sender */\n      caller\n        /* \"backend/Betting.sol\":4952:4977  msg.sender == round.house */\n      0xffffffffffffffffffffffffffffffffffffffff\n      and\n      sub\n        /* \"backend/Betting.sol\":4948:5002  if (msg.sender == round.house) revert HouseCannotBet() */\n      tag_101\n      jumpi\n        /* \"backend/Betting.sol\":4986:5002  HouseCannotBet() */\n      mload(0x40)\n      0x55d33e3e00000000000000000000000000000000000000000000000000000000\n      dup2\n      mstore\n      0x04\n      add\n      mload(0x40)\n      dup1\n      swap2\n      sub\n      swap1\n      revert\n        /* \"backend/Betting.sol\":4948:5002  if (msg.sender == round.house) revert HouseCannotBet() */\n    tag_101:\n        /* \"backend/Betting.sol\":5214:5232  uint256 multiplier */\n      0x00\n        /* \"backend/Betting.sol\":5235:5262  _calculateMultiplier(round) */\n      tag_102\n        /* \"backend/Betting.sol\":5256:5261  round */\n      dup3\n        /* \"backend/Betting.sol\":5235:5255  _calculateMultiplier */\n      tag_103\n        /* \"backend/Betting.sol\":5235:5262  _calculateMultiplier(round) */\n      jump\t// in\n    tag_102:\n        /* \"backend/Betting.sol\":5214:5262  uint256 multiplier = _calculateMultiplier(round) */\n      swap1\n      pop\n        /* \"backend/Betting.sol\":5273:5289  uint256 betIndex */\n      0x00\n        /* \"backend/Betting.sol\":5292:5296  bets */\n      0x00\n        /* \"backend/Betting.sol\":5292:5305  bets[roundId] */\n      0x00\n        /* \"backend/Betting.sol\":5297:5304  roundId */\n      dup7\n        /* \"backend/Betting.sol\":5292:5305  bets[roundId] */\n      dup2\n      mstore\n      0x20\n      add\n      swap1\n      dup2\n      mstore\n      0x20\n      add\n      0x00\n      keccak256\n        /* \"backend/Betting.sol\":5292:5312  bets[roundId].length */\n      dup1\n      sload\n      swap1\n      pop\n        /* \"backend/Betting.sol\":5273:5312  uint256 betIndex = bets[roundId].length */\n      swap1\n      pop\n        /* \"backend/Betting.sol\":5322:5326  bets */\n      0x00\n        /* \"backend/Betting.sol\":5322:5335  bets[roundId] */\n      0x00\n        /* \"backend/Betting.sol\":5327:5334  roundId */\n      dup7\n        /* \"backend/Betting.sol\":5322:5335  bets[roundId] */\n      dup2\n      mstore\n      0x20\n      add\n      swap1\n      dup2\n      mstore\n      0x20\n      add\n      0x00\n      keccak256\n        /* \"backend/Betting.sol\":5341:5557  Bet({... */\n      mload(0x40)\n      dup1\n      0xc0\n      add\n      0x40\n      mstore\n      dup1\n        /* \"backend/Betting.sol\":5367:5377  msg.sender */\n      caller\n        /* \"backend/Betting.sol\":5341:5557  Bet({... */\n      0xffffffffffffffffffffffffffffffffffffffff\n      and\n      dup2\n      mstore\n      0x20\n      add\n        /* \"backend/Betting.sol\":5405:5411  colour */\n      dup7\n        /* \"backend/Betting.sol\":5341:5557  Bet({... */\n      0xff\n      and\n      dup2\n      mstore\n      0x20\n      add\n        /* \"backend/Betting.sol\":5433:5442  msg.value */\n      callvalue\n        /* \"backend/Betting.sol\":5341:5557  Bet({... */\n      dup2\n      mstore\n      0x20\n      add\n        /* \"backend/Betting.sol\":5467:5482  block.timestamp */\n      timestamp\n        /* \"backend/Betting.sol\":5341:5557  Bet({... */\n      dup2\n      mstore\n      0x20\n      add\n        /* \"backend/Betting.sol\":5508:5518  multiplier */\n      dup5\n        /* \"backend/Betting.sol\":5341:5557  Bet({... */\n      dup2\n      mstore\n      0x20\n      add\n        /* \"backend/Betting.sol\":5541:5546  false */\n      0x00\n        /* \"backend/Betting.sol\":5341:5557  Bet({... */\n      iszero\n      iszero\n      dup2\n      mstore\n      pop\n        /* \"backend/Betting.sol\":5322:5558  bets[roundId].push(Bet({... */\n      swap1\n      dup1\n      0x01\n      dup2\n      sload\n      add\n      dup1\n      dup3\n      sstore\n      dup1\n      swap2\n      pop\n      pop\n      0x01\n      swap1\n      sub\n      swap1\n      0x00\n      mstore\n      keccak256(0x00, 0x20)\n      swap1\n      0x05\n      mul\n      add\n      0x00\n      swap1\n      swap2\n      swap1\n      swap2\n      swap1\n      swap2\n      pop\n      0x00\n      dup3\n      add\n      mload\n      dup2\n      0x00\n      add\n      exp(0x0100, 0x00)\n      dup2\n      sload\n      dup2\n      0xffffffffffffffffffffffffffffffffffffffff\n      mul\n      not\n      and\n      swap1\n      dup4\n      0xffffffffffffffffffffffffffffffffffffffff\n      and\n      mul\n      or\n      swap1\n      sstore\n      pop\n      0x20\n      dup3\n      add\n      mload\n      dup2\n      0x00\n      add\n      exp(0x0100, 0x14)\n      dup2\n      sload\n      dup2\n      0xff\n      mul\n      not\n      and\n      swap1\n      dup4\n      0xff\n      and\n      mul\n      or\n      swap1\n      sstore\n      pop\n      0x40\n      dup3\n      add\n      mload\n      dup2\n      0x01\n      add\n      sstore\n      0x60\n      dup3\n      add\n      mload\n      dup2\n      0x02\n      add\n      sstore\n      0x80\n      dup3\n      add\n      mload\n      dup2\n      0x03\n      add\n      sstore\n      0xa0\n      dup3\n      add\n      mload\n      dup2\n      0x04\n      add\n      exp(0x0100, 0x00)\n      dup2\n      sload\n      dup2\n      0xff\n      mul\n      not\n      and\n      swap1\n      dup4\n      iszero\n      iszero\n      mul\n      or\n      swap1\n      sstore\n      pop\n      pop\n      pop\n        /* \"backend/Betting.sol\":5569:5585  playerBetIndices */\n      0x01\n        /* \"backend/Betting.sol\":5569:5594  playerBetIndices[roundId] */\n      0x00\n        /* \"backend/Betting.sol\":5586:5593  roundId */\n      dup7\n        /* \"backend/Betting.sol\":5569:5594  playerBetIndices[roundId] */\n      dup2\n      mstore\n      0x20\n      add\n      swap1\n      dup2\n      mstore\n      0x20\n      add\n      0x00\n      keccak256\n        /* \"backend/Betting.sol\":5569:5606  playerBetIndices[roundId][msg.sender] */\n      0x00\n        /* \"backend/Betting.sol\":5595:5605  msg.sender */\n      caller\n        /* \"backend/Betting.sol\":5569:5606  playerBetIndices[roundId][msg.sender] */\n      0xffffffffffffffffffffffffffffffffffffffff\n      and\n      0xffffffffffffffffffffffffffffffffffffffff\n      and\n      dup2\n      mstore\n      0x20\n      add\n      swap1\n      dup2\n      mstore\n      0x20\n      add\n      0x00\n      keccak256\n        /* \"backend/Betting.sol\":5612:5620  betIndex */\n      dup2\n        /* \"backend/Betting.sol\":5569:5621  playerBetIndices[roundId][msg.sender].push(betIndex) */\n      swap1\n      dup1\n      0x01\n      dup2\n      sload\n      add\n      dup1\n      dup3\n      sstore\n      dup1\n      swap2\n      pop\n      pop\n      0x01\n      swap1\n      sub\n      swap1\n      0x00\n      mstore\n      keccak256(0x00, 0x20)\n      add\n      0x00\n      swap1\n      swap2\n      swap1\n      swap2\n      swap1\n      swap2\n      pop\n      sstore\n        /* \"backend/Betting.sol\":5652:5661  msg.value */\n      callvalue\n        /* \"backend/Betting.sol\":5631:5639  totalPot */\n      0x02\n        /* \"backend/Betting.sol\":5631:5648  totalPot[roundId] */\n      0x00\n        /* \"backend/Betting.sol\":5640:5647  roundId */\n      dup8\n        /* \"backend/Betting.sol\":5631:5648  totalPot[roundId] */\n      dup2\n      mstore\n      0x20\n      add\n      swap1\n      dup2\n      mstore\n      0x20\n      add\n      0x00\n      keccak256\n      0x00\n        /* \"backend/Betting.sol\":5631:5661  totalPot[roundId] += msg.value */\n      dup3\n      dup3\n      sload\n      tag_106\n      swap2\n      swap1\n      tag_107\n      jump\t// in\n    tag_106:\n      swap3\n      pop\n      pop\n      dup2\n      swap1\n      sstore\n      pop\n        /* \"backend/Betting.sol\":5781:5791  msg.sender */\n      caller\n        /* \"backend/Betting.sol\":5762:5823  BetPlaced(roundId, msg.sender, colour, msg.value, multiplier) */\n      0xffffffffffffffffffffffffffffffffffffffff\n      and\n        /* \"backend/Betting.sol\":5772:5779  roundId */\n      dup6\n        /* \"backend/Betting.sol\":5762:5823  BetPlaced(roundId, msg.sender, colour, msg.value, multiplier) */\n      0xbfcd8f4e47cc529f86cdc7eab8fb80e015a298e021fcaee72df1f76dd57cf487\n        /* \"backend/Betting.sol\":5793:5799  colour */\n      dup7\n        /* \"backend/Betting.sol\":5801:5810  msg.value */\n      callvalue\n        /* \"backend/Betting.sol\":5812:5822  multiplier */\n      dup7\n        /* \"backend/Betting.sol\":5762:5823  BetPlaced(roundId, msg.sender, colour, msg.value, multiplier) */\n      mload(0x40)\n      tag_108\n      swap4\n      swap3\n      swap2\n      swap1\n      tag_109\n      jump\t// in\n    tag_108:\n      mload(0x40)\n      dup1\n      swap2\n      sub\n      swap1\n      log3\n        /* \"backend/Betting.sol\":4233:5830  {... */\n      pop\n      pop\n      pop\n        /* \"backend/Betting.sol\":4167:5830  function placeBet(uint256 roundId, uint8 colour) external payable {... */\n      pop\n      pop\n      jump\t// out\n        /* \"backend/Betting.sol\":12126:12234  function getBets(uint256 roundId) external view returns (Bet[] memory) {... */\n    tag_23:\n        /* \"backend/Betting.sol\":12183:12195  Bet[] memory */\n      0x60\n        /* \"backend/Betting.sol\":12214:12218  bets */\n      0x00\n        /* \"backend/Betting.sol\":12214:12227  bets[roundId] */\n      0x00\n        /* \"backend/Betting.sol\":12219:12226  roundId */\n      dup4\n        /* \"backend/Betting.sol\":12214:12227  bets[roundId] */\n      dup2\n      mstore\n      0x20\n      add\n      swap1\n      dup2\n      mstore\n      0x20\n      add\n      0x00\n      keccak256\n        /* \"backend/Betting.sol\":12207:12227  return bets[roundId] */\n      dup1\n      sload\n      dup1\n      0x20\n      mul\n      0x20\n      add\n      mload(0x40)\n      swap1\n      dup2\n      add\n      0x40\n      mstore\n      dup1\n      swap3\n      swap2\n      swap1\n      dup2\n      dup2\n      mstore\n      0x20\n      add\n      0x00\n      swap1\n    tag_111:\n      dup3\n      dup3\n      lt\n      iszero\n      tag_112\n      jumpi\n      dup4\n      dup3\n      swap1\n      0x00\n      mstore\n      keccak256(0x00, 0x20)\n      swap1\n      0x05\n      mul\n      add\n      mload(0x40)\n      dup1\n      0xc0\n      add\n      0x40\n      mstore\n      swap1\n      dup2\n      0x00\n      dup3\n      add\n      0x00\n      swap1\n      sload\n      swap1\n      0x0100\n      exp\n      swap1\n      div\n      0xffffffffffffffffffffffffffffffffffffffff\n      and\n      0xffffffffffffffffffffffffffffffffffffffff\n      and\n      0xffffffffffffffffffffffffffffffffffffffff\n      and\n      dup2\n      mstore\n      0x20\n      add\n      0x00\n      dup3\n      add\n      0x14\n      swap1\n      sload\n      swap1\n      0x0100\n      exp\n      swap1\n      div\n      0xff\n      and\n      0xff\n      and\n      0xff\n      and\n      dup2\n      mstore\n      0x20\n      add\n      0x01\n      dup3\n      add\n      sload\n      dup2\n      mstore\n      0x20\n      add\n      0x02\n      dup3\n      add\n      sload\n      dup2\n      mstore\n      0x20\n      add\n      0x03\n      dup3\n      add\n      sload\n      dup2\n      mstore\n      0x20\n      add\n      0x04\n      dup3\n      add\n      0x00\n      swap1\n      sload\n      swap1\n      0x0100\n      exp\n      swap1\n      div\n      0xff\n      and\n      iszero\n      iszero\n      iszero\n      iszero\n      dup2\n      mstore\n      pop\n      pop\n      dup2\n      mstore\n      0x20\n      add\n      swap1\n      0x01\n      add\n      swap1\n      jump(tag_111)\n    tag_112:\n      pop\n      pop\n      pop\n      pop\n      swap1\n      pop\n        /* \"backend/Betting.sol\":12126:12234  function getBets(uint256 roundId) external view returns (Bet[] memory) {... */\n      swap2\n      swap1\n      pop\n      jump\t// out\n        /* \"backend/Betting.sol\":12316:12504  function getPlayerBetIndices(uint256 roundId, address player)... */\n    tag_30:\n        /* \"backend/Betting.sol\":12425:12441  uint256[] memory */\n      0x60\n        /* \"backend/Betting.sol\":12464:12480  playerBetIndices */\n      0x01\n        /* \"backend/Betting.sol\":12464:12489  playerBetIndices[roundId] */\n      0x00\n        /* \"backend/Betting.sol\":12481:12488  roundId */\n      dup5\n        /* \"backend/Betting.sol\":12464:12489  playerBetIndices[roundId] */\n      dup2\n      mstore\n      0x20\n      add\n      swap1\n      dup2\n      mstore\n      0x20\n      add\n      0x00\n      keccak256\n        /* \"backend/Betting.sol\":12464:12497  playerBetIndices[roundId][player] */\n      0x00\n        /* \"backend/Betting.sol\":12490:12496  player */\n      dup4\n        /* \"backend/Betting.sol\":12464:12497  playerBetIndices[roundId][player] */\n      0xffffffffffffffffffffffffffffffffffffffff\n      and\n      0xffffffffffffffffffffffffffffffffffffffff\n      and\n      dup2\n      mstore\n      0x20\n      add\n      swap1\n      dup2\n      mstore\n      0x20\n      add\n      0x00\n      keccak256\n        /* \"backend/Betting.sol\":12457:12497  return playerBetIndices[roundId][player] */\n      dup1\n      sload\n      dup1\n      0x20\n      mul\n      0x20\n      add\n      mload(0x40)\n      swap1\n      dup2\n      add\n      0x40\n      mstore\n      dup1\n      swap3\n      swap2\n      swap1\n      dup2\n      dup2\n      mstore\n      0x20\n      add\n      dup3\n      dup1\n      sload\n      dup1\n      iszero\n      tag_115\n      jumpi\n      0x20\n      mul\n      dup3\n      add\n      swap2\n      swap1\n      0x00\n      mstore\n      keccak256(0x00, 0x20)\n      swap1\n    tag_116:\n      dup2\n      sload\n      dup2\n      mstore\n      0x20\n      add\n      swap1\n      0x01\n      add\n      swap1\n      dup1\n      dup4\n      gt\n      tag_116\n      jumpi\n    tag_115:\n      pop\n      pop\n      pop\n      pop\n      pop\n      swap1\n      pop\n        /* \"backend/Betting.sol\":12316:12504  function getPlayerBetIndices(uint256 roundId, address player)... */\n      swap3\n      swap2\n      pop\n      pop\n      jump\t// out\n        /* \"backend/Betting.sol\":8827:10270  function claimRefund(uint256 roundId) external nonReentrant {... */\n    tag_36:\n        /* \"@openzeppelin/contracts/utils/ReentrancyGuard.sol\":3023:3044  _nonReentrantBefore() */\n      tag_118\n        /* \"@openzeppelin/contracts/utils/ReentrancyGuard.sol\":3023:3042  _nonReentrantBefore */\n      tag_119\n        /* \"@openzeppelin/contracts/utils/ReentrancyGuard.sol\":3023:3044  _nonReentrantBefore() */\n      jump\t// in\n    tag_118:\n        /* \"backend/Betting.sol\":8897:8928  IGameManager.Round memory round */\n      0x00\n        /* \"backend/Betting.sol\":8931:8942  gameManager */\n      immutable(\"0xe9d2e5d7dcf681fb037cdc034b01f1fe792271e130f784f84f54ff4ae7a73679\")\n        /* \"backend/Betting.sol\":8931:8951  gameManager.getRound */\n      0xffffffffffffffffffffffffffffffffffffffff\n      and\n      0x8f1327c0\n        /* \"backend/Betting.sol\":8952:8959  roundId */\n      dup4\n        /* \"backend/Betting.sol\":8931:8960  gameManager.getRound(roundId) */\n      mload(0x40)\n      dup3\n      0xffffffff\n      and\n      0xe0\n      shl\n      dup2\n      mstore\n      0x04\n      add\n      tag_121\n      swap2\n      swap1\n      tag_43\n      jump\t// in\n    tag_121:\n      0x0180\n      mload(0x40)\n      dup1\n      dup4\n      sub\n      dup2\n      dup7\n      gas\n      staticcall\n      iszero\n      dup1\n      iszero\n      tag_123\n      jumpi\n      returndatacopy(0x00, 0x00, returndatasize)\n      revert(0x00, returndatasize)\n    tag_123:\n      pop\n      pop\n      pop\n      pop\n      mload(0x40)\n      returndatasize\n      not(0x1f)\n      0x1f\n      dup3\n      add\n      and\n      dup3\n      add\n      dup1\n      0x40\n      mstore\n      pop\n      dup2\n      add\n      swap1\n      tag_124\n      swap2\n      swap1\n      tag_85\n      jump\t// in\n    tag_124:\n        /* \"backend/Betting.sol\":8897:8960  IGameManager.Round memory round = gameManager.getRound(roundId) */\n      swap1\n      pop\n        /* \"backend/Betting.sol\":9193:9226  IGameManager.RoundState.CANCELLED */\n      0x03\n        /* \"backend/Betting.sol\":9178:9226  round.state != IGameManager.RoundState.CANCELLED */\n      dup1\n      dup2\n      gt\n      iszero\n      tag_125\n      jumpi\n      tag_126\n      tag_88\n      jump\t// in\n    tag_126:\n    tag_125:\n        /* \"backend/Betting.sol\":9178:9183  round */\n      dup2\n        /* \"backend/Betting.sol\":9178:9189  round.state */\n      0x0160\n      add\n      mload\n        /* \"backend/Betting.sol\":9178:9226  round.state != IGameManager.RoundState.CANCELLED */\n      0x03\n      dup2\n      gt\n      iszero\n      tag_127\n      jumpi\n      tag_128\n      tag_88\n      jump\t// in\n    tag_128:\n    tag_127:\n      eq\n        /* \"backend/Betting.sol\":9174:9254  if (round.state != IGameManager.RoundState.CANCELLED) revert RoundNotCancelled() */\n      tag_129\n      jumpi\n        /* \"backend/Betting.sol\":9235:9254  RoundNotCancelled() */\n      mload(0x40)\n      0x779df1a900000000000000000000000000000000000000000000000000000000\n      dup2\n      mstore\n      0x04\n      add\n      mload(0x40)\n      dup1\n      swap2\n      sub\n      swap1\n      revert\n        /* \"backend/Betting.sol\":9174:9254  if (round.state != IGameManager.RoundState.CANCELLED) revert RoundNotCancelled() */\n    tag_129:\n        /* \"backend/Betting.sol\":9265:9290  uint256[] storage indices */\n      0x00\n        /* \"backend/Betting.sol\":9293:9309  playerBetIndices */\n      0x01\n        /* \"backend/Betting.sol\":9293:9318  playerBetIndices[roundId] */\n      0x00\n        /* \"backend/Betting.sol\":9310:9317  roundId */\n      dup5\n        /* \"backend/Betting.sol\":9293:9318  playerBetIndices[roundId] */\n      dup2\n      mstore\n      0x20\n      add\n      swap1\n      dup2\n      mstore\n      0x20\n      add\n      0x00\n      keccak256\n        /* \"backend/Betting.sol\":9293:9330  playerBetIndices[roundId][msg.sender] */\n      0x00\n        /* \"backend/Betting.sol\":9319:9329  msg.sender */\n      caller\n        /* \"backend/Betting.sol\":9293:9330  playerBetIndices[roundId][msg.sender] */\n      0xffffffffffffffffffffffffffffffffffffffff\n      and\n      0xffffffffffffffffffffffffffffffffffffffff\n      and\n      dup2\n      mstore\n      0x20\n      add\n      swap1\n      dup2\n      mstore\n      0x20\n      add\n      0x00\n      keccak256\n        /* \"backend/Betting.sol\":9265:9330  uint256[] storage indices = playerBetIndices[roundId][msg.sender] */\n      swap1\n      pop\n        /* \"backend/Betting.sol\":9362:9363  0 */\n      0x00\n        /* \"backend/Betting.sol\":9344:9351  indices */\n      dup2\n        /* \"backend/Betting.sol\":9344:9358  indices.length */\n      dup1\n      sload\n      swap1\n      pop\n        /* \"backend/Betting.sol\":9344:9363  indices.length == 0 */\n      sub\n        /* \"backend/Betting.sol\":9340:9389  if (indices.length == 0) revert NoBetsToProcess() */\n      tag_130\n      jumpi\n        /* \"backend/Betting.sol\":9372:9389  NoBetsToProcess() */\n      mload(0x40)\n      0x9bc6cbe400000000000000000000000000000000000000000000000000000000\n      dup2\n      mstore\n      0x04\n      add\n      mload(0x40)\n      dup1\n      swap2\n      sub\n      swap1\n      revert\n        /* \"backend/Betting.sol\":9340:9389  if (indices.length == 0) revert NoBetsToProcess() */\n    tag_130:\n        /* \"backend/Betting.sol\":9601:9615  uint256 refund */\n      0x00\n        /* \"backend/Betting.sol\":9618:9619  0 */\n      0x00\n        /* \"backend/Betting.sol\":9601:9619  uint256 refund = 0 */\n      swap1\n      pop\n        /* \"backend/Betting.sol\":9634:9643  uint256 i */\n      0x00\n        /* \"backend/Betting.sol\":9646:9647  0 */\n      0x00\n        /* \"backend/Betting.sol\":9634:9647  uint256 i = 0 */\n      swap1\n      pop\n        /* \"backend/Betting.sol\":9629:9862  for (uint256 i = 0; i < indices.length; i++) {... */\n    tag_131:\n        /* \"backend/Betting.sol\":9653:9660  indices */\n      dup3\n        /* \"backend/Betting.sol\":9653:9667  indices.length */\n      dup1\n      sload\n      swap1\n      pop\n        /* \"backend/Betting.sol\":9649:9650  i */\n      dup2\n        /* \"backend/Betting.sol\":9649:9667  i < indices.length */\n      lt\n        /* \"backend/Betting.sol\":9629:9862  for (uint256 i = 0; i < indices.length; i++) {... */\n      iszero\n      tag_132\n      jumpi\n        /* \"backend/Betting.sol\":9688:9703  Bet storage bet */\n      0x00\n        /* \"backend/Betting.sol\":9706:9710  bets */\n      0x00\n        /* \"backend/Betting.sol\":9706:9719  bets[roundId] */\n      0x00\n        /* \"backend/Betting.sol\":9711:9718  roundId */\n      dup8\n        /* \"backend/Betting.sol\":9706:9719  bets[roundId] */\n      dup2\n      mstore\n      0x20\n      add\n      swap1\n      dup2\n      mstore\n      0x20\n      add\n      0x00\n      keccak256\n        /* \"backend/Betting.sol\":9720:9727  indices */\n      dup5\n        /* \"backend/Betting.sol\":9728:9729  i */\n      dup4\n        /* \"backend/Betting.sol\":9720:9730  indices[i] */\n      dup2\n      sload\n      dup2\n      lt\n      tag_134\n      jumpi\n      tag_135\n      tag_136\n      jump\t// in\n    tag_135:\n    tag_134:\n      swap1\n      0x00\n      mstore\n      keccak256(0x00, 0x20)\n      add\n      sload\n        /* \"backend/Betting.sol\":9706:9731  bets[roundId][indices[i]] */\n      dup2\n      sload\n      dup2\n      lt\n      tag_138\n      jumpi\n      tag_139\n      tag_136\n      jump\t// in\n    tag_139:\n    tag_138:\n      swap1\n      0x00\n      mstore\n      keccak256(0x00, 0x20)\n      swap1\n      0x05\n      mul\n      add\n        /* \"backend/Betting.sol\":9688:9731  Bet storage bet = bets[roundId][indices[i]] */\n      swap1\n      pop\n        /* \"backend/Betting.sol\":9750:9753  bet */\n      dup1\n        /* \"backend/Betting.sol\":9750:9761  bet.claimed */\n      0x04\n      add\n      0x00\n      swap1\n      sload\n      swap1\n      0x0100\n      exp\n      swap1\n      div\n      0xff\n      and\n        /* \"backend/Betting.sol\":9745:9852  if (!bet.claimed) {... */\n      tag_141\n      jumpi\n        /* \"backend/Betting.sol\":9791:9794  bet */\n      dup1\n        /* \"backend/Betting.sol\":9791:9801  bet.amount */\n      0x01\n      add\n      sload\n        /* \"backend/Betting.sol\":9781:9801  refund += bet.amount */\n      dup4\n      tag_142\n      swap2\n      swap1\n      tag_107\n      jump\t// in\n    tag_142:\n      swap3\n      pop\n        /* \"backend/Betting.sol\":9833:9837  true */\n      0x01\n        /* \"backend/Betting.sol\":9819:9822  bet */\n      dup2\n        /* \"backend/Betting.sol\":9819:9830  bet.claimed */\n      0x04\n      add\n      0x00\n        /* \"backend/Betting.sol\":9819:9837  bet.claimed = true */\n      0x0100\n      exp\n      dup2\n      sload\n      dup2\n      0xff\n      mul\n      not\n      and\n      swap1\n      dup4\n      iszero\n      iszero\n      mul\n      or\n      swap1\n      sstore\n      pop\n        /* \"backend/Betting.sol\":9745:9852  if (!bet.claimed) {... */\n    tag_141:\n        /* \"backend/Betting.sol\":9674:9862  {... */\n      pop\n        /* \"backend/Betting.sol\":9669:9672  i++ */\n      dup1\n      dup1\n      0x01\n      add\n      swap2\n      pop\n      pop\n        /* \"backend/Betting.sol\":9629:9862  for (uint256 i = 0; i < indices.length; i++) {... */\n      jump(tag_131)\n    tag_132:\n      pop\n        /* \"backend/Betting.sol\":9886:9887  0 */\n      0x00\n        /* \"backend/Betting.sol\":9876:9882  refund */\n      dup2\n        /* \"backend/Betting.sol\":9876:9887  refund == 0 */\n      sub\n        /* \"backend/Betting.sol\":9872:9913  if (refund == 0) revert NoBetsToProcess() */\n      tag_143\n      jumpi\n        /* \"backend/Betting.sol\":9896:9913  NoBetsToProcess() */\n      mload(0x40)\n      0x9bc6cbe400000000000000000000000000000000000000000000000000000000\n      dup2\n      mstore\n      0x04\n      add\n      mload(0x40)\n      dup1\n      swap2\n      sub\n      swap1\n      revert\n        /* \"backend/Betting.sol\":9872:9913  if (refund == 0) revert NoBetsToProcess() */\n    tag_143:\n        /* \"backend/Betting.sol\":10116:10123  bool ok */\n      0x00\n        /* \"backend/Betting.sol\":10129:10139  msg.sender */\n      caller\n        /* \"backend/Betting.sol\":10129:10144  msg.sender.call */\n      0xffffffffffffffffffffffffffffffffffffffff\n      and\n        /* \"backend/Betting.sol\":10152:10158  refund */\n      dup3\n        /* \"backend/Betting.sol\":10129:10163  msg.sender.call{value: refund}(\"\") */\n      mload(0x40)\n      tag_144\n      swap1\n      tag_145\n      jump\t// in\n    tag_144:\n      0x00\n      mload(0x40)\n      dup1\n      dup4\n      sub\n      dup2\n      dup6\n      dup8\n      gas\n      call\n      swap3\n      pop\n      pop\n      pop\n      returndatasize\n      dup1\n      0x00\n      dup2\n      eq\n      tag_148\n      jumpi\n      mload(0x40)\n      swap2\n      pop\n      and(add(returndatasize, 0x3f), not(0x1f))\n      dup3\n      add\n      0x40\n      mstore\n      returndatasize\n      dup3\n      mstore\n      returndatasize\n      0x00\n      0x20\n      dup5\n      add\n      returndatacopy\n      jump(tag_147)\n    tag_148:\n      0x60\n      swap2\n      pop\n    tag_147:\n      pop\n        /* \"backend/Betting.sol\":10115:10163  (bool ok, ) = msg.sender.call{value: refund}(\"\") */\n      pop\n      swap1\n      pop\n        /* \"backend/Betting.sol\":10178:10180  ok */\n      dup1\n        /* \"backend/Betting.sol\":10173:10205  if (!ok) revert TransferFailed() */\n      tag_149\n      jumpi\n        /* \"backend/Betting.sol\":10189:10205  TransferFailed() */\n      mload(0x40)\n      0x90b8ec1800000000000000000000000000000000000000000000000000000000\n      dup2\n      mstore\n      0x04\n      add\n      mload(0x40)\n      dup1\n      swap2\n      sub\n      swap1\n      revert\n        /* \"backend/Betting.sol\":10173:10205  if (!ok) revert TransferFailed() */\n    tag_149:\n        /* \"backend/Betting.sol\":10244:10254  msg.sender */\n      caller\n        /* \"backend/Betting.sol\":10221:10263  RefundClaimed(roundId, msg.sender, refund) */\n      0xffffffffffffffffffffffffffffffffffffffff\n      and\n        /* \"backend/Betting.sol\":10235:10242  roundId */\n      dup6\n        /* \"backend/Betting.sol\":10221:10263  RefundClaimed(roundId, msg.sender, refund) */\n      0xf3f402280ef0a7905e124aa621b65eaeb2725c343e8b36d398ed78c29daf285c\n        /* \"backend/Betting.sol\":10256:10262  refund */\n      dup5\n        /* \"backend/Betting.sol\":10221:10263  RefundClaimed(roundId, msg.sender, refund) */\n      mload(0x40)\n      tag_150\n      swap2\n      swap1\n      tag_43\n      jump\t// in\n    tag_150:\n      mload(0x40)\n      dup1\n      swap2\n      sub\n      swap1\n      log3\n        /* \"backend/Betting.sol\":8887:10270  {... */\n      pop\n      pop\n      pop\n      pop\n        /* \"@openzeppelin/contracts/utils/ReentrancyGuard.sol\":3065:3085  _nonReentrantAfter() */\n      tag_151\n        /* \"@openzeppelin/contracts/utils/ReentrancyGuard.sol\":3065:3083  _nonReentrantAfter */\n      tag_152\n        /* \"@openzeppelin/contracts/utils/ReentrancyGuard.sol\":3065:3085  _nonReentrantAfter() */\n      jump\t// in\n    tag_151:\n        /* \"backend/Betting.sol\":8827:10270  function claimRefund(uint256 roundId) external nonReentrant {... */\n      pop\n      jump\t// out\n        /* \"backend/Betting.sol\":1727:1800  mapping(uint256 => mapping(address => uint256[])) public playerBetIndices */\n    tag_41:\n      mstore(0x20, 0x01)\n      dup3\n      0x00\n      mstore\n      mstore(0x20, keccak256(0x00, 0x40))\n      dup2\n      0x00\n      mstore\n      keccak256(0x00, 0x40)\n      dup2\n      dup2\n      sload\n      dup2\n      lt\n      tag_153\n      jumpi\n      0x00\n      dup1\n      revert\n    tag_153:\n      swap1\n      0x00\n      mstore\n      keccak256(0x00, 0x20)\n      add\n      0x00\n      swap3\n      pop\n      swap3\n      pop\n      pop\n      pop\n      sload\n      dup2\n      jump\t// out\n        /* \"backend/Betting.sol\":6150:8507  function claimWinnings(uint256 roundId) external nonReentrant {... */\n    tag_47:\n        /* \"@openzeppelin/contracts/utils/ReentrancyGuard.sol\":3023:3044  _nonReentrantBefore() */\n      tag_156\n        /* \"@openzeppelin/contracts/utils/ReentrancyGuard.sol\":3023:3042  _nonReentrantBefore */\n      tag_119\n        /* \"@openzeppelin/contracts/utils/ReentrancyGuard.sol\":3023:3044  _nonReentrantBefore() */\n      jump\t// in\n    tag_156:\n        /* \"backend/Betting.sol\":6222:6253  IGameManager.Round memory round */\n      0x00\n        /* \"backend/Betting.sol\":6256:6267  gameManager */\n      immutable(\"0xe9d2e5d7dcf681fb037cdc034b01f1fe792271e130f784f84f54ff4ae7a73679\")\n        /* \"backend/Betting.sol\":6256:6276  gameManager.getRound */\n      0xffffffffffffffffffffffffffffffffffffffff\n      and\n      0x8f1327c0\n        /* \"backend/Betting.sol\":6277:6284  roundId */\n      dup4\n        /* \"backend/Betting.sol\":6256:6285  gameManager.getRound(roundId) */\n      mload(0x40)\n      dup3\n      0xffffffff\n      and\n      0xe0\n      shl\n      dup2\n      mstore\n      0x04\n      add\n      tag_158\n      swap2\n      swap1\n      tag_43\n      jump\t// in\n    tag_158:\n      0x0180\n      mload(0x40)\n      dup1\n      dup4\n      sub\n      dup2\n      dup7\n      gas\n      staticcall\n      iszero\n      dup1\n      iszero\n      tag_160\n      jumpi\n      returndatacopy(0x00, 0x00, returndatasize)\n      revert(0x00, returndatasize)\n    tag_160:\n      pop\n      pop\n      pop\n      pop\n      mload(0x40)\n      returndatasize\n      not(0x1f)\n      0x1f\n      dup3\n      add\n      and\n      dup3\n      add\n      dup1\n      0x40\n      mstore\n      pop\n      dup2\n      add\n      swap1\n      tag_161\n      swap2\n      swap1\n      tag_85\n      jump\t// in\n    tag_161:\n        /* \"backend/Betting.sol\":6222:6285  IGameManager.Round memory round = gameManager.getRound(roundId) */\n      swap1\n      pop\n        /* \"backend/Betting.sol\":6518:6550  IGameManager.RoundState.RESOLVED */\n      0x02\n        /* \"backend/Betting.sol\":6503:6550  round.state != IGameManager.RoundState.RESOLVED */\n      0x03\n      dup2\n      gt\n      iszero\n      tag_162\n      jumpi\n      tag_163\n      tag_88\n      jump\t// in\n    tag_163:\n    tag_162:\n        /* \"backend/Betting.sol\":6503:6508  round */\n      dup2\n        /* \"backend/Betting.sol\":6503:6514  round.state */\n      0x0160\n      add\n      mload\n        /* \"backend/Betting.sol\":6503:6550  round.state != IGameManager.RoundState.RESOLVED */\n      0x03\n      dup2\n      gt\n      iszero\n      tag_164\n      jumpi\n      tag_165\n      tag_88\n      jump\t// in\n    tag_165:\n    tag_164:\n      eq\n        /* \"backend/Betting.sol\":6499:6577  if (round.state != IGameManager.RoundState.RESOLVED) revert RoundNotResolved() */\n      tag_166\n      jumpi\n        /* \"backend/Betting.sol\":6559:6577  RoundNotResolved() */\n      mload(0x40)\n      0xe2a1659a00000000000000000000000000000000000000000000000000000000\n      dup2\n      mstore\n      0x04\n      add\n      mload(0x40)\n      dup1\n      swap2\n      sub\n      swap1\n      revert\n        /* \"backend/Betting.sol\":6499:6577  if (round.state != IGameManager.RoundState.RESOLVED) revert RoundNotResolved() */\n    tag_166:\n        /* \"backend/Betting.sol\":6588:6613  uint256[] storage indices */\n      0x00\n        /* \"backend/Betting.sol\":6616:6632  playerBetIndices */\n      0x01\n        /* \"backend/Betting.sol\":6616:6641  playerBetIndices[roundId] */\n      0x00\n        /* \"backend/Betting.sol\":6633:6640  roundId */\n      dup5\n        /* \"backend/Betting.sol\":6616:6641  playerBetIndices[roundId] */\n      dup2\n      mstore\n      0x20\n      add\n      swap1\n      dup2\n      mstore\n      0x20\n      add\n      0x00\n      keccak256\n        /* \"backend/Betting.sol\":6616:6653  playerBetIndices[roundId][msg.sender] */\n      0x00\n        /* \"backend/Betting.sol\":6642:6652  msg.sender */\n      caller\n        /* \"backend/Betting.sol\":6616:6653  playerBetIndices[roundId][msg.sender] */\n      0xffffffffffffffffffffffffffffffffffffffff\n      and\n      0xffffffffffffffffffffffffffffffffffffffff\n      and\n      dup2\n      mstore\n      0x20\n      add\n      swap1\n      dup2\n      mstore\n      0x20\n      add\n      0x00\n      keccak256\n        /* \"backend/Betting.sol\":6588:6653  uint256[] storage indices = playerBetIndices[roundId][msg.sender] */\n      swap1\n      pop\n        /* \"backend/Betting.sol\":6685:6686  0 */\n      0x00\n        /* \"backend/Betting.sol\":6667:6674  indices */\n      dup2\n        /* \"backend/Betting.sol\":6667:6681  indices.length */\n      dup1\n      sload\n      swap1\n      pop\n        /* \"backend/Betting.sol\":6667:6686  indices.length == 0 */\n      sub\n        /* \"backend/Betting.sol\":6663:6712  if (indices.length == 0) revert NoBetsToProcess() */\n      tag_167\n      jumpi\n        /* \"backend/Betting.sol\":6695:6712  NoBetsToProcess() */\n      mload(0x40)\n      0x9bc6cbe400000000000000000000000000000000000000000000000000000000\n      dup2\n      mstore\n      0x04\n      add\n      mload(0x40)\n      dup1\n      swap2\n      sub\n      swap1\n      revert\n        /* \"backend/Betting.sol\":6663:6712  if (indices.length == 0) revert NoBetsToProcess() */\n    tag_167:\n        /* \"backend/Betting.sol\":6797:6815  uint256 feePercent */\n      0x00\n        /* \"backend/Betting.sol\":6818:6824  config */\n      immutable(\"0x41e56607cad04c134e4e470c9fce76566c1848af363d3617ff5ce2939142f7f3\")\n        /* \"backend/Betting.sol\":6818:6843  config.houseFeePercentage */\n      0xffffffffffffffffffffffffffffffffffffffff\n      and\n      0x1780a892\n        /* \"backend/Betting.sol\":6818:6845  config.houseFeePercentage() */\n      mload(0x40)\n      dup2\n      0xffffffff\n      and\n      0xe0\n      shl\n      dup2\n      mstore\n      0x04\n      add\n      0x20\n      mload(0x40)\n      dup1\n      dup4\n      sub\n      dup2\n      dup7\n      gas\n      staticcall\n      iszero\n      dup1\n      iszero\n      tag_169\n      jumpi\n      returndatacopy(0x00, 0x00, returndatasize)\n      revert(0x00, returndatasize)\n    tag_169:\n      pop\n      pop\n      pop\n      pop\n      mload(0x40)\n      returndatasize\n      not(0x1f)\n      0x1f\n      dup3\n      add\n      and\n      dup3\n      add\n      dup1\n      0x40\n      mstore\n      pop\n      dup2\n      add\n      swap1\n      tag_170\n      swap2\n      swap1\n      tag_171\n      jump\t// in\n    tag_170:\n        /* \"backend/Betting.sol\":6797:6845  uint256 feePercent = config.houseFeePercentage() */\n      swap1\n      pop\n        /* \"backend/Betting.sol\":6855:6871  uint256 houseFee */\n      0x00\n        /* \"backend/Betting.sol\":6909:6912  100 */\n      0x64\n        /* \"backend/Betting.sol\":6895:6905  feePercent */\n      dup3\n        /* \"backend/Betting.sol\":6875:6883  totalPot */\n      0x02\n        /* \"backend/Betting.sol\":6875:6892  totalPot[roundId] */\n      0x00\n        /* \"backend/Betting.sol\":6884:6891  roundId */\n      dup9\n        /* \"backend/Betting.sol\":6875:6892  totalPot[roundId] */\n      dup2\n      mstore\n      0x20\n      add\n      swap1\n      dup2\n      mstore\n      0x20\n      add\n      0x00\n      keccak256\n      sload\n        /* \"backend/Betting.sol\":6875:6905  totalPot[roundId] * feePercent */\n      tag_172\n      swap2\n      swap1\n      tag_173\n      jump\t// in\n    tag_172:\n        /* \"backend/Betting.sol\":6874:6912  (totalPot[roundId] * feePercent) / 100 */\n      tag_174\n      swap2\n      swap1\n      tag_175\n      jump\t// in\n    tag_174:\n        /* \"backend/Betting.sol\":6855:6912  uint256 houseFee = (totalPot[roundId] * feePercent) / 100 */\n      swap1\n      pop\n        /* \"backend/Betting.sol\":6922:6946  uint256 distributablePot */\n      0x00\n        /* \"backend/Betting.sol\":6969:6977  houseFee */\n      dup2\n        /* \"backend/Betting.sol\":6949:6957  totalPot */\n      0x02\n        /* \"backend/Betting.sol\":6949:6966  totalPot[roundId] */\n      0x00\n        /* \"backend/Betting.sol\":6958:6965  roundId */\n      dup9\n        /* \"backend/Betting.sol\":6949:6966  totalPot[roundId] */\n      dup2\n      mstore\n      0x20\n      add\n      swap1\n      dup2\n      mstore\n      0x20\n      add\n      0x00\n      keccak256\n      sload\n        /* \"backend/Betting.sol\":6949:6977  totalPot[roundId] - houseFee */\n      tag_176\n      swap2\n      swap1\n      tag_177\n      jump\t// in\n    tag_176:\n        /* \"backend/Betting.sol\":6922:6977  uint256 distributablePot = totalPot[roundId] - houseFee */\n      swap1\n      pop\n        /* \"backend/Betting.sol\":7047:7064  uint256 rawPayout */\n      0x00\n        /* \"backend/Betting.sol\":7067:7120  _calcRawPayout(roundId, round.winningColour, indices) */\n      tag_178\n        /* \"backend/Betting.sol\":7082:7089  roundId */\n      dup8\n        /* \"backend/Betting.sol\":7091:7096  round */\n      dup8\n        /* \"backend/Betting.sol\":7091:7110  round.winningColour */\n      0x0100\n      add\n      mload\n        /* \"backend/Betting.sol\":7112:7119  indices */\n      dup8\n        /* \"backend/Betting.sol\":7067:7081  _calcRawPayout */\n      tag_179\n        /* \"backend/Betting.sol\":7067:7120  _calcRawPayout(roundId, round.winningColour, indices) */\n      jump\t// in\n    tag_178:\n        /* \"backend/Betting.sol\":7047:7120  uint256 rawPayout = _calcRawPayout(roundId, round.winningColour, indices) */\n      swap1\n      pop\n        /* \"backend/Betting.sol\":7147:7148  0 */\n      0x00\n        /* \"backend/Betting.sol\":7134:7143  rawPayout */\n      dup2\n        /* \"backend/Betting.sol\":7134:7148  rawPayout == 0 */\n      sub\n        /* \"backend/Betting.sol\":7130:7174  if (rawPayout == 0) revert NoBetsToProcess() */\n      tag_180\n      jumpi\n        /* \"backend/Betting.sol\":7157:7174  NoBetsToProcess() */\n      mload(0x40)\n      0x9bc6cbe400000000000000000000000000000000000000000000000000000000\n      dup2\n      mstore\n      0x04\n      add\n      mload(0x40)\n      dup1\n      swap2\n      sub\n      swap1\n      revert\n        /* \"backend/Betting.sol\":7130:7174  if (rawPayout == 0) revert NoBetsToProcess() */\n    tag_180:\n        /* \"backend/Betting.sol\":7274:7296  uint256 totalRawPayout */\n      0x00\n        /* \"backend/Betting.sol\":7299:7348  _calcTotalRawPayout(roundId, round.winningColour) */\n      tag_181\n        /* \"backend/Betting.sol\":7319:7326  roundId */\n      dup9\n        /* \"backend/Betting.sol\":7328:7333  round */\n      dup9\n        /* \"backend/Betting.sol\":7328:7347  round.winningColour */\n      0x0100\n      add\n      mload\n        /* \"backend/Betting.sol\":7299:7318  _calcTotalRawPayout */\n      tag_182\n        /* \"backend/Betting.sol\":7299:7348  _calcTotalRawPayout(roundId, round.winningColour) */\n      jump\t// in\n    tag_181:\n        /* \"backend/Betting.sol\":7274:7348  uint256 totalRawPayout = _calcTotalRawPayout(roundId, round.winningColour) */\n      swap1\n      pop\n        /* \"backend/Betting.sol\":7425:7439  uint256 payout */\n      0x00\n        /* \"backend/Betting.sol\":7470:7486  distributablePot */\n      dup4\n        /* \"backend/Betting.sol\":7453:7467  totalRawPayout */\n      dup3\n        /* \"backend/Betting.sol\":7453:7486  totalRawPayout > distributablePot */\n      gt\n        /* \"backend/Betting.sol\":7449:7618  if (totalRawPayout > distributablePot) {... */\n      iszero\n      tag_183\n      jumpi\n        /* \"backend/Betting.sol\":7544:7558  totalRawPayout */\n      dup2\n        /* \"backend/Betting.sol\":7524:7540  distributablePot */\n      dup5\n        /* \"backend/Betting.sol\":7512:7521  rawPayout */\n      dup5\n        /* \"backend/Betting.sol\":7512:7540  rawPayout * distributablePot */\n      tag_184\n      swap2\n      swap1\n      tag_173\n      jump\t// in\n    tag_184:\n        /* \"backend/Betting.sol\":7511:7558  (rawPayout * distributablePot) / totalRawPayout */\n      tag_185\n      swap2\n      swap1\n      tag_175\n      jump\t// in\n    tag_185:\n        /* \"backend/Betting.sol\":7502:7558  payout = (rawPayout * distributablePot) / totalRawPayout */\n      swap1\n      pop\n        /* \"backend/Betting.sol\":7449:7618  if (totalRawPayout > distributablePot) {... */\n      jump(tag_186)\n    tag_183:\n        /* \"backend/Betting.sol\":7598:7607  rawPayout */\n      dup3\n        /* \"backend/Betting.sol\":7589:7607  payout = rawPayout */\n      swap1\n      pop\n        /* \"backend/Betting.sol\":7449:7618  if (totalRawPayout > distributablePot) {... */\n    tag_186:\n        /* \"backend/Betting.sol\":7916:7925  uint256 i */\n      0x00\n        /* \"backend/Betting.sol\":7928:7929  0 */\n      0x00\n        /* \"backend/Betting.sol\":7916:7929  uint256 i = 0 */\n      swap1\n      pop\n        /* \"backend/Betting.sol\":7911:8149  for (uint256 i = 0; i < indices.length; i++) {... */\n    tag_187:\n        /* \"backend/Betting.sol\":7935:7942  indices */\n      dup8\n        /* \"backend/Betting.sol\":7935:7949  indices.length */\n      dup1\n      sload\n      swap1\n      pop\n        /* \"backend/Betting.sol\":7931:7932  i */\n      dup2\n        /* \"backend/Betting.sol\":7931:7949  i < indices.length */\n      lt\n        /* \"backend/Betting.sol\":7911:8149  for (uint256 i = 0; i < indices.length; i++) {... */\n      iszero\n      tag_188\n      jumpi\n        /* \"backend/Betting.sol\":7970:7985  Bet storage bet */\n      0x00\n        /* \"backend/Betting.sol\":7988:7992  bets */\n      0x00\n        /* \"backend/Betting.sol\":7988:8001  bets[roundId] */\n      0x00\n        /* \"backend/Betting.sol\":7993:8000  roundId */\n      dup13\n        /* \"backend/Betting.sol\":7988:8001  bets[roundId] */\n      dup2\n      mstore\n      0x20\n      add\n      swap1\n      dup2\n      mstore\n      0x20\n      add\n      0x00\n      keccak256\n        /* \"backend/Betting.sol\":8002:8009  indices */\n      dup10\n        /* \"backend/Betting.sol\":8010:8011  i */\n      dup4\n        /* \"backend/Betting.sol\":8002:8012  indices[i] */\n      dup2\n      sload\n      dup2\n      lt\n      tag_190\n      jumpi\n      tag_191\n      tag_136\n      jump\t// in\n    tag_191:\n    tag_190:\n      swap1\n      0x00\n      mstore\n      keccak256(0x00, 0x20)\n      add\n      sload\n        /* \"backend/Betting.sol\":7988:8013  bets[roundId][indices[i]] */\n      dup2\n      sload\n      dup2\n      lt\n      tag_193\n      jumpi\n      tag_194\n      tag_136\n      jump\t// in\n    tag_194:\n    tag_193:\n      swap1\n      0x00\n      mstore\n      keccak256(0x00, 0x20)\n      swap1\n      0x05\n      mul\n      add\n        /* \"backend/Betting.sol\":7970:8013  Bet storage bet = bets[roundId][indices[i]] */\n      swap1\n      pop\n        /* \"backend/Betting.sol\":8032:8035  bet */\n      dup1\n        /* \"backend/Betting.sol\":8032:8043  bet.claimed */\n      0x04\n      add\n      0x00\n      swap1\n      sload\n      swap1\n      0x0100\n      exp\n      swap1\n      div\n      0xff\n      and\n        /* \"backend/Betting.sol\":8031:8043  !bet.claimed */\n      iszero\n        /* \"backend/Betting.sol\":8031:8086  !bet.claimed && bet.chosenColour == round.winningColour */\n      dup1\n      iszero\n      tag_196\n      jumpi\n      pop\n        /* \"backend/Betting.sol\":8067:8072  round */\n      dup10\n        /* \"backend/Betting.sol\":8067:8086  round.winningColour */\n      0x0100\n      add\n      mload\n        /* \"backend/Betting.sol\":8047:8086  bet.chosenColour == round.winningColour */\n      0xff\n      and\n        /* \"backend/Betting.sol\":8047:8050  bet */\n      dup2\n        /* \"backend/Betting.sol\":8047:8063  bet.chosenColour */\n      0x00\n      add\n      0x14\n      swap1\n      sload\n      swap1\n      0x0100\n      exp\n      swap1\n      div\n      0xff\n      and\n        /* \"backend/Betting.sol\":8047:8086  bet.chosenColour == round.winningColour */\n      0xff\n      and\n      eq\n        /* \"backend/Betting.sol\":8031:8086  !bet.claimed && bet.chosenColour == round.winningColour */\n    tag_196:\n        /* \"backend/Betting.sol\":8027:8139  if (!bet.claimed && bet.chosenColour == round.winningColour) {... */\n      iszero\n      tag_197\n      jumpi\n        /* \"backend/Betting.sol\":8120:8124  true */\n      0x01\n        /* \"backend/Betting.sol\":8106:8109  bet */\n      dup2\n        /* \"backend/Betting.sol\":8106:8117  bet.claimed */\n      0x04\n      add\n      0x00\n        /* \"backend/Betting.sol\":8106:8124  bet.claimed = true */\n      0x0100\n      exp\n      dup2\n      sload\n      dup2\n      0xff\n      mul\n      not\n      and\n      swap1\n      dup4\n      iszero\n      iszero\n      mul\n      or\n      swap1\n      sstore\n      pop\n        /* \"backend/Betting.sol\":8027:8139  if (!bet.claimed && bet.chosenColour == round.winningColour) {... */\n    tag_197:\n        /* \"backend/Betting.sol\":7956:8149  {... */\n      pop\n        /* \"backend/Betting.sol\":7951:7954  i++ */\n      dup1\n      dup1\n      0x01\n      add\n      swap2\n      pop\n      pop\n        /* \"backend/Betting.sol\":7911:8149  for (uint256 i = 0; i < indices.length; i++) {... */\n      jump(tag_187)\n    tag_188:\n      pop\n        /* \"backend/Betting.sol\":8351:8358  bool ok */\n      0x00\n        /* \"backend/Betting.sol\":8364:8374  msg.sender */\n      caller\n        /* \"backend/Betting.sol\":8364:8379  msg.sender.call */\n      0xffffffffffffffffffffffffffffffffffffffff\n      and\n        /* \"backend/Betting.sol\":8387:8393  payout */\n      dup3\n        /* \"backend/Betting.sol\":8364:8398  msg.sender.call{value: payout}(\"\") */\n      mload(0x40)\n      tag_198\n      swap1\n      tag_145\n      jump\t// in\n    tag_198:\n      0x00\n      mload(0x40)\n      dup1\n      dup4\n      sub\n      dup2\n      dup6\n      dup8\n      gas\n      call\n      swap3\n      pop\n      pop\n      pop\n      returndatasize\n      dup1\n      0x00\n      dup2\n      eq\n      tag_201\n      jumpi\n      mload(0x40)\n      swap2\n      pop\n      and(add(returndatasize, 0x3f), not(0x1f))\n      dup3\n      add\n      0x40\n      mstore\n      returndatasize\n      dup3\n      mstore\n      returndatasize\n      0x00\n      0x20\n      dup5\n      add\n      returndatacopy\n      jump(tag_200)\n    tag_201:\n      0x60\n      swap2\n      pop\n    tag_200:\n      pop\n        /* \"backend/Betting.sol\":8350:8398  (bool ok, ) = msg.sender.call{value: payout}(\"\") */\n      pop\n      swap1\n      pop\n        /* \"backend/Betting.sol\":8413:8415  ok */\n      dup1\n        /* \"backend/Betting.sol\":8408:8440  if (!ok) revert TransferFailed() */\n      tag_202\n      jumpi\n        /* \"backend/Betting.sol\":8424:8440  TransferFailed() */\n      mload(0x40)\n      0x90b8ec1800000000000000000000000000000000000000000000000000000000\n      dup2\n      mstore\n      0x04\n      add\n      mload(0x40)\n      dup1\n      swap2\n      sub\n      swap1\n      revert\n        /* \"backend/Betting.sol\":8408:8440  if (!ok) revert TransferFailed() */\n    tag_202:\n        /* \"backend/Betting.sol\":8481:8491  msg.sender */\n      caller\n        /* \"backend/Betting.sol\":8456:8500  WinningsClaimed(roundId, msg.sender, payout) */\n      0xffffffffffffffffffffffffffffffffffffffff\n      and\n        /* \"backend/Betting.sol\":8472:8479  roundId */\n      dup11\n        /* \"backend/Betting.sol\":8456:8500  WinningsClaimed(roundId, msg.sender, payout) */\n      0x5380cf6fe903b40c6d5a9e0dfbca2f3a423f0a21520b4d5947ed5169bdba946d\n        /* \"backend/Betting.sol\":8493:8499  payout */\n      dup5\n        /* \"backend/Betting.sol\":8456:8500  WinningsClaimed(roundId, msg.sender, payout) */\n      mload(0x40)\n      tag_203\n      swap2\n      swap1\n      tag_43\n      jump\t// in\n    tag_203:\n      mload(0x40)\n      dup1\n      swap2\n      sub\n      swap1\n      log3\n        /* \"backend/Betting.sol\":6212:8507  {... */\n      pop\n      pop\n      pop\n      pop\n      pop\n      pop\n      pop\n      pop\n      pop\n        /* \"@openzeppelin/contracts/utils/ReentrancyGuard.sol\":3065:3085  _nonReentrantAfter() */\n      tag_204\n        /* \"@openzeppelin/contracts/utils/ReentrancyGuard.sol\":3065:3083  _nonReentrantAfter */\n      tag_152\n        /* \"@openzeppelin/contracts/utils/ReentrancyGuard.sol\":3065:3085  _nonReentrantAfter() */\n      jump\t// in\n    tag_204:\n        /* \"backend/Betting.sol\":6150:8507  function claimWinnings(uint256 roundId) external nonReentrant {... */\n      pop\n      jump\t// out\n        /* \"backend/Betting.sol\":1611:1648  mapping(uint256 => Bet[]) public bets */\n    tag_52:\n      mstore(0x20, 0x00)\n      dup2\n      0x00\n      mstore\n      keccak256(0x00, 0x40)\n      dup2\n      dup2\n      sload\n      dup2\n      lt\n      tag_205\n      jumpi\n      0x00\n      dup1\n      revert\n    tag_205:\n      swap1\n      0x00\n      mstore\n      keccak256(0x00, 0x20)\n      swap1\n      0x05\n      mul\n      add\n      0x00\n      swap2\n      pop\n      swap2\n      pop\n      pop\n      dup1\n      0x00\n      add\n      0x00\n      swap1\n      sload\n      swap1\n      0x0100\n      exp\n      swap1\n      div\n      0xffffffffffffffffffffffffffffffffffffffff\n      and\n      swap1\n      dup1\n      0x00\n      add\n      0x14\n      swap1\n      sload\n      swap1\n      0x0100\n      exp\n      swap1\n      div\n      0xff\n      and\n      swap1\n      dup1\n      0x01\n      add\n      sload\n      swap1\n      dup1\n      0x02\n      add\n      sload\n      swap1\n      dup1\n      0x03\n      add\n      sload\n      swap1\n      dup1\n      0x04\n      add\n      0x00\n      swap1\n      sload\n      swap1\n      0x0100\n      exp\n      swap1\n      div\n      0xff\n      and\n      swap1\n      pop\n      dup7\n      jump\t// out\n        /* \"backend/Betting.sol\":1517:1548  IConfig public immutable config */\n    tag_57:\n      immutable(\"0x41e56607cad04c134e4e470c9fce76566c1848af363d3617ff5ce2939142f7f3\")\n      dup2\n      jump\t// out\n        /* \"backend/Betting.sol\":1981:2030  mapping(uint256 => bool) public houseFeeWithdrawn */\n    tag_63:\n      mstore(0x20, 0x03)\n      dup1\n      0x00\n      mstore\n      keccak256(0x00, 0x40)\n      0x00\n      swap2\n      pop\n      sload\n      swap1\n      0x0100\n      exp\n      swap1\n      div\n      0xff\n      and\n      dup2\n      jump\t// out\n        /* \"backend/Betting.sol\":1857:1900  mapping(uint256 => uint256) public totalPot */\n    tag_69:\n      mstore(0x20, 0x02)\n      dup1\n      0x00\n      mstore\n      keccak256(0x00, 0x40)\n      0x00\n      swap2\n      pop\n      swap1\n      pop\n      sload\n      dup2\n      jump\t// out\n        /* \"backend/Betting.sol\":1470:1511  IGameManager public immutable gameManager */\n    tag_73:\n      immutable(\"0xe9d2e5d7dcf681fb037cdc034b01f1fe792271e130f784f84f54ff4ae7a73679\")\n      dup2\n      jump\t// out\n        /* \"backend/Betting.sol\":10574:11858  function withdrawHouseFee(uint256 roundId) external nonReentrant {... */\n    tag_79:\n        /* \"@openzeppelin/contracts/utils/ReentrancyGuard.sol\":3023:3044  _nonReentrantBefore() */\n      tag_208\n        /* \"@openzeppelin/contracts/utils/ReentrancyGuard.sol\":3023:3042  _nonReentrantBefore */\n      tag_119\n        /* \"@openzeppelin/contracts/utils/ReentrancyGuard.sol\":3023:3044  _nonReentrantBefore() */\n      jump\t// in\n    tag_208:\n        /* \"backend/Betting.sol\":10649:10680  IGameManager.Round memory round */\n      0x00\n        /* \"backend/Betting.sol\":10683:10694  gameManager */\n      immutable(\"0xe9d2e5d7dcf681fb037cdc034b01f1fe792271e130f784f84f54ff4ae7a73679\")\n        /* \"backend/Betting.sol\":10683:10703  gameManager.getRound */\n      0xffffffffffffffffffffffffffffffffffffffff\n      and\n      0x8f1327c0\n        /* \"backend/Betting.sol\":10704:10711  roundId */\n      dup4\n        /* \"backend/Betting.sol\":10683:10712  gameManager.getRound(roundId) */\n      mload(0x40)\n      dup3\n      0xffffffff\n      and\n      0xe0\n      shl\n      dup2\n      mstore\n      0x04\n      add\n      tag_210\n      swap2\n      swap1\n      tag_43\n      jump\t// in\n    tag_210:\n      0x0180\n      mload(0x40)\n      dup1\n      dup4\n      sub\n      dup2\n      dup7\n      gas\n      staticcall\n      iszero\n      dup1\n      iszero\n      tag_212\n      jumpi\n      returndatacopy(0x00, 0x00, returndatasize)\n      revert(0x00, returndatasize)\n    tag_212:\n      pop\n      pop\n      pop\n      pop\n      mload(0x40)\n      returndatasize\n      not(0x1f)\n      0x1f\n      dup3\n      add\n      and\n      dup3\n      add\n      dup1\n      0x40\n      mstore\n      pop\n      dup2\n      add\n      swap1\n      tag_213\n      swap2\n      swap1\n      tag_85\n      jump\t// in\n    tag_213:\n        /* \"backend/Betting.sol\":10649:10712  IGameManager.Round memory round = gameManager.getRound(roundId) */\n      swap1\n      pop\n        /* \"backend/Betting.sol\":10945:10977  IGameManager.RoundState.RESOLVED */\n      0x02\n        /* \"backend/Betting.sol\":10930:10977  round.state != IGameManager.RoundState.RESOLVED */\n      0x03\n      dup2\n      gt\n      iszero\n      tag_214\n      jumpi\n      tag_215\n      tag_88\n      jump\t// in\n    tag_215:\n    tag_214:\n        /* \"backend/Betting.sol\":10930:10935  round */\n      dup2\n        /* \"backend/Betting.sol\":10930:10941  round.state */\n      0x0160\n      add\n      mload\n        /* \"backend/Betting.sol\":10930:10977  round.state != IGameManager.RoundState.RESOLVED */\n      0x03\n      dup2\n      gt\n      iszero\n      tag_216\n      jumpi\n      tag_217\n      tag_88\n      jump\t// in\n    tag_217:\n    tag_216:\n      eq\n        /* \"backend/Betting.sol\":10926:11004  if (round.state != IGameManager.RoundState.RESOLVED) revert RoundNotResolved() */\n      tag_218\n      jumpi\n        /* \"backend/Betting.sol\":10986:11004  RoundNotResolved() */\n      mload(0x40)\n      0xe2a1659a00000000000000000000000000000000000000000000000000000000\n      dup2\n      mstore\n      0x04\n      add\n      mload(0x40)\n      dup1\n      swap2\n      sub\n      swap1\n      revert\n        /* \"backend/Betting.sol\":10926:11004  if (round.state != IGameManager.RoundState.RESOLVED) revert RoundNotResolved() */\n    tag_218:\n        /* \"backend/Betting.sol\":11032:11037  round */\n      dup1\n        /* \"backend/Betting.sol\":11032:11043  round.house */\n      0x20\n      add\n      mload\n        /* \"backend/Betting.sol\":11018:11043  msg.sender != round.house */\n      0xffffffffffffffffffffffffffffffffffffffff\n      and\n        /* \"backend/Betting.sol\":11018:11028  msg.sender */\n      caller\n        /* \"backend/Betting.sol\":11018:11043  msg.sender != round.house */\n      0xffffffffffffffffffffffffffffffffffffffff\n      and\n      eq\n        /* \"backend/Betting.sol\":11014:11067  if (msg.sender != round.house) revert NotRoundHouse() */\n      tag_219\n      jumpi\n        /* \"backend/Betting.sol\":11052:11067  NotRoundHouse() */\n      mload(0x40)\n      0x46bca2aa00000000000000000000000000000000000000000000000000000000\n      dup2\n      mstore\n      0x04\n      add\n      mload(0x40)\n      dup1\n      swap2\n      sub\n      swap1\n      revert\n        /* \"backend/Betting.sol\":11014:11067  if (msg.sender != round.house) revert NotRoundHouse() */\n    tag_219:\n        /* \"backend/Betting.sol\":11081:11098  houseFeeWithdrawn */\n      0x03\n        /* \"backend/Betting.sol\":11081:11107  houseFeeWithdrawn[roundId] */\n      0x00\n        /* \"backend/Betting.sol\":11099:11106  roundId */\n      dup4\n        /* \"backend/Betting.sol\":11081:11107  houseFeeWithdrawn[roundId] */\n      dup2\n      mstore\n      0x20\n      add\n      swap1\n      dup2\n      mstore\n      0x20\n      add\n      0x00\n      keccak256\n      0x00\n      swap1\n      sload\n      swap1\n      0x0100\n      exp\n      swap1\n      div\n      0xff\n      and\n        /* \"backend/Betting.sol\":11077:11137  if (houseFeeWithdrawn[roundId]) revert FeeAlreadyWithdrawn() */\n      iszero\n      tag_220\n      jumpi\n        /* \"backend/Betting.sol\":11116:11137  FeeAlreadyWithdrawn() */\n      mload(0x40)\n      0x058a3b7900000000000000000000000000000000000000000000000000000000\n      dup2\n      mstore\n      0x04\n      add\n      mload(0x40)\n      dup1\n      swap2\n      sub\n      swap1\n      revert\n        /* \"backend/Betting.sol\":11077:11137  if (houseFeeWithdrawn[roundId]) revert FeeAlreadyWithdrawn() */\n    tag_220:\n        /* \"backend/Betting.sol\":11349:11367  uint256 feePercent */\n      0x00\n        /* \"backend/Betting.sol\":11370:11376  config */\n      immutable(\"0x41e56607cad04c134e4e470c9fce76566c1848af363d3617ff5ce2939142f7f3\")\n        /* \"backend/Betting.sol\":11370:11395  config.houseFeePercentage */\n      0xffffffffffffffffffffffffffffffffffffffff\n      and\n      0x1780a892\n        /* \"backend/Betting.sol\":11370:11397  config.houseFeePercentage() */\n      mload(0x40)\n      dup2\n      0xffffffff\n      and\n      0xe0\n      shl\n      dup2\n      mstore\n      0x04\n      add\n      0x20\n      mload(0x40)\n      dup1\n      dup4\n      sub\n      dup2\n      dup7\n      gas\n      staticcall\n      iszero\n      dup1\n      iszero\n      tag_222\n      jumpi\n      returndatacopy(0x00, 0x00, returndatasize)\n      revert(0x00, returndatasize)\n    tag_222:\n      pop\n      pop\n      pop\n      pop\n      mload(0x40)\n      returndatasize\n      not(0x1f)\n      0x1f\n      dup3\n      add\n      and\n      dup3\n      add\n      dup1\n      0x40\n      mstore\n      pop\n      dup2\n      add\n      swap1\n      tag_223\n      swap2\n      swap1\n      tag_171\n      jump\t// in\n    tag_223:\n        /* \"backend/Betting.sol\":11349:11397  uint256 feePercent = config.houseFeePercentage() */\n      swap1\n      pop\n        /* \"backend/Betting.sol\":11407:11418  uint256 fee */\n      0x00\n        /* \"backend/Betting.sol\":11456:11459  100 */\n      0x64\n        /* \"backend/Betting.sol\":11442:11452  feePercent */\n      dup3\n        /* \"backend/Betting.sol\":11422:11430  totalPot */\n      0x02\n        /* \"backend/Betting.sol\":11422:11439  totalPot[roundId] */\n      0x00\n        /* \"backend/Betting.sol\":11431:11438  roundId */\n      dup8\n        /* \"backend/Betting.sol\":11422:11439  totalPot[roundId] */\n      dup2\n      mstore\n      0x20\n      add\n      swap1\n      dup2\n      mstore\n      0x20\n      add\n      0x00\n      keccak256\n      sload\n        /* \"backend/Betting.sol\":11422:11452  totalPot[roundId] * feePercent */\n      tag_224\n      swap2\n      swap1\n      tag_173\n      jump\t// in\n    tag_224:\n        /* \"backend/Betting.sol\":11421:11459  (totalPot[roundId] * feePercent) / 100 */\n      tag_225\n      swap2\n      swap1\n      tag_175\n      jump\t// in\n    tag_225:\n        /* \"backend/Betting.sol\":11407:11459  uint256 fee = (totalPot[roundId] * feePercent) / 100 */\n      swap1\n      pop\n        /* \"backend/Betting.sol\":11499:11503  true */\n      0x01\n        /* \"backend/Betting.sol\":11470:11487  houseFeeWithdrawn */\n      0x03\n        /* \"backend/Betting.sol\":11470:11496  houseFeeWithdrawn[roundId] */\n      0x00\n        /* \"backend/Betting.sol\":11488:11495  roundId */\n      dup7\n        /* \"backend/Betting.sol\":11470:11496  houseFeeWithdrawn[roundId] */\n      dup2\n      mstore\n      0x20\n      add\n      swap1\n      dup2\n      mstore\n      0x20\n      add\n      0x00\n      keccak256\n      0x00\n        /* \"backend/Betting.sol\":11470:11503  houseFeeWithdrawn[roundId] = true */\n      0x0100\n      exp\n      dup2\n      sload\n      dup2\n      0xff\n      mul\n      not\n      and\n      swap1\n      dup4\n      iszero\n      iszero\n      mul\n      or\n      swap1\n      sstore\n      pop\n        /* \"backend/Betting.sol\":11706:11713  bool ok */\n      0x00\n        /* \"backend/Betting.sol\":11719:11729  msg.sender */\n      caller\n        /* \"backend/Betting.sol\":11719:11734  msg.sender.call */\n      0xffffffffffffffffffffffffffffffffffffffff\n      and\n        /* \"backend/Betting.sol\":11742:11745  fee */\n      dup3\n        /* \"backend/Betting.sol\":11719:11750  msg.sender.call{value: fee}(\"\") */\n      mload(0x40)\n      tag_226\n      swap1\n      tag_145\n      jump\t// in\n    tag_226:\n      0x00\n      mload(0x40)\n      dup1\n      dup4\n      sub\n      dup2\n      dup6\n      dup8\n      gas\n      call\n      swap3\n      pop\n      pop\n      pop\n      returndatasize\n      dup1\n      0x00\n      dup2\n      eq\n      tag_229\n      jumpi\n      mload(0x40)\n      swap2\n      pop\n      and(add(returndatasize, 0x3f), not(0x1f))\n      dup3\n      add\n      0x40\n      mstore\n      returndatasize\n      dup3\n      mstore\n      returndatasize\n      0x00\n      0x20\n      dup5\n      add\n      returndatacopy\n      jump(tag_228)\n    tag_229:\n      0x60\n      swap2\n      pop\n    tag_228:\n      pop\n        /* \"backend/Betting.sol\":11705:11750  (bool ok, ) = msg.sender.call{value: fee}(\"\") */\n      pop\n      swap1\n      pop\n        /* \"backend/Betting.sol\":11765:11767  ok */\n      dup1\n        /* \"backend/Betting.sol\":11760:11792  if (!ok) revert TransferFailed() */\n      tag_230\n      jumpi\n        /* \"backend/Betting.sol\":11776:11792  TransferFailed() */\n      mload(0x40)\n      0x90b8ec1800000000000000000000000000000000000000000000000000000000\n      dup2\n      mstore\n      0x04\n      add\n      mload(0x40)\n      dup1\n      swap2\n      sub\n      swap1\n      revert\n        /* \"backend/Betting.sol\":11760:11792  if (!ok) revert TransferFailed() */\n    tag_230:\n        /* \"backend/Betting.sol\":11835:11845  msg.sender */\n      caller\n        /* \"backend/Betting.sol\":11808:11851  HouseFeeWithdrawn(roundId, msg.sender, fee) */\n      0xffffffffffffffffffffffffffffffffffffffff\n      and\n        /* \"backend/Betting.sol\":11826:11833  roundId */\n      dup6\n        /* \"backend/Betting.sol\":11808:11851  HouseFeeWithdrawn(roundId, msg.sender, fee) */\n      0x207b15363f1e2f99cf2f39cacef16677e32cee18674ababce6ecd95ca90e3d36\n        /* \"backend/Betting.sol\":11847:11850  fee */\n      dup5\n        /* \"backend/Betting.sol\":11808:11851  HouseFeeWithdrawn(roundId, msg.sender, fee) */\n      mload(0x40)\n      tag_231\n      swap2\n      swap1\n      tag_43\n      jump\t// in\n    tag_231:\n      mload(0x40)\n      dup1\n      swap2\n      sub\n      swap1\n      log3\n        /* \"backend/Betting.sol\":10639:11858  {... */\n      pop\n      pop\n      pop\n      pop\n        /* \"@openzeppelin/contracts/utils/ReentrancyGuard.sol\":3065:3085  _nonReentrantAfter() */\n      tag_232\n        /* \"@openzeppelin/contracts/utils/ReentrancyGuard.sol\":3065:3083  _nonReentrantAfter */\n      tag_152\n        /* \"@openzeppelin/contracts/utils/ReentrancyGuard.sol\":3065:3085  _nonReentrantAfter() */\n      jump\t// in\n    tag_232:\n        /* \"backend/Betting.sol\":10574:11858  function withdrawHouseFee(uint256 roundId) external nonReentrant {... */\n      pop\n      jump\t// out\n        /* \"backend/Betting.sol\":12901:13864  function _calculateMultiplier(IGameManager.Round memory round)... */\n    tag_103:\n        /* \"backend/Betting.sol\":13011:13018  uint256 */\n      0x00\n        /* \"backend/Betting.sol\":13203:13217  uint256 maxMul */\n      0x00\n        /* \"backend/Betting.sol\":13220:13224  3000 */\n      0x0bb8\n        /* \"backend/Betting.sol\":13203:13224  uint256 maxMul = 3000 */\n      swap1\n      pop\n        /* \"backend/Betting.sol\":13243:13257  uint256 minMul */\n      0x00\n        /* \"backend/Betting.sol\":13260:13264  1000 */\n      0x03e8\n        /* \"backend/Betting.sol\":13243:13264  uint256 minMul = 1000 */\n      swap1\n      pop\n        /* \"backend/Betting.sol\":13284:13306  uint256 windowDuration */\n      0x00\n        /* \"backend/Betting.sol\":13334:13339  round */\n      dup5\n        /* \"backend/Betting.sol\":13334:13358  round.bettingWindowStart */\n      0x0120\n      add\n      mload\n        /* \"backend/Betting.sol\":13309:13314  round */\n      dup6\n        /* \"backend/Betting.sol\":13309:13331  round.bettingWindowEnd */\n      0x0140\n      add\n      mload\n        /* \"backend/Betting.sol\":13309:13358  round.bettingWindowEnd - round.bettingWindowStart */\n      tag_234\n      swap2\n      swap1\n      tag_177\n      jump\t// in\n    tag_234:\n        /* \"backend/Betting.sol\":13284:13358  uint256 windowDuration = round.bettingWindowEnd - round.bettingWindowStart */\n      swap1\n      pop\n        /* \"backend/Betting.sol\":13390:13391  0 */\n      0x00\n        /* \"backend/Betting.sol\":13372:13386  windowDuration */\n      dup2\n        /* \"backend/Betting.sol\":13372:13391  windowDuration == 0 */\n      sub\n        /* \"backend/Betting.sol\":13368:13406  if (windowDuration == 0) return minMul */\n      tag_235\n      jumpi\n        /* \"backend/Betting.sol\":13400:13406  minMul */\n      dup2\n        /* \"backend/Betting.sol\":13393:13406  return minMul */\n      swap4\n      pop\n      pop\n      pop\n      pop\n      jump(tag_233)\n        /* \"backend/Betting.sol\":13368:13406  if (windowDuration == 0) return minMul */\n    tag_235:\n        /* \"backend/Betting.sol\":13417:13432  uint256 elapsed */\n      0x00\n        /* \"backend/Betting.sol\":13453:13458  round */\n      dup6\n        /* \"backend/Betting.sol\":13453:13477  round.bettingWindowStart */\n      0x0120\n      add\n      mload\n        /* \"backend/Betting.sol\":13435:13450  block.timestamp */\n      timestamp\n        /* \"backend/Betting.sol\":13435:13477  block.timestamp - round.bettingWindowStart */\n      tag_236\n      swap2\n      swap1\n      tag_177\n      jump\t// in\n    tag_236:\n        /* \"backend/Betting.sol\":13417:13477  uint256 elapsed = block.timestamp - round.bettingWindowStart */\n      swap1\n      pop\n        /* \"backend/Betting.sol\":13502:13516  windowDuration */\n      dup2\n        /* \"backend/Betting.sol\":13491:13498  elapsed */\n      dup2\n        /* \"backend/Betting.sol\":13491:13516  elapsed >= windowDuration */\n      lt\n        /* \"backend/Betting.sol\":13487:13531  if (elapsed >= windowDuration) return minMul */\n      tag_237\n      jumpi\n        /* \"backend/Betting.sol\":13525:13531  minMul */\n      dup3\n        /* \"backend/Betting.sol\":13518:13531  return minMul */\n      swap5\n      pop\n      pop\n      pop\n      pop\n      pop\n      jump(tag_233)\n        /* \"backend/Betting.sol\":13487:13531  if (elapsed >= windowDuration) return minMul */\n    tag_237:\n        /* \"backend/Betting.sol\":13756:13773  uint256 reduction */\n      0x00\n        /* \"backend/Betting.sol\":13808:13822  windowDuration */\n      dup3\n        /* \"backend/Betting.sol\":13797:13803  minMul */\n      dup5\n        /* \"backend/Betting.sol\":13788:13794  maxMul */\n      dup7\n        /* \"backend/Betting.sol\":13788:13803  maxMul - minMul */\n      tag_238\n      swap2\n      swap1\n      tag_177\n      jump\t// in\n    tag_238:\n        /* \"backend/Betting.sol\":13777:13784  elapsed */\n      dup4\n        /* \"backend/Betting.sol\":13777:13804  elapsed * (maxMul - minMul) */\n      tag_239\n      swap2\n      swap1\n      tag_173\n      jump\t// in\n    tag_239:\n        /* \"backend/Betting.sol\":13776:13822  (elapsed * (maxMul - minMul)) / windowDuration */\n      tag_240\n      swap2\n      swap1\n      tag_175\n      jump\t// in\n    tag_240:\n        /* \"backend/Betting.sol\":13756:13822  uint256 reduction = (elapsed * (maxMul - minMul)) / windowDuration */\n      swap1\n      pop\n        /* \"backend/Betting.sol\":13848:13857  reduction */\n      dup1\n        /* \"backend/Betting.sol\":13839:13845  maxMul */\n      dup6\n        /* \"backend/Betting.sol\":13839:13857  maxMul - reduction */\n      tag_241\n      swap2\n      swap1\n      tag_177\n      jump\t// in\n    tag_241:\n        /* \"backend/Betting.sol\":13832:13857  return maxMul - reduction */\n      swap6\n      pop\n      pop\n      pop\n      pop\n      pop\n      pop\n        /* \"backend/Betting.sol\":12901:13864  function _calculateMultiplier(IGameManager.Round memory round)... */\n    tag_233:\n      swap2\n      swap1\n      pop\n      jump\t// out\n        /* \"@openzeppelin/contracts/utils/ReentrancyGuard.sol\":3749:4041  function _nonReentrantBefore() private {... */\n    tag_119:\n        /* \"@openzeppelin/contracts/utils/ReentrancyGuard.sol\":3872:3897  _nonReentrantBeforeView() */\n      tag_243\n        /* \"@openzeppelin/contracts/utils/ReentrancyGuard.sol\":3872:3895  _nonReentrantBeforeView */\n      tag_244\n        /* \"@openzeppelin/contracts/utils/ReentrancyGuard.sol\":3872:3897  _nonReentrantBeforeView() */\n      jump\t// in\n    tag_243:\n        /* \"@openzeppelin/contracts/utils/ReentrancyGuard.sol\":2407:2408  2 */\n      0x02\n        /* \"@openzeppelin/contracts/utils/ReentrancyGuard.sol\":3972:4018  _reentrancyGuardStorageSlot().getUint256Slot() */\n      tag_245\n        /* \"@openzeppelin/contracts/utils/ReentrancyGuard.sol\":3972:4001  _reentrancyGuardStorageSlot() */\n      tag_246\n        /* \"@openzeppelin/contracts/utils/ReentrancyGuard.sol\":3972:3999  _reentrancyGuardStorageSlot */\n      tag_247\n        /* \"@openzeppelin/contracts/utils/ReentrancyGuard.sol\":3972:4001  _reentrancyGuardStorageSlot() */\n      jump\t// in\n    tag_246:\n        /* \"@openzeppelin/contracts/utils/ReentrancyGuard.sol\":3972:4016  _reentrancyGuardStorageSlot().getUint256Slot */\n      tag_248\n        /* \"@openzeppelin/contracts/utils/ReentrancyGuard.sol\":3972:4018  _reentrancyGuardStorageSlot().getUint256Slot() */\n      jump\t// in\n    tag_245:\n        /* \"@openzeppelin/contracts/utils/ReentrancyGuard.sol\":3972:4024  _reentrancyGuardStorageSlot().getUint256Slot().value */\n      0x00\n      add\n        /* \"@openzeppelin/contracts/utils/ReentrancyGuard.sol\":3972:4034  _reentrancyGuardStorageSlot().getUint256Slot().value = ENTERED */\n      dup2\n      swap1\n      sstore\n      pop\n        /* \"@openzeppelin/contracts/utils/ReentrancyGuard.sol\":3749:4041  function _nonReentrantBefore() private {... */\n      jump\t// out\n        /* \"@openzeppelin/contracts/utils/ReentrancyGuard.sol\":4047:4300  function _nonReentrantAfter() private {... */\n    tag_152:\n        /* \"@openzeppelin/contracts/utils/ReentrancyGuard.sol\":2365:2366  1 */\n      0x01\n        /* \"@openzeppelin/contracts/utils/ReentrancyGuard.sol\":4227:4273  _reentrancyGuardStorageSlot().getUint256Slot() */\n      tag_250\n        /* \"@openzeppelin/contracts/utils/ReentrancyGuard.sol\":4227:4256  _reentrancyGuardStorageSlot() */\n      tag_251\n        /* \"@openzeppelin/contracts/utils/ReentrancyGuard.sol\":4227:4254  _reentrancyGuardStorageSlot */\n      tag_247\n        /* \"@openzeppelin/contracts/utils/ReentrancyGuard.sol\":4227:4256  _reentrancyGuardStorageSlot() */\n      jump\t// in\n    tag_251:\n        /* \"@openzeppelin/contracts/utils/ReentrancyGuard.sol\":4227:4271  _reentrancyGuardStorageSlot().getUint256Slot */\n      tag_248\n        /* \"@openzeppelin/contracts/utils/ReentrancyGuard.sol\":4227:4273  _reentrancyGuardStorageSlot().getUint256Slot() */\n      jump\t// in\n    tag_250:\n        /* \"@openzeppelin/contracts/utils/ReentrancyGuard.sol\":4227:4279  _reentrancyGuardStorageSlot().getUint256Slot().value */\n      0x00\n      add\n        /* \"@openzeppelin/contracts/utils/ReentrancyGuard.sol\":4227:4293  _reentrancyGuardStorageSlot().getUint256Slot().value = NOT_ENTERED */\n      dup2\n      swap1\n      sstore\n      pop\n        /* \"@openzeppelin/contracts/utils/ReentrancyGuard.sol\":4047:4300  function _nonReentrantAfter() private {... */\n      jump\t// out\n        /* \"backend/Betting.sol\":14120:14548  function _calcRawPayout(... */\n    tag_179:\n        /* \"backend/Betting.sol\":14262:14273  uint256 raw */\n      0x00\n        /* \"backend/Betting.sol\":14290:14299  uint256 i */\n      0x00\n        /* \"backend/Betting.sol\":14302:14303  0 */\n      0x00\n        /* \"backend/Betting.sol\":14290:14303  uint256 i = 0 */\n      swap1\n      pop\n        /* \"backend/Betting.sol\":14285:14542  for (uint256 i = 0; i < indices.length; i++) {... */\n    tag_253:\n        /* \"backend/Betting.sol\":14309:14316  indices */\n      dup3\n        /* \"backend/Betting.sol\":14309:14323  indices.length */\n      dup1\n      sload\n      swap1\n      pop\n        /* \"backend/Betting.sol\":14305:14306  i */\n      dup2\n        /* \"backend/Betting.sol\":14305:14323  i < indices.length */\n      lt\n        /* \"backend/Betting.sol\":14285:14542  for (uint256 i = 0; i < indices.length; i++) {... */\n      iszero\n      tag_254\n      jumpi\n        /* \"backend/Betting.sol\":14344:14359  Bet storage bet */\n      0x00\n        /* \"backend/Betting.sol\":14362:14366  bets */\n      0x00\n        /* \"backend/Betting.sol\":14362:14375  bets[roundId] */\n      0x00\n        /* \"backend/Betting.sol\":14367:14374  roundId */\n      dup8\n        /* \"backend/Betting.sol\":14362:14375  bets[roundId] */\n      dup2\n      mstore\n      0x20\n      add\n      swap1\n      dup2\n      mstore\n      0x20\n      add\n      0x00\n      keccak256\n        /* \"backend/Betting.sol\":14376:14383  indices */\n      dup5\n        /* \"backend/Betting.sol\":14384:14385  i */\n      dup4\n        /* \"backend/Betting.sol\":14376:14386  indices[i] */\n      dup2\n      sload\n      dup2\n      lt\n      tag_256\n      jumpi\n      tag_257\n      tag_136\n      jump\t// in\n    tag_257:\n    tag_256:\n      swap1\n      0x00\n      mstore\n      keccak256(0x00, 0x20)\n      add\n      sload\n        /* \"backend/Betting.sol\":14362:14387  bets[roundId][indices[i]] */\n      dup2\n      sload\n      dup2\n      lt\n      tag_259\n      jumpi\n      tag_260\n      tag_136\n      jump\t// in\n    tag_260:\n    tag_259:\n      swap1\n      0x00\n      mstore\n      keccak256(0x00, 0x20)\n      swap1\n      0x05\n      mul\n      add\n        /* \"backend/Betting.sol\":14344:14387  Bet storage bet = bets[roundId][indices[i]] */\n      swap1\n      pop\n        /* \"backend/Betting.sol\":14406:14409  bet */\n      dup1\n        /* \"backend/Betting.sol\":14406:14417  bet.claimed */\n      0x04\n      add\n      0x00\n      swap1\n      sload\n      swap1\n      0x0100\n      exp\n      swap1\n      div\n      0xff\n      and\n        /* \"backend/Betting.sol\":14405:14417  !bet.claimed */\n      iszero\n        /* \"backend/Betting.sol\":14405:14454  !bet.claimed && bet.chosenColour == winningColour */\n      dup1\n      iszero\n      tag_262\n      jumpi\n      pop\n        /* \"backend/Betting.sol\":14441:14454  winningColour */\n      dup5\n        /* \"backend/Betting.sol\":14421:14454  bet.chosenColour == winningColour */\n      0xff\n      and\n        /* \"backend/Betting.sol\":14421:14424  bet */\n      dup2\n        /* \"backend/Betting.sol\":14421:14437  bet.chosenColour */\n      0x00\n      add\n      0x14\n      swap1\n      sload\n      swap1\n      0x0100\n      exp\n      swap1\n      div\n      0xff\n      and\n        /* \"backend/Betting.sol\":14421:14454  bet.chosenColour == winningColour */\n      0xff\n      and\n      eq\n        /* \"backend/Betting.sol\":14405:14454  !bet.claimed && bet.chosenColour == winningColour */\n    tag_262:\n        /* \"backend/Betting.sol\":14401:14532  if (!bet.claimed && bet.chosenColour == winningColour) {... */\n      iszero\n      tag_263\n      jumpi\n        /* \"backend/Betting.sol\":14513:14517  1000 */\n      0x03e8\n        /* \"backend/Betting.sol\":14495:14498  bet */\n      dup2\n        /* \"backend/Betting.sol\":14495:14509  bet.multiplier */\n      0x03\n      add\n      sload\n        /* \"backend/Betting.sol\":14482:14485  bet */\n      dup3\n        /* \"backend/Betting.sol\":14482:14492  bet.amount */\n      0x01\n      add\n      sload\n        /* \"backend/Betting.sol\":14482:14509  bet.amount * bet.multiplier */\n      tag_264\n      swap2\n      swap1\n      tag_173\n      jump\t// in\n    tag_264:\n        /* \"backend/Betting.sol\":14481:14517  (bet.amount * bet.multiplier) / 1000 */\n      tag_265\n      swap2\n      swap1\n      tag_175\n      jump\t// in\n    tag_265:\n        /* \"backend/Betting.sol\":14474:14517  raw += (bet.amount * bet.multiplier) / 1000 */\n      dup4\n      tag_266\n      swap2\n      swap1\n      tag_107\n      jump\t// in\n    tag_266:\n      swap3\n      pop\n        /* \"backend/Betting.sol\":14401:14532  if (!bet.claimed && bet.chosenColour == winningColour) {... */\n    tag_263:\n        /* \"backend/Betting.sol\":14330:14542  {... */\n      pop\n        /* \"backend/Betting.sol\":14325:14328  i++ */\n      dup1\n      dup1\n      0x01\n      add\n      swap2\n      pop\n      pop\n        /* \"backend/Betting.sol\":14285:14542  for (uint256 i = 0; i < indices.length; i++) {... */\n      jump(tag_253)\n    tag_254:\n      pop\n        /* \"backend/Betting.sol\":14120:14548  function _calcRawPayout(... */\n      swap4\n      swap3\n      pop\n      pop\n      pop\n      jump\t// out\n        /* \"backend/Betting.sol\":14643:15083  function _calcTotalRawPayout(uint256 roundId, uint8 winningColour)... */\n    tag_182:\n        /* \"backend/Betting.sol\":14757:14770  uint256 total */\n      0x00\n        /* \"backend/Betting.sol\":14786:14807  Bet[] storage allBets */\n      0x00\n        /* \"backend/Betting.sol\":14810:14814  bets */\n      0x00\n        /* \"backend/Betting.sol\":14810:14823  bets[roundId] */\n      0x00\n        /* \"backend/Betting.sol\":14815:14822  roundId */\n      dup6\n        /* \"backend/Betting.sol\":14810:14823  bets[roundId] */\n      dup2\n      mstore\n      0x20\n      add\n      swap1\n      dup2\n      mstore\n      0x20\n      add\n      0x00\n      keccak256\n        /* \"backend/Betting.sol\":14786:14823  Bet[] storage allBets = bets[roundId] */\n      swap1\n      pop\n        /* \"backend/Betting.sol\":14838:14847  uint256 i */\n      0x00\n        /* \"backend/Betting.sol\":14850:14851  0 */\n      0x00\n        /* \"backend/Betting.sol\":14838:14851  uint256 i = 0 */\n      swap1\n      pop\n        /* \"backend/Betting.sol\":14833:15077  for (uint256 i = 0; i < allBets.length; i++) {... */\n    tag_268:\n        /* \"backend/Betting.sol\":14857:14864  allBets */\n      dup2\n        /* \"backend/Betting.sol\":14857:14871  allBets.length */\n      dup1\n      sload\n      swap1\n      pop\n        /* \"backend/Betting.sol\":14853:14854  i */\n      dup2\n        /* \"backend/Betting.sol\":14853:14871  i < allBets.length */\n      lt\n        /* \"backend/Betting.sol\":14833:15077  for (uint256 i = 0; i < allBets.length; i++) {... */\n      iszero\n      tag_269\n      jumpi\n        /* \"backend/Betting.sol\":14892:14907  Bet storage bet */\n      0x00\n        /* \"backend/Betting.sol\":14910:14917  allBets */\n      dup3\n        /* \"backend/Betting.sol\":14918:14919  i */\n      dup3\n        /* \"backend/Betting.sol\":14910:14920  allBets[i] */\n      dup2\n      sload\n      dup2\n      lt\n      tag_271\n      jumpi\n      tag_272\n      tag_136\n      jump\t// in\n    tag_272:\n    tag_271:\n      swap1\n      0x00\n      mstore\n      keccak256(0x00, 0x20)\n      swap1\n      0x05\n      mul\n      add\n        /* \"backend/Betting.sol\":14892:14920  Bet storage bet = allBets[i] */\n      swap1\n      pop\n        /* \"backend/Betting.sol\":14939:14942  bet */\n      dup1\n        /* \"backend/Betting.sol\":14939:14950  bet.claimed */\n      0x04\n      add\n      0x00\n      swap1\n      sload\n      swap1\n      0x0100\n      exp\n      swap1\n      div\n      0xff\n      and\n        /* \"backend/Betting.sol\":14938:14950  !bet.claimed */\n      iszero\n        /* \"backend/Betting.sol\":14938:14987  !bet.claimed && bet.chosenColour == winningColour */\n      dup1\n      iszero\n      tag_274\n      jumpi\n      pop\n        /* \"backend/Betting.sol\":14974:14987  winningColour */\n      dup5\n        /* \"backend/Betting.sol\":14954:14987  bet.chosenColour == winningColour */\n      0xff\n      and\n        /* \"backend/Betting.sol\":14954:14957  bet */\n      dup2\n        /* \"backend/Betting.sol\":14954:14970  bet.chosenColour */\n      0x00\n      add\n      0x14\n      swap1\n      sload\n      swap1\n      0x0100\n      exp\n      swap1\n      div\n      0xff\n      and\n        /* \"backend/Betting.sol\":14954:14987  bet.chosenColour == winningColour */\n      0xff\n      and\n      eq\n        /* \"backend/Betting.sol\":14938:14987  !bet.claimed && bet.chosenColour == winningColour */\n    tag_274:\n        /* \"backend/Betting.sol\":14934:15067  if (!bet.claimed && bet.chosenColour == winningColour) {... */\n      iszero\n      tag_275\n      jumpi\n        /* \"backend/Betting.sol\":15048:15052  1000 */\n      0x03e8\n        /* \"backend/Betting.sol\":15030:15033  bet */\n      dup2\n        /* \"backend/Betting.sol\":15030:15044  bet.multiplier */\n      0x03\n      add\n      sload\n        /* \"backend/Betting.sol\":15017:15020  bet */\n      dup3\n        /* \"backend/Betting.sol\":15017:15027  bet.amount */\n      0x01\n      add\n      sload\n        /* \"backend/Betting.sol\":15017:15044  bet.amount * bet.multiplier */\n      tag_276\n      swap2\n      swap1\n      tag_173\n      jump\t// in\n    tag_276:\n        /* \"backend/Betting.sol\":15016:15052  (bet.amount * bet.multiplier) / 1000 */\n      tag_277\n      swap2\n      swap1\n      tag_175\n      jump\t// in\n    tag_277:\n        /* \"backend/Betting.sol\":15007:15052  total += (bet.amount * bet.multiplier) / 1000 */\n      dup5\n      tag_278\n      swap2\n      swap1\n      tag_107\n      jump\t// in\n    tag_278:\n      swap4\n      pop\n        /* \"backend/Betting.sol\":14934:15067  if (!bet.claimed && bet.chosenColour == winningColour) {... */\n    tag_275:\n        /* \"backend/Betting.sol\":14878:15077  {... */\n      pop\n        /* \"backend/Betting.sol\":14873:14876  i++ */\n      dup1\n      dup1\n      0x01\n      add\n      swap2\n      pop\n      pop\n        /* \"backend/Betting.sol\":14833:15077  for (uint256 i = 0; i < allBets.length; i++) {... */\n      jump(tag_268)\n    tag_269:\n      pop\n        /* \"backend/Betting.sol\":14776:15083  {... */\n      pop\n        /* \"backend/Betting.sol\":14643:15083  function _calcTotalRawPayout(uint256 roundId, uint8 winningColour)... */\n      swap3\n      swap2\n      pop\n      pop\n      jump\t// out\n        /* \"@openzeppelin/contracts/utils/ReentrancyGuard.sol\":3586:3743  function _nonReentrantBeforeView() private view {... */\n    tag_244:\n        /* \"@openzeppelin/contracts/utils/ReentrancyGuard.sol\":3648:3673  _reentrancyGuardEntered() */\n      tag_280\n        /* \"@openzeppelin/contracts/utils/ReentrancyGuard.sol\":3648:3671  _reentrancyGuardEntered */\n      tag_281\n        /* \"@openzeppelin/contracts/utils/ReentrancyGuard.sol\":3648:3673  _reentrancyGuardEntered() */\n      jump\t// in\n    tag_280:\n        /* \"@openzeppelin/contracts/utils/ReentrancyGuard.sol\":3644:3737  if (_reentrancyGuardEntered()) {... */\n      iszero\n      tag_282\n      jumpi\n        /* \"@openzeppelin/contracts/utils/ReentrancyGuard.sol\":3696:3726  ReentrancyGuardReentrantCall() */\n      mload(0x40)\n      0x3ee5aeb500000000000000000000000000000000000000000000000000000000\n      dup2\n      mstore\n      0x04\n      add\n      mload(0x40)\n      dup1\n      swap2\n      sub\n      swap1\n      revert\n        /* \"@openzeppelin/contracts/utils/ReentrancyGuard.sol\":3644:3737  if (_reentrancyGuardEntered()) {... */\n    tag_282:\n        /* \"@openzeppelin/contracts/utils/ReentrancyGuard.sol\":3586:3743  function _nonReentrantBeforeView() private view {... */\n      jump\t// out\n        /* \"@openzeppelin/contracts/utils/ReentrancyGuard.sol\":4636:4763  function _reentrancyGuardStorageSlot() internal pure virtual returns (bytes32) {... */\n    tag_247:\n        /* \"@openzeppelin/contracts/utils/ReentrancyGuard.sol\":4706:4713  bytes32 */\n      0x00\n        /* \"@openzeppelin/contracts/utils/ReentrancyGuard.sol\":1505:1571  0x9b779b17422d0df92223018b32b4d1fa46e071723d6817e2486d003becc55f00 */\n      0x9b779b17422d0df92223018b32b4d1fa46e071723d6817e2486d003becc55f00\n        /* \"@openzeppelin/contracts/utils/ReentrancyGuard.sol\":4732:4756  REENTRANCY_GUARD_STORAGE */\n      0x00\n      shl\n        /* \"@openzeppelin/contracts/utils/ReentrancyGuard.sol\":4725:4756  return REENTRANCY_GUARD_STORAGE */\n      swap1\n      pop\n        /* \"@openzeppelin/contracts/utils/ReentrancyGuard.sol\":4636:4763  function _reentrancyGuardStorageSlot() internal pure virtual returns (bytes32) {... */\n      swap1\n      jump\t// out\n        /* \"@openzeppelin/contracts/utils/StorageSlot.sol\":2679:2842  function getUint256Slot(bytes32 slot) internal pure returns (Uint256Slot storage r) {... */\n    tag_248:\n        /* \"@openzeppelin/contracts/utils/StorageSlot.sol\":2740:2761  Uint256Slot storage r */\n      0x00\n        /* \"@openzeppelin/contracts/utils/StorageSlot.sol\":2822:2826  slot */\n      dup2\n        /* \"@openzeppelin/contracts/utils/StorageSlot.sol\":2812:2826  r.slot := slot */\n      swap1\n      pop\n        /* \"@openzeppelin/contracts/utils/StorageSlot.sol\":2679:2842  function getUint256Slot(bytes32 slot) internal pure returns (Uint256Slot storage r) {... */\n      swap2\n      swap1\n      pop\n      jump\t// out\n        /* \"@openzeppelin/contracts/utils/ReentrancyGuard.sol\":4479:4630  function _reentrancyGuardEntered() internal view returns (bool) {... */\n    tag_281:\n        /* \"@openzeppelin/contracts/utils/ReentrancyGuard.sol\":4537:4541  bool */\n      0x00\n        /* \"@openzeppelin/contracts/utils/ReentrancyGuard.sol\":2407:2408  2 */\n      0x02\n        /* \"@openzeppelin/contracts/utils/ReentrancyGuard.sol\":4560:4606  _reentrancyGuardStorageSlot().getUint256Slot() */\n      tag_286\n        /* \"@openzeppelin/contracts/utils/ReentrancyGuard.sol\":4560:4589  _reentrancyGuardStorageSlot() */\n      tag_287\n        /* \"@openzeppelin/contracts/utils/ReentrancyGuard.sol\":4560:4587  _reentrancyGuardStorageSlot */\n      tag_247\n        /* \"@openzeppelin/contracts/utils/ReentrancyGuard.sol\":4560:4589  _reentrancyGuardStorageSlot() */\n      jump\t// in\n    tag_287:\n        /* \"@openzeppelin/contracts/utils/ReentrancyGuard.sol\":4560:4604  _reentrancyGuardStorageSlot().getUint256Slot */\n      tag_248\n        /* \"@openzeppelin/contracts/utils/ReentrancyGuard.sol\":4560:4606  _reentrancyGuardStorageSlot().getUint256Slot() */\n      jump\t// in\n    tag_286:\n        /* \"@openzeppelin/contracts/utils/ReentrancyGuard.sol\":4560:4612  _reentrancyGuardStorageSlot().getUint256Slot().value */\n      0x00\n      add\n      sload\n        /* \"@openzeppelin/contracts/utils/ReentrancyGuard.sol\":4560:4623  _reentrancyGuardStorageSlot().getUint256Slot().value == ENTERED */\n      eq\n        /* \"@openzeppelin/contracts/utils/ReentrancyGuard.sol\":4553:4623  return _reentrancyGuardStorageSlot().getUint256Slot().value == ENTERED */\n      swap1\n      pop\n        /* \"@openzeppelin/contracts/utils/ReentrancyGuard.sol\":4479:4630  function _reentrancyGuardEntered() internal view returns (bool) {... */\n      swap1\n      jump\t// out\n        /* \"#utility.yul\":7:82   */\n    tag_288:\n        /* \"#utility.yul\":40:46   */\n      0x00\n        /* \"#utility.yul\":73:75   */\n      0x40\n        /* \"#utility.yul\":67:76   */\n      mload\n        /* \"#utility.yul\":57:76   */\n      swap1\n      pop\n        /* \"#utility.yul\":7:82   */\n      swap1\n      jump\t// out\n        /* \"#utility.yul\":88:205   */\n    tag_289:\n        /* \"#utility.yul\":197:198   */\n      0x00\n        /* \"#utility.yul\":194:195   */\n      0x00\n        /* \"#utility.yul\":187:199   */\n      revert\n        /* \"#utility.yul\":334:411   */\n    tag_291:\n        /* \"#utility.yul\":371:378   */\n      0x00\n        /* \"#utility.yul\":400:405   */\n      dup2\n        /* \"#utility.yul\":389:405   */\n      swap1\n      pop\n        /* \"#utility.yul\":334:411   */\n      swap2\n      swap1\n      pop\n      jump\t// out\n        /* \"#utility.yul\":417:539   */\n    tag_292:\n        /* \"#utility.yul\":490:514   */\n      tag_356\n        /* \"#utility.yul\":508:513   */\n      dup2\n        /* \"#utility.yul\":490:514   */\n      tag_291\n      jump\t// in\n    tag_356:\n        /* \"#utility.yul\":483:488   */\n      dup2\n        /* \"#utility.yul\":480:515   */\n      eq\n        /* \"#utility.yul\":470:533   */\n      tag_357\n      jumpi\n        /* \"#utility.yul\":529:530   */\n      0x00\n        /* \"#utility.yul\":526:527   */\n      0x00\n        /* \"#utility.yul\":519:531   */\n      revert\n        /* \"#utility.yul\":470:533   */\n    tag_357:\n        /* \"#utility.yul\":417:539   */\n      pop\n      jump\t// out\n        /* \"#utility.yul\":545:684   */\n    tag_293:\n        /* \"#utility.yul\":591:596   */\n      0x00\n        /* \"#utility.yul\":629:635   */\n      dup2\n        /* \"#utility.yul\":616:636   */\n      calldataload\n        /* \"#utility.yul\":607:636   */\n      swap1\n      pop\n        /* \"#utility.yul\":645:678   */\n      tag_359\n        /* \"#utility.yul\":672:677   */\n      dup2\n        /* \"#utility.yul\":645:678   */\n      tag_292\n      jump\t// in\n    tag_359:\n        /* \"#utility.yul\":545:684   */\n      swap3\n      swap2\n      pop\n      pop\n      jump\t// out\n        /* \"#utility.yul\":690:776   */\n    tag_294:\n        /* \"#utility.yul\":725:732   */\n      0x00\n        /* \"#utility.yul\":765:769   */\n      0xff\n        /* \"#utility.yul\":758:763   */\n      dup3\n        /* \"#utility.yul\":754:770   */\n      and\n        /* \"#utility.yul\":743:770   */\n      swap1\n      pop\n        /* \"#utility.yul\":690:776   */\n      swap2\n      swap1\n      pop\n      jump\t// out\n        /* \"#utility.yul\":782:900   */\n    tag_295:\n        /* \"#utility.yul\":853:875   */\n      tag_362\n        /* \"#utility.yul\":869:874   */\n      dup2\n        /* \"#utility.yul\":853:875   */\n      tag_294\n      jump\t// in\n    tag_362:\n        /* \"#utility.yul\":846:851   */\n      dup2\n        /* \"#utility.yul\":843:876   */\n      eq\n        /* \"#utility.yul\":833:894   */\n      tag_363\n      jumpi\n        /* \"#utility.yul\":890:891   */\n      0x00\n        /* \"#utility.yul\":887:888   */\n      0x00\n        /* \"#utility.yul\":880:892   */\n      revert\n        /* \"#utility.yul\":833:894   */\n    tag_363:\n        /* \"#utility.yul\":782:900   */\n      pop\n      jump\t// out\n        /* \"#utility.yul\":906:1041   */\n    tag_296:\n        /* \"#utility.yul\":950:955   */\n      0x00\n        /* \"#utility.yul\":988:994   */\n      dup2\n        /* \"#utility.yul\":975:995   */\n      calldataload\n        /* \"#utility.yul\":966:995   */\n      swap1\n      pop\n        /* \"#utility.yul\":1004:1035   */\n      tag_365\n        /* \"#utility.yul\":1029:1034   */\n      dup2\n        /* \"#utility.yul\":1004:1035   */\n      tag_295\n      jump\t// in\n    tag_365:\n        /* \"#utility.yul\":906:1041   */\n      swap3\n      swap2\n      pop\n      pop\n      jump\t// out\n        /* \"#utility.yul\":1047:1517   */\n    tag_17:\n        /* \"#utility.yul\":1113:1119   */\n      0x00\n        /* \"#utility.yul\":1121:1127   */\n      0x00\n        /* \"#utility.yul\":1170:1172   */\n      0x40\n        /* \"#utility.yul\":1158:1167   */\n      dup4\n        /* \"#utility.yul\":1149:1156   */\n      dup6\n        /* \"#utility.yul\":1145:1168   */\n      sub\n        /* \"#utility.yul\":1141:1173   */\n      slt\n        /* \"#utility.yul\":1138:1257   */\n      iszero\n      tag_367\n      jumpi\n        /* \"#utility.yul\":1176:1255   */\n      tag_368\n      tag_289\n      jump\t// in\n    tag_368:\n        /* \"#utility.yul\":1138:1257   */\n    tag_367:\n        /* \"#utility.yul\":1296:1297   */\n      0x00\n        /* \"#utility.yul\":1321:1374   */\n      tag_369\n        /* \"#utility.yul\":1366:1373   */\n      dup6\n        /* \"#utility.yul\":1357:1363   */\n      dup3\n        /* \"#utility.yul\":1346:1355   */\n      dup7\n        /* \"#utility.yul\":1342:1364   */\n      add\n        /* \"#utility.yul\":1321:1374   */\n      tag_293\n      jump\t// in\n    tag_369:\n        /* \"#utility.yul\":1311:1374   */\n      swap3\n      pop\n        /* \"#utility.yul\":1267:1384   */\n      pop\n        /* \"#utility.yul\":1423:1425   */\n      0x20\n        /* \"#utility.yul\":1449:1500   */\n      tag_370\n        /* \"#utility.yul\":1492:1499   */\n      dup6\n        /* \"#utility.yul\":1483:1489   */\n      dup3\n        /* \"#utility.yul\":1472:1481   */\n      dup7\n        /* \"#utility.yul\":1468:1490   */\n      add\n        /* \"#utility.yul\":1449:1500   */\n      tag_296\n      jump\t// in\n    tag_370:\n        /* \"#utility.yul\":1439:1500   */\n      swap2\n      pop\n        /* \"#utility.yul\":1394:1510   */\n      pop\n        /* \"#utility.yul\":1047:1517   */\n      swap3\n      pop\n      swap3\n      swap1\n      pop\n      jump\t// out\n        /* \"#utility.yul\":1523:1852   */\n    tag_22:\n        /* \"#utility.yul\":1582:1588   */\n      0x00\n        /* \"#utility.yul\":1631:1633   */\n      0x20\n        /* \"#utility.yul\":1619:1628   */\n      dup3\n        /* \"#utility.yul\":1610:1617   */\n      dup5\n        /* \"#utility.yul\":1606:1629   */\n      sub\n        /* \"#utility.yul\":1602:1634   */\n      slt\n        /* \"#utility.yul\":1599:1718   */\n      iszero\n      tag_372\n      jumpi\n        /* \"#utility.yul\":1637:1716   */\n      tag_373\n      tag_289\n      jump\t// in\n    tag_373:\n        /* \"#utility.yul\":1599:1718   */\n    tag_372:\n        /* \"#utility.yul\":1757:1758   */\n      0x00\n        /* \"#utility.yul\":1782:1835   */\n      tag_374\n        /* \"#utility.yul\":1827:1834   */\n      dup5\n        /* \"#utility.yul\":1818:1824   */\n      dup3\n        /* \"#utility.yul\":1807:1816   */\n      dup6\n        /* \"#utility.yul\":1803:1825   */\n      add\n        /* \"#utility.yul\":1782:1835   */\n      tag_293\n      jump\t// in\n    tag_374:\n        /* \"#utility.yul\":1772:1835   */\n      swap2\n      pop\n        /* \"#utility.yul\":1728:1845   */\n      pop\n        /* \"#utility.yul\":1523:1852   */\n      swap3\n      swap2\n      pop\n      pop\n      jump\t// out\n        /* \"#utility.yul\":1858:1992   */\n    tag_297:\n        /* \"#utility.yul\":1945:1951   */\n      0x00\n        /* \"#utility.yul\":1979:1984   */\n      dup2\n        /* \"#utility.yul\":1973:1985   */\n      mload\n        /* \"#utility.yul\":1963:1985   */\n      swap1\n      pop\n        /* \"#utility.yul\":1858:1992   */\n      swap2\n      swap1\n      pop\n      jump\t// out\n        /* \"#utility.yul\":1998:2202   */\n    tag_298:\n        /* \"#utility.yul\":2117:2128   */\n      0x00\n        /* \"#utility.yul\":2151:2157   */\n      dup3\n        /* \"#utility.yul\":2146:2149   */\n      dup3\n        /* \"#utility.yul\":2139:2158   */\n      mstore\n        /* \"#utility.yul\":2191:2195   */\n      0x20\n        /* \"#utility.yul\":2186:2189   */\n      dup3\n        /* \"#utility.yul\":2182:2196   */\n      add\n        /* \"#utility.yul\":2167:2196   */\n      swap1\n      pop\n        /* \"#utility.yul\":1998:2202   */\n      swap3\n      swap2\n      pop\n      pop\n      jump\t// out\n        /* \"#utility.yul\":2208:2360   */\n    tag_299:\n        /* \"#utility.yul\":2295:2299   */\n      0x00\n        /* \"#utility.yul\":2318:2321   */\n      dup2\n        /* \"#utility.yul\":2310:2321   */\n      swap1\n      pop\n        /* \"#utility.yul\":2348:2352   */\n      0x20\n        /* \"#utility.yul\":2343:2346   */\n      dup3\n        /* \"#utility.yul\":2339:2353   */\n      add\n        /* \"#utility.yul\":2331:2353   */\n      swap1\n      pop\n        /* \"#utility.yul\":2208:2360   */\n      swap2\n      swap1\n      pop\n      jump\t// out\n        /* \"#utility.yul\":2366:2492   */\n    tag_300:\n        /* \"#utility.yul\":2403:2410   */\n      0x00\n        /* \"#utility.yul\":2443:2485   */\n      0xffffffffffffffffffffffffffffffffffffffff\n        /* \"#utility.yul\":2436:2441   */\n      dup3\n        /* \"#utility.yul\":2432:2486   */\n      and\n        /* \"#utility.yul\":2421:2486   */\n      swap1\n      pop\n        /* \"#utility.yul\":2366:2492   */\n      swap2\n      swap1\n      pop\n      jump\t// out\n        /* \"#utility.yul\":2498:2594   */\n    tag_301:\n        /* \"#utility.yul\":2535:2542   */\n      0x00\n        /* \"#utility.yul\":2564:2588   */\n      tag_380\n        /* \"#utility.yul\":2582:2587   */\n      dup3\n        /* \"#utility.yul\":2564:2588   */\n      tag_300\n      jump\t// in\n    tag_380:\n        /* \"#utility.yul\":2553:2588   */\n      swap1\n      pop\n        /* \"#utility.yul\":2498:2594   */\n      swap2\n      swap1\n      pop\n      jump\t// out\n        /* \"#utility.yul\":2600:2708   */\n    tag_302:\n        /* \"#utility.yul\":2677:2701   */\n      tag_382\n        /* \"#utility.yul\":2695:2700   */\n      dup2\n        /* \"#utility.yul\":2677:2701   */\n      tag_301\n      jump\t// in\n    tag_382:\n        /* \"#utility.yul\":2672:2675   */\n      dup3\n        /* \"#utility.yul\":2665:2702   */\n      mstore\n        /* \"#utility.yul\":2600:2708   */\n      pop\n      pop\n      jump\t// out\n        /* \"#utility.yul\":2714:2816   */\n    tag_303:\n        /* \"#utility.yul\":2787:2809   */\n      tag_384\n        /* \"#utility.yul\":2803:2808   */\n      dup2\n        /* \"#utility.yul\":2787:2809   */\n      tag_294\n      jump\t// in\n    tag_384:\n        /* \"#utility.yul\":2782:2785   */\n      dup3\n        /* \"#utility.yul\":2775:2810   */\n      mstore\n        /* \"#utility.yul\":2714:2816   */\n      pop\n      pop\n      jump\t// out\n        /* \"#utility.yul\":2822:2930   */\n    tag_304:\n        /* \"#utility.yul\":2899:2923   */\n      tag_386\n        /* \"#utility.yul\":2917:2922   */\n      dup2\n        /* \"#utility.yul\":2899:2923   */\n      tag_291\n      jump\t// in\n    tag_386:\n        /* \"#utility.yul\":2894:2897   */\n      dup3\n        /* \"#utility.yul\":2887:2924   */\n      mstore\n        /* \"#utility.yul\":2822:2930   */\n      pop\n      pop\n      jump\t// out\n        /* \"#utility.yul\":2936:3026   */\n    tag_305:\n        /* \"#utility.yul\":2970:2977   */\n      0x00\n        /* \"#utility.yul\":3013:3018   */\n      dup2\n        /* \"#utility.yul\":3006:3019   */\n      iszero\n        /* \"#utility.yul\":2999:3020   */\n      iszero\n        /* \"#utility.yul\":2988:3020   */\n      swap1\n      pop\n        /* \"#utility.yul\":2936:3026   */\n      swap2\n      swap1\n      pop\n      jump\t// out\n        /* \"#utility.yul\":3032:3131   */\n    tag_306:\n        /* \"#utility.yul\":3103:3124   */\n      tag_389\n        /* \"#utility.yul\":3118:3123   */\n      dup2\n        /* \"#utility.yul\":3103:3124   */\n      tag_305\n      jump\t// in\n    tag_389:\n        /* \"#utility.yul\":3098:3101   */\n      dup3\n        /* \"#utility.yul\":3091:3125   */\n      mstore\n        /* \"#utility.yul\":3032:3131   */\n      pop\n      pop\n      jump\t// out\n        /* \"#utility.yul\":3185:4384   */\n    tag_307:\n        /* \"#utility.yul\":3312:3316   */\n      0xc0\n        /* \"#utility.yul\":3307:3310   */\n      dup3\n        /* \"#utility.yul\":3303:3317   */\n      add\n        /* \"#utility.yul\":3401:3405   */\n      0x00\n        /* \"#utility.yul\":3394:3399   */\n      dup3\n        /* \"#utility.yul\":3390:3406   */\n      add\n        /* \"#utility.yul\":3384:3407   */\n      mload\n        /* \"#utility.yul\":3420:3483   */\n      tag_391\n        /* \"#utility.yul\":3477:3481   */\n      0x00\n        /* \"#utility.yul\":3472:3475   */\n      dup6\n        /* \"#utility.yul\":3468:3482   */\n      add\n        /* \"#utility.yul\":3454:3466   */\n      dup3\n        /* \"#utility.yul\":3420:3483   */\n      tag_302\n      jump\t// in\n    tag_391:\n        /* \"#utility.yul\":3327:3493   */\n      pop\n        /* \"#utility.yul\":3583:3587   */\n      0x20\n        /* \"#utility.yul\":3576:3581   */\n      dup3\n        /* \"#utility.yul\":3572:3588   */\n      add\n        /* \"#utility.yul\":3566:3589   */\n      mload\n        /* \"#utility.yul\":3602:3661   */\n      tag_392\n        /* \"#utility.yul\":3655:3659   */\n      0x20\n        /* \"#utility.yul\":3650:3653   */\n      dup6\n        /* \"#utility.yul\":3646:3660   */\n      add\n        /* \"#utility.yul\":3632:3644   */\n      dup3\n        /* \"#utility.yul\":3602:3661   */\n      tag_303\n      jump\t// in\n    tag_392:\n        /* \"#utility.yul\":3503:3671   */\n      pop\n        /* \"#utility.yul\":3755:3759   */\n      0x40\n        /* \"#utility.yul\":3748:3753   */\n      dup3\n        /* \"#utility.yul\":3744:3760   */\n      add\n        /* \"#utility.yul\":3738:3761   */\n      mload\n        /* \"#utility.yul\":3774:3837   */\n      tag_393\n        /* \"#utility.yul\":3831:3835   */\n      0x40\n        /* \"#utility.yul\":3826:3829   */\n      dup6\n        /* \"#utility.yul\":3822:3836   */\n      add\n        /* \"#utility.yul\":3808:3820   */\n      dup3\n        /* \"#utility.yul\":3774:3837   */\n      tag_304\n      jump\t// in\n    tag_393:\n        /* \"#utility.yul\":3681:3847   */\n      pop\n        /* \"#utility.yul\":3934:3938   */\n      0x60\n        /* \"#utility.yul\":3927:3932   */\n      dup3\n        /* \"#utility.yul\":3923:3939   */\n      add\n        /* \"#utility.yul\":3917:3940   */\n      mload\n        /* \"#utility.yul\":3953:4016   */\n      tag_394\n        /* \"#utility.yul\":4010:4014   */\n      0x60\n        /* \"#utility.yul\":4005:4008   */\n      dup6\n        /* \"#utility.yul\":4001:4015   */\n      add\n        /* \"#utility.yul\":3987:3999   */\n      dup3\n        /* \"#utility.yul\":3953:4016   */\n      tag_304\n      jump\t// in\n    tag_394:\n        /* \"#utility.yul\":3857:4026   */\n      pop\n        /* \"#utility.yul\":4114:4118   */\n      0x80\n        /* \"#utility.yul\":4107:4112   */\n      dup3\n        /* \"#utility.yul\":4103:4119   */\n      add\n        /* \"#utility.yul\":4097:4120   */\n      mload\n        /* \"#utility.yul\":4133:4196   */\n      tag_395\n        /* \"#utility.yul\":4190:4194   */\n      0x80\n        /* \"#utility.yul\":4185:4188   */\n      dup6\n        /* \"#utility.yul\":4181:4195   */\n      add\n        /* \"#utility.yul\":4167:4179   */\n      dup3\n        /* \"#utility.yul\":4133:4196   */\n      tag_304\n      jump\t// in\n    tag_395:\n        /* \"#utility.yul\":4036:4206   */\n      pop\n        /* \"#utility.yul\":4291:4295   */\n      0xa0\n        /* \"#utility.yul\":4284:4289   */\n      dup3\n        /* \"#utility.yul\":4280:4296   */\n      add\n        /* \"#utility.yul\":4274:4297   */\n      mload\n        /* \"#utility.yul\":4310:4367   */\n      tag_396\n        /* \"#utility.yul\":4361:4365   */\n      0xa0\n        /* \"#utility.yul\":4356:4359   */\n      dup6\n        /* \"#utility.yul\":4352:4366   */\n      add\n        /* \"#utility.yul\":4338:4350   */\n      dup3\n        /* \"#utility.yul\":4310:4367   */\n      tag_306\n      jump\t// in\n    tag_396:\n        /* \"#utility.yul\":4216:4377   */\n      pop\n        /* \"#utility.yul\":3281:4384   */\n      pop\n        /* \"#utility.yul\":3185:4384   */\n      pop\n      pop\n      jump\t// out\n        /* \"#utility.yul\":4390:4649   */\n    tag_308:\n        /* \"#utility.yul\":4499:4509   */\n      0x00\n        /* \"#utility.yul\":4520:4606   */\n      tag_398\n        /* \"#utility.yul\":4602:4605   */\n      dup4\n        /* \"#utility.yul\":4594:4600   */\n      dup4\n        /* \"#utility.yul\":4520:4606   */\n      tag_307\n      jump\t// in\n    tag_398:\n        /* \"#utility.yul\":4638:4642   */\n      0xc0\n        /* \"#utility.yul\":4633:4636   */\n      dup4\n        /* \"#utility.yul\":4629:4643   */\n      add\n        /* \"#utility.yul\":4615:4643   */\n      swap1\n      pop\n        /* \"#utility.yul\":4390:4649   */\n      swap3\n      swap2\n      pop\n      pop\n      jump\t// out\n        /* \"#utility.yul\":4655:4788   */\n    tag_309:\n        /* \"#utility.yul\":4745:4749   */\n      0x00\n        /* \"#utility.yul\":4777:4781   */\n      0x20\n        /* \"#utility.yul\":4772:4775   */\n      dup3\n        /* \"#utility.yul\":4768:4782   */\n      add\n        /* \"#utility.yul\":4760:4782   */\n      swap1\n      pop\n        /* \"#utility.yul\":4655:4788   */\n      swap2\n      swap1\n      pop\n      jump\t// out\n        /* \"#utility.yul\":4846:5738   */\n    tag_310:\n        /* \"#utility.yul\":5005:5008   */\n      0x00\n        /* \"#utility.yul\":5034:5108   */\n      tag_401\n        /* \"#utility.yul\":5102:5107   */\n      dup3\n        /* \"#utility.yul\":5034:5108   */\n      tag_297\n      jump\t// in\n    tag_401:\n        /* \"#utility.yul\":5124:5230   */\n      tag_402\n        /* \"#utility.yul\":5223:5229   */\n      dup2\n        /* \"#utility.yul\":5218:5221   */\n      dup6\n        /* \"#utility.yul\":5124:5230   */\n      tag_298\n      jump\t// in\n    tag_402:\n        /* \"#utility.yul\":5117:5230   */\n      swap4\n      pop\n        /* \"#utility.yul\":5254:5330   */\n      tag_403\n        /* \"#utility.yul\":5324:5329   */\n      dup4\n        /* \"#utility.yul\":5254:5330   */\n      tag_299\n      jump\t// in\n    tag_403:\n        /* \"#utility.yul\":5353:5360   */\n      dup1\n        /* \"#utility.yul\":5384:5385   */\n      0x00\n        /* \"#utility.yul\":5369:5713   */\n    tag_404:\n        /* \"#utility.yul\":5394:5400   */\n      dup4\n        /* \"#utility.yul\":5391:5392   */\n      dup2\n        /* \"#utility.yul\":5388:5401   */\n      lt\n        /* \"#utility.yul\":5369:5713   */\n      iszero\n      tag_406\n      jumpi\n        /* \"#utility.yul\":5470:5476   */\n      dup2\n        /* \"#utility.yul\":5464:5477   */\n      mload\n        /* \"#utility.yul\":5497:5600   */\n      tag_407\n        /* \"#utility.yul\":5596:5599   */\n      dup9\n        /* \"#utility.yul\":5581:5594   */\n      dup3\n        /* \"#utility.yul\":5497:5600   */\n      tag_308\n      jump\t// in\n    tag_407:\n        /* \"#utility.yul\":5490:5600   */\n      swap8\n      pop\n        /* \"#utility.yul\":5623:5703   */\n      tag_408\n        /* \"#utility.yul\":5696:5702   */\n      dup4\n        /* \"#utility.yul\":5623:5703   */\n      tag_309\n      jump\t// in\n    tag_408:\n        /* \"#utility.yul\":5613:5703   */\n      swap3\n      pop\n        /* \"#utility.yul\":5429:5713   */\n      pop\n        /* \"#utility.yul\":5416:5417   */\n      0x01\n        /* \"#utility.yul\":5413:5414   */\n      dup2\n        /* \"#utility.yul\":5409:5418   */\n      add\n        /* \"#utility.yul\":5404:5418   */\n      swap1\n      pop\n        /* \"#utility.yul\":5369:5713   */\n      jump(tag_404)\n    tag_406:\n        /* \"#utility.yul\":5373:5387   */\n      pop\n        /* \"#utility.yul\":5729:5732   */\n      dup6\n        /* \"#utility.yul\":5722:5732   */\n      swap4\n      pop\n        /* \"#utility.yul\":5010:5738   */\n      pop\n      pop\n      pop\n        /* \"#utility.yul\":4846:5738   */\n      swap3\n      swap2\n      pop\n      pop\n      jump\t// out\n        /* \"#utility.yul\":5744:6197   */\n    tag_25:\n        /* \"#utility.yul\":5927:5931   */\n      0x00\n        /* \"#utility.yul\":5965:5967   */\n      0x20\n        /* \"#utility.yul\":5954:5963   */\n      dup3\n        /* \"#utility.yul\":5950:5968   */\n      add\n        /* \"#utility.yul\":5942:5968   */\n      swap1\n      pop\n        /* \"#utility.yul\":6014:6023   */\n      dup2\n        /* \"#utility.yul\":6008:6012   */\n      dup2\n        /* \"#utility.yul\":6004:6024   */\n      sub\n        /* \"#utility.yul\":6000:6001   */\n      0x00\n        /* \"#utility.yul\":5989:5998   */\n      dup4\n        /* \"#utility.yul\":5985:6002   */\n      add\n        /* \"#utility.yul\":5978:6025   */\n      mstore\n        /* \"#utility.yul\":6042:6190   */\n      tag_410\n        /* \"#utility.yul\":6185:6189   */\n      dup2\n        /* \"#utility.yul\":6176:6182   */\n      dup5\n        /* \"#utility.yul\":6042:6190   */\n      tag_310\n      jump\t// in\n    tag_410:\n        /* \"#utility.yul\":6034:6190   */\n      swap1\n      pop\n        /* \"#utility.yul\":5744:6197   */\n      swap3\n      swap2\n      pop\n      pop\n      jump\t// out\n        /* \"#utility.yul\":6203:6325   */\n    tag_311:\n        /* \"#utility.yul\":6276:6300   */\n      tag_412\n        /* \"#utility.yul\":6294:6299   */\n      dup2\n        /* \"#utility.yul\":6276:6300   */\n      tag_301\n      jump\t// in\n    tag_412:\n        /* \"#utility.yul\":6269:6274   */\n      dup2\n        /* \"#utility.yul\":6266:6301   */\n      eq\n        /* \"#utility.yul\":6256:6319   */\n      tag_413\n      jumpi\n        /* \"#utility.yul\":6315:6316   */\n      0x00\n        /* \"#utility.yul\":6312:6313   */\n      0x00\n        /* \"#utility.yul\":6305:6317   */\n      revert\n        /* \"#utility.yul\":6256:6319   */\n    tag_413:\n        /* \"#utility.yul\":6203:6325   */\n      pop\n      jump\t// out\n        /* \"#utility.yul\":6331:6470   */\n    tag_312:\n        /* \"#utility.yul\":6377:6382   */\n      0x00\n        /* \"#utility.yul\":6415:6421   */\n      dup2\n        /* \"#utility.yul\":6402:6422   */\n      calldataload\n        /* \"#utility.yul\":6393:6422   */\n      swap1\n      pop\n        /* \"#utility.yul\":6431:6464   */\n      tag_415\n        /* \"#utility.yul\":6458:6463   */\n      dup2\n        /* \"#utility.yul\":6431:6464   */\n      tag_311\n      jump\t// in\n    tag_415:\n        /* \"#utility.yul\":6331:6470   */\n      swap3\n      swap2\n      pop\n      pop\n      jump\t// out\n        /* \"#utility.yul\":6476:6950   */\n    tag_29:\n        /* \"#utility.yul\":6544:6550   */\n      0x00\n        /* \"#utility.yul\":6552:6558   */\n      0x00\n        /* \"#utility.yul\":6601:6603   */\n      0x40\n        /* \"#utility.yul\":6589:6598   */\n      dup4\n        /* \"#utility.yul\":6580:6587   */\n      dup6\n        /* \"#utility.yul\":6576:6599   */\n      sub\n        /* \"#utility.yul\":6572:6604   */\n      slt\n        /* \"#utility.yul\":6569:6688   */\n      iszero\n      tag_417\n      jumpi\n        /* \"#utility.yul\":6607:6686   */\n      tag_418\n      tag_289\n      jump\t// in\n    tag_418:\n        /* \"#utility.yul\":6569:6688   */\n    tag_417:\n        /* \"#utility.yul\":6727:6728   */\n      0x00\n        /* \"#utility.yul\":6752:6805   */\n      tag_419\n        /* \"#utility.yul\":6797:6804   */\n      dup6\n        /* \"#utility.yul\":6788:6794   */\n      dup3\n        /* \"#utility.yul\":6777:6786   */\n      dup7\n        /* \"#utility.yul\":6773:6795   */\n      add\n        /* \"#utility.yul\":6752:6805   */\n      tag_293\n      jump\t// in\n    tag_419:\n        /* \"#utility.yul\":6742:6805   */\n      swap3\n      pop\n        /* \"#utility.yul\":6698:6815   */\n      pop\n        /* \"#utility.yul\":6854:6856   */\n      0x20\n        /* \"#utility.yul\":6880:6933   */\n      tag_420\n        /* \"#utility.yul\":6925:6932   */\n      dup6\n        /* \"#utility.yul\":6916:6922   */\n      dup3\n        /* \"#utility.yul\":6905:6914   */\n      dup7\n        /* \"#utility.yul\":6901:6923   */\n      add\n        /* \"#utility.yul\":6880:6933   */\n      tag_312\n      jump\t// in\n    tag_420:\n        /* \"#utility.yul\":6870:6933   */\n      swap2\n      pop\n        /* \"#utility.yul\":6825:6943   */\n      pop\n        /* \"#utility.yul\":6476:6950   */\n      swap3\n      pop\n      swap3\n      swap1\n      pop\n      jump\t// out\n        /* \"#utility.yul\":6956:7070   */\n    tag_313:\n        /* \"#utility.yul\":7023:7029   */\n      0x00\n        /* \"#utility.yul\":7057:7062   */\n      dup2\n        /* \"#utility.yul\":7051:7063   */\n      mload\n        /* \"#utility.yul\":7041:7063   */\n      swap1\n      pop\n        /* \"#utility.yul\":6956:7070   */\n      swap2\n      swap1\n      pop\n      jump\t// out\n        /* \"#utility.yul\":7076:7260   */\n    tag_314:\n        /* \"#utility.yul\":7175:7186   */\n      0x00\n        /* \"#utility.yul\":7209:7215   */\n      dup3\n        /* \"#utility.yul\":7204:7207   */\n      dup3\n        /* \"#utility.yul\":7197:7216   */\n      mstore\n        /* \"#utility.yul\":7249:7253   */\n      0x20\n        /* \"#utility.yul\":7244:7247   */\n      dup3\n        /* \"#utility.yul\":7240:7254   */\n      add\n        /* \"#utility.yul\":7225:7254   */\n      swap1\n      pop\n        /* \"#utility.yul\":7076:7260   */\n      swap3\n      swap2\n      pop\n      pop\n      jump\t// out\n        /* \"#utility.yul\":7266:7398   */\n    tag_315:\n        /* \"#utility.yul\":7333:7337   */\n      0x00\n        /* \"#utility.yul\":7356:7359   */\n      dup2\n        /* \"#utility.yul\":7348:7359   */\n      swap1\n      pop\n        /* \"#utility.yul\":7386:7390   */\n      0x20\n        /* \"#utility.yul\":7381:7384   */\n      dup3\n        /* \"#utility.yul\":7377:7391   */\n      add\n        /* \"#utility.yul\":7369:7391   */\n      swap1\n      pop\n        /* \"#utility.yul\":7266:7398   */\n      swap2\n      swap1\n      pop\n      jump\t// out\n        /* \"#utility.yul\":7404:7583   */\n    tag_316:\n        /* \"#utility.yul\":7473:7483   */\n      0x00\n        /* \"#utility.yul\":7494:7540   */\n      tag_425\n        /* \"#utility.yul\":7536:7539   */\n      dup4\n        /* \"#utility.yul\":7528:7534   */\n      dup4\n        /* \"#utility.yul\":7494:7540   */\n      tag_304\n      jump\t// in\n    tag_425:\n        /* \"#utility.yul\":7572:7576   */\n      0x20\n        /* \"#utility.yul\":7567:7570   */\n      dup4\n        /* \"#utility.yul\":7563:7577   */\n      add\n        /* \"#utility.yul\":7549:7577   */\n      swap1\n      pop\n        /* \"#utility.yul\":7404:7583   */\n      swap3\n      swap2\n      pop\n      pop\n      jump\t// out\n        /* \"#utility.yul\":7589:7702   */\n    tag_317:\n        /* \"#utility.yul\":7659:7663   */\n      0x00\n        /* \"#utility.yul\":7691:7695   */\n      0x20\n        /* \"#utility.yul\":7686:7689   */\n      dup3\n        /* \"#utility.yul\":7682:7696   */\n      add\n        /* \"#utility.yul\":7674:7696   */\n      swap1\n      pop\n        /* \"#utility.yul\":7589:7702   */\n      swap2\n      swap1\n      pop\n      jump\t// out\n        /* \"#utility.yul\":7738:8470   */\n    tag_318:\n        /* \"#utility.yul\":7857:7860   */\n      0x00\n        /* \"#utility.yul\":7886:7940   */\n      tag_428\n        /* \"#utility.yul\":7934:7939   */\n      dup3\n        /* \"#utility.yul\":7886:7940   */\n      tag_313\n      jump\t// in\n    tag_428:\n        /* \"#utility.yul\":7956:8042   */\n      tag_429\n        /* \"#utility.yul\":8035:8041   */\n      dup2\n        /* \"#utility.yul\":8030:8033   */\n      dup6\n        /* \"#utility.yul\":7956:8042   */\n      tag_314\n      jump\t// in\n    tag_429:\n        /* \"#utility.yul\":7949:8042   */\n      swap4\n      pop\n        /* \"#utility.yul\":8066:8122   */\n      tag_430\n        /* \"#utility.yul\":8116:8121   */\n      dup4\n        /* \"#utility.yul\":8066:8122   */\n      tag_315\n      jump\t// in\n    tag_430:\n        /* \"#utility.yul\":8145:8152   */\n      dup1\n        /* \"#utility.yul\":8176:8177   */\n      0x00\n        /* \"#utility.yul\":8161:8445   */\n    tag_431:\n        /* \"#utility.yul\":8186:8192   */\n      dup4\n        /* \"#utility.yul\":8183:8184   */\n      dup2\n        /* \"#utility.yul\":8180:8193   */\n      lt\n        /* \"#utility.yul\":8161:8445   */\n      iszero\n      tag_433\n      jumpi\n        /* \"#utility.yul\":8262:8268   */\n      dup2\n        /* \"#utility.yul\":8256:8269   */\n      mload\n        /* \"#utility.yul\":8289:8352   */\n      tag_434\n        /* \"#utility.yul\":8348:8351   */\n      dup9\n        /* \"#utility.yul\":8333:8346   */\n      dup3\n        /* \"#utility.yul\":8289:8352   */\n      tag_316\n      jump\t// in\n    tag_434:\n        /* \"#utility.yul\":8282:8352   */\n      swap8\n      pop\n        /* \"#utility.yul\":8375:8435   */\n      tag_435\n        /* \"#utility.yul\":8428:8434   */\n      dup4\n        /* \"#utility.yul\":8375:8435   */\n      tag_317\n      jump\t// in\n    tag_435:\n        /* \"#utility.yul\":8365:8435   */\n      swap3\n      pop\n        /* \"#utility.yul\":8221:8445   */\n      pop\n        /* \"#utility.yul\":8208:8209   */\n      0x01\n        /* \"#utility.yul\":8205:8206   */\n      dup2\n        /* \"#utility.yul\":8201:8210   */\n      add\n        /* \"#utility.yul\":8196:8210   */\n      swap1\n      pop\n        /* \"#utility.yul\":8161:8445   */\n      jump(tag_431)\n    tag_433:\n        /* \"#utility.yul\":8165:8179   */\n      pop\n        /* \"#utility.yul\":8461:8464   */\n      dup6\n        /* \"#utility.yul\":8454:8464   */\n      swap4\n      pop\n        /* \"#utility.yul\":7862:8470   */\n      pop\n      pop\n      pop\n        /* \"#utility.yul\":7738:8470   */\n      swap3\n      swap2\n      pop\n      pop\n      jump\t// out\n        /* \"#utility.yul\":8476:8849   */\n    tag_32:\n        /* \"#utility.yul\":8619:8623   */\n      0x00\n        /* \"#utility.yul\":8657:8659   */\n      0x20\n        /* \"#utility.yul\":8646:8655   */\n      dup3\n        /* \"#utility.yul\":8642:8660   */\n      add\n        /* \"#utility.yul\":8634:8660   */\n      swap1\n      pop\n        /* \"#utility.yul\":8706:8715   */\n      dup2\n        /* \"#utility.yul\":8700:8704   */\n      dup2\n        /* \"#utility.yul\":8696:8716   */\n      sub\n        /* \"#utility.yul\":8692:8693   */\n      0x00\n        /* \"#utility.yul\":8681:8690   */\n      dup4\n        /* \"#utility.yul\":8677:8694   */\n      add\n        /* \"#utility.yul\":8670:8717   */\n      mstore\n        /* \"#utility.yul\":8734:8842   */\n      tag_437\n        /* \"#utility.yul\":8837:8841   */\n      dup2\n        /* \"#utility.yul\":8828:8834   */\n      dup5\n        /* \"#utility.yul\":8734:8842   */\n      tag_318\n      jump\t// in\n    tag_437:\n        /* \"#utility.yul\":8726:8842   */\n      swap1\n      pop\n        /* \"#utility.yul\":8476:8849   */\n      swap3\n      swap2\n      pop\n      pop\n      jump\t// out\n        /* \"#utility.yul\":8855:9474   */\n    tag_40:\n        /* \"#utility.yul\":8932:8938   */\n      0x00\n        /* \"#utility.yul\":8940:8946   */\n      0x00\n        /* \"#utility.yul\":8948:8954   */\n      0x00\n        /* \"#utility.yul\":8997:8999   */\n      0x60\n        /* \"#utility.yul\":8985:8994   */\n      dup5\n        /* \"#utility.yul\":8976:8983   */\n      dup7\n        /* \"#utility.yul\":8972:8995   */\n      sub\n        /* \"#utility.yul\":8968:9000   */\n      slt\n        /* \"#utility.yul\":8965:9084   */\n      iszero\n      tag_439\n      jumpi\n        /* \"#utility.yul\":9003:9082   */\n      tag_440\n      tag_289\n      jump\t// in\n    tag_440:\n        /* \"#utility.yul\":8965:9084   */\n    tag_439:\n        /* \"#utility.yul\":9123:9124   */\n      0x00\n        /* \"#utility.yul\":9148:9201   */\n      tag_441\n        /* \"#utility.yul\":9193:9200   */\n      dup7\n        /* \"#utility.yul\":9184:9190   */\n      dup3\n        /* \"#utility.yul\":9173:9182   */\n      dup8\n        /* \"#utility.yul\":9169:9191   */\n      add\n        /* \"#utility.yul\":9148:9201   */\n      tag_293\n      jump\t// in\n    tag_441:\n        /* \"#utility.yul\":9138:9201   */\n      swap4\n      pop\n        /* \"#utility.yul\":9094:9211   */\n      pop\n        /* \"#utility.yul\":9250:9252   */\n      0x20\n        /* \"#utility.yul\":9276:9329   */\n      tag_442\n        /* \"#utility.yul\":9321:9328   */\n      dup7\n        /* \"#utility.yul\":9312:9318   */\n      dup3\n        /* \"#utility.yul\":9301:9310   */\n      dup8\n        /* \"#utility.yul\":9297:9319   */\n      add\n        /* \"#utility.yul\":9276:9329   */\n      tag_312\n      jump\t// in\n    tag_442:\n        /* \"#utility.yul\":9266:9329   */\n      swap3\n      pop\n        /* \"#utility.yul\":9221:9339   */\n      pop\n        /* \"#utility.yul\":9378:9380   */\n      0x40\n        /* \"#utility.yul\":9404:9457   */\n      tag_443\n        /* \"#utility.yul\":9449:9456   */\n      dup7\n        /* \"#utility.yul\":9440:9446   */\n      dup3\n        /* \"#utility.yul\":9429:9438   */\n      dup8\n        /* \"#utility.yul\":9425:9447   */\n      add\n        /* \"#utility.yul\":9404:9457   */\n      tag_293\n      jump\t// in\n    tag_443:\n        /* \"#utility.yul\":9394:9457   */\n      swap2\n      pop\n        /* \"#utility.yul\":9349:9467   */\n      pop\n        /* \"#utility.yul\":8855:9474   */\n      swap3\n      pop\n      swap3\n      pop\n      swap3\n      jump\t// out\n        /* \"#utility.yul\":9480:9598   */\n    tag_319:\n        /* \"#utility.yul\":9567:9591   */\n      tag_445\n        /* \"#utility.yul\":9585:9590   */\n      dup2\n        /* \"#utility.yul\":9567:9591   */\n      tag_291\n      jump\t// in\n    tag_445:\n        /* \"#utility.yul\":9562:9565   */\n      dup3\n        /* \"#utility.yul\":9555:9592   */\n      mstore\n        /* \"#utility.yul\":9480:9598   */\n      pop\n      pop\n      jump\t// out\n        /* \"#utility.yul\":9604:9826   */\n    tag_43:\n        /* \"#utility.yul\":9697:9701   */\n      0x00\n        /* \"#utility.yul\":9735:9737   */\n      0x20\n        /* \"#utility.yul\":9724:9733   */\n      dup3\n        /* \"#utility.yul\":9720:9738   */\n      add\n        /* \"#utility.yul\":9712:9738   */\n      swap1\n      pop\n        /* \"#utility.yul\":9748:9819   */\n      tag_447\n        /* \"#utility.yul\":9816:9817   */\n      0x00\n        /* \"#utility.yul\":9805:9814   */\n      dup4\n        /* \"#utility.yul\":9801:9818   */\n      add\n        /* \"#utility.yul\":9792:9798   */\n      dup5\n        /* \"#utility.yul\":9748:9819   */\n      tag_319\n      jump\t// in\n    tag_447:\n        /* \"#utility.yul\":9604:9826   */\n      swap3\n      swap2\n      pop\n      pop\n      jump\t// out\n        /* \"#utility.yul\":9832:10306   */\n    tag_51:\n        /* \"#utility.yul\":9900:9906   */\n      0x00\n        /* \"#utility.yul\":9908:9914   */\n      0x00\n        /* \"#utility.yul\":9957:9959   */\n      0x40\n        /* \"#utility.yul\":9945:9954   */\n      dup4\n        /* \"#utility.yul\":9936:9943   */\n      dup6\n        /* \"#utility.yul\":9932:9955   */\n      sub\n        /* \"#utility.yul\":9928:9960   */\n      slt\n        /* \"#utility.yul\":9925:10044   */\n      iszero\n      tag_449\n      jumpi\n        /* \"#utility.yul\":9963:10042   */\n      tag_450\n      tag_289\n      jump\t// in\n    tag_450:\n        /* \"#utility.yul\":9925:10044   */\n    tag_449:\n        /* \"#utility.yul\":10083:10084   */\n      0x00\n        /* \"#utility.yul\":10108:10161   */\n      tag_451\n        /* \"#utility.yul\":10153:10160   */\n      dup6\n        /* \"#utility.yul\":10144:10150   */\n      dup3\n        /* \"#utility.yul\":10133:10142   */\n      dup7\n        /* \"#utility.yul\":10129:10151   */\n      add\n        /* \"#utility.yul\":10108:10161   */\n      tag_293\n      jump\t// in\n    tag_451:\n        /* \"#utility.yul\":10098:10161   */\n      swap3\n      pop\n        /* \"#utility.yul\":10054:10171   */\n      pop\n        /* \"#utility.yul\":10210:10212   */\n      0x20\n        /* \"#utility.yul\":10236:10289   */\n      tag_452\n        /* \"#utility.yul\":10281:10288   */\n      dup6\n        /* \"#utility.yul\":10272:10278   */\n      dup3\n        /* \"#utility.yul\":10261:10270   */\n      dup7\n        /* \"#utility.yul\":10257:10279   */\n      add\n        /* \"#utility.yul\":10236:10289   */\n      tag_293\n      jump\t// in\n    tag_452:\n        /* \"#utility.yul\":10226:10289   */\n      swap2\n      pop\n        /* \"#utility.yul\":10181:10299   */\n      pop\n        /* \"#utility.yul\":9832:10306   */\n      swap3\n      pop\n      swap3\n      swap1\n      pop\n      jump\t// out\n        /* \"#utility.yul\":10312:10430   */\n    tag_320:\n        /* \"#utility.yul\":10399:10423   */\n      tag_454\n        /* \"#utility.yul\":10417:10422   */\n      dup2\n        /* \"#utility.yul\":10399:10423   */\n      tag_301\n      jump\t// in\n    tag_454:\n        /* \"#utility.yul\":10394:10397   */\n      dup3\n        /* \"#utility.yul\":10387:10424   */\n      mstore\n        /* \"#utility.yul\":10312:10430   */\n      pop\n      pop\n      jump\t// out\n        /* \"#utility.yul\":10436:10548   */\n    tag_321:\n        /* \"#utility.yul\":10519:10541   */\n      tag_456\n        /* \"#utility.yul\":10535:10540   */\n      dup2\n        /* \"#utility.yul\":10519:10541   */\n      tag_294\n      jump\t// in\n    tag_456:\n        /* \"#utility.yul\":10514:10517   */\n      dup3\n        /* \"#utility.yul\":10507:10542   */\n      mstore\n        /* \"#utility.yul\":10436:10548   */\n      pop\n      pop\n      jump\t// out\n        /* \"#utility.yul\":10554:10663   */\n    tag_322:\n        /* \"#utility.yul\":10635:10656   */\n      tag_458\n        /* \"#utility.yul\":10650:10655   */\n      dup2\n        /* \"#utility.yul\":10635:10656   */\n      tag_305\n      jump\t// in\n    tag_458:\n        /* \"#utility.yul\":10630:10633   */\n      dup3\n        /* \"#utility.yul\":10623:10657   */\n      mstore\n        /* \"#utility.yul\":10554:10663   */\n      pop\n      pop\n      jump\t// out\n        /* \"#utility.yul\":10669:11424   */\n    tag_54:\n        /* \"#utility.yul\":10892:10896   */\n      0x00\n        /* \"#utility.yul\":10930:10933   */\n      0xc0\n        /* \"#utility.yul\":10919:10928   */\n      dup3\n        /* \"#utility.yul\":10915:10934   */\n      add\n        /* \"#utility.yul\":10907:10934   */\n      swap1\n      pop\n        /* \"#utility.yul\":10944:11015   */\n      tag_460\n        /* \"#utility.yul\":11012:11013   */\n      0x00\n        /* \"#utility.yul\":11001:11010   */\n      dup4\n        /* \"#utility.yul\":10997:11014   */\n      add\n        /* \"#utility.yul\":10988:10994   */\n      dup10\n        /* \"#utility.yul\":10944:11015   */\n      tag_320\n      jump\t// in\n    tag_460:\n        /* \"#utility.yul\":11025:11093   */\n      tag_461\n        /* \"#utility.yul\":11089:11091   */\n      0x20\n        /* \"#utility.yul\":11078:11087   */\n      dup4\n        /* \"#utility.yul\":11074:11092   */\n      add\n        /* \"#utility.yul\":11065:11071   */\n      dup9\n        /* \"#utility.yul\":11025:11093   */\n      tag_321\n      jump\t// in\n    tag_461:\n        /* \"#utility.yul\":11103:11175   */\n      tag_462\n        /* \"#utility.yul\":11171:11173   */\n      0x40\n        /* \"#utility.yul\":11160:11169   */\n      dup4\n        /* \"#utility.yul\":11156:11174   */\n      add\n        /* \"#utility.yul\":11147:11153   */\n      dup8\n        /* \"#utility.yul\":11103:11175   */\n      tag_319\n      jump\t// in\n    tag_462:\n        /* \"#utility.yul\":11185:11257   */\n      tag_463\n        /* \"#utility.yul\":11253:11255   */\n      0x60\n        /* \"#utility.yul\":11242:11251   */\n      dup4\n        /* \"#utility.yul\":11238:11256   */\n      add\n        /* \"#utility.yul\":11229:11235   */\n      dup7\n        /* \"#utility.yul\":11185:11257   */\n      tag_319\n      jump\t// in\n    tag_463:\n        /* \"#utility.yul\":11267:11340   */\n      tag_464\n        /* \"#utility.yul\":11335:11338   */\n      0x80\n        /* \"#utility.yul\":11324:11333   */\n      dup4\n        /* \"#utility.yul\":11320:11339   */\n      add\n        /* \"#utility.yul\":11311:11317   */\n      dup6\n        /* \"#utility.yul\":11267:11340   */\n      tag_319\n      jump\t// in\n    tag_464:\n        /* \"#utility.yul\":11350:11417   */\n      tag_465\n        /* \"#utility.yul\":11412:11415   */\n      0xa0\n        /* \"#utility.yul\":11401:11410   */\n      dup4\n        /* \"#utility.yul\":11397:11416   */\n      add\n        /* \"#utility.yul\":11388:11394   */\n      dup5\n        /* \"#utility.yul\":11350:11417   */\n      tag_322\n      jump\t// in\n    tag_465:\n        /* \"#utility.yul\":10669:11424   */\n      swap8\n      swap7\n      pop\n      pop\n      pop\n      pop\n      pop\n      pop\n      pop\n      jump\t// out\n        /* \"#utility.yul\":11430:11490   */\n    tag_323:\n        /* \"#utility.yul\":11458:11461   */\n      0x00\n        /* \"#utility.yul\":11479:11484   */\n      dup2\n        /* \"#utility.yul\":11472:11484   */\n      swap1\n      pop\n        /* \"#utility.yul\":11430:11490   */\n      swap2\n      swap1\n      pop\n      jump\t// out\n        /* \"#utility.yul\":11496:11638   */\n    tag_324:\n        /* \"#utility.yul\":11546:11555   */\n      0x00\n        /* \"#utility.yul\":11579:11632   */\n      tag_468\n        /* \"#utility.yul\":11597:11631   */\n      tag_469\n        /* \"#utility.yul\":11606:11630   */\n      tag_470\n        /* \"#utility.yul\":11624:11629   */\n      dup5\n        /* \"#utility.yul\":11606:11630   */\n      tag_300\n      jump\t// in\n    tag_470:\n        /* \"#utility.yul\":11597:11631   */\n      tag_323\n      jump\t// in\n    tag_469:\n        /* \"#utility.yul\":11579:11632   */\n      tag_300\n      jump\t// in\n    tag_468:\n        /* \"#utility.yul\":11566:11632   */\n      swap1\n      pop\n        /* \"#utility.yul\":11496:11638   */\n      swap2\n      swap1\n      pop\n      jump\t// out\n        /* \"#utility.yul\":11644:11770   */\n    tag_325:\n        /* \"#utility.yul\":11694:11703   */\n      0x00\n        /* \"#utility.yul\":11727:11764   */\n      tag_472\n        /* \"#utility.yul\":11758:11763   */\n      dup3\n        /* \"#utility.yul\":11727:11764   */\n      tag_324\n      jump\t// in\n    tag_472:\n        /* \"#utility.yul\":11714:11764   */\n      swap1\n      pop\n        /* \"#utility.yul\":11644:11770   */\n      swap2\n      swap1\n      pop\n      jump\t// out\n        /* \"#utility.yul\":11776:11917   */\n    tag_326:\n        /* \"#utility.yul\":11841:11850   */\n      0x00\n        /* \"#utility.yul\":11874:11911   */\n      tag_474\n        /* \"#utility.yul\":11905:11910   */\n      dup3\n        /* \"#utility.yul\":11874:11911   */\n      tag_325\n      jump\t// in\n    tag_474:\n        /* \"#utility.yul\":11861:11911   */\n      swap1\n      pop\n        /* \"#utility.yul\":11776:11917   */\n      swap2\n      swap1\n      pop\n      jump\t// out\n        /* \"#utility.yul\":11923:12084   */\n    tag_327:\n        /* \"#utility.yul\":12025:12077   */\n      tag_476\n        /* \"#utility.yul\":12071:12076   */\n      dup2\n        /* \"#utility.yul\":12025:12077   */\n      tag_326\n      jump\t// in\n    tag_476:\n        /* \"#utility.yul\":12020:12023   */\n      dup3\n        /* \"#utility.yul\":12013:12078   */\n      mstore\n        /* \"#utility.yul\":11923:12084   */\n      pop\n      pop\n      jump\t// out\n        /* \"#utility.yul\":12090:12342   */\n    tag_59:\n        /* \"#utility.yul\":12198:12202   */\n      0x00\n        /* \"#utility.yul\":12236:12238   */\n      0x20\n        /* \"#utility.yul\":12225:12234   */\n      dup3\n        /* \"#utility.yul\":12221:12239   */\n      add\n        /* \"#utility.yul\":12213:12239   */\n      swap1\n      pop\n        /* \"#utility.yul\":12249:12335   */\n      tag_478\n        /* \"#utility.yul\":12332:12333   */\n      0x00\n        /* \"#utility.yul\":12321:12330   */\n      dup4\n        /* \"#utility.yul\":12317:12334   */\n      add\n        /* \"#utility.yul\":12308:12314   */\n      dup5\n        /* \"#utility.yul\":12249:12335   */\n      tag_327\n      jump\t// in\n    tag_478:\n        /* \"#utility.yul\":12090:12342   */\n      swap3\n      swap2\n      pop\n      pop\n      jump\t// out\n        /* \"#utility.yul\":12348:12558   */\n    tag_65:\n        /* \"#utility.yul\":12435:12439   */\n      0x00\n        /* \"#utility.yul\":12473:12475   */\n      0x20\n        /* \"#utility.yul\":12462:12471   */\n      dup3\n        /* \"#utility.yul\":12458:12476   */\n      add\n        /* \"#utility.yul\":12450:12476   */\n      swap1\n      pop\n        /* \"#utility.yul\":12486:12551   */\n      tag_480\n        /* \"#utility.yul\":12548:12549   */\n      0x00\n        /* \"#utility.yul\":12537:12546   */\n      dup4\n        /* \"#utility.yul\":12533:12550   */\n      add\n        /* \"#utility.yul\":12524:12530   */\n      dup5\n        /* \"#utility.yul\":12486:12551   */\n      tag_322\n      jump\t// in\n    tag_480:\n        /* \"#utility.yul\":12348:12558   */\n      swap3\n      swap2\n      pop\n      pop\n      jump\t// out\n        /* \"#utility.yul\":12564:12710   */\n    tag_328:\n        /* \"#utility.yul\":12634:12643   */\n      0x00\n        /* \"#utility.yul\":12667:12704   */\n      tag_482\n        /* \"#utility.yul\":12698:12703   */\n      dup3\n        /* \"#utility.yul\":12667:12704   */\n      tag_325\n      jump\t// in\n    tag_482:\n        /* \"#utility.yul\":12654:12704   */\n      swap1\n      pop\n        /* \"#utility.yul\":12564:12710   */\n      swap2\n      swap1\n      pop\n      jump\t// out\n        /* \"#utility.yul\":12716:12887   */\n    tag_329:\n        /* \"#utility.yul\":12823:12880   */\n      tag_484\n        /* \"#utility.yul\":12874:12879   */\n      dup2\n        /* \"#utility.yul\":12823:12880   */\n      tag_328\n      jump\t// in\n    tag_484:\n        /* \"#utility.yul\":12818:12821   */\n      dup3\n        /* \"#utility.yul\":12811:12881   */\n      mstore\n        /* \"#utility.yul\":12716:12887   */\n      pop\n      pop\n      jump\t// out\n        /* \"#utility.yul\":12893:13155   */\n    tag_75:\n        /* \"#utility.yul\":13006:13010   */\n      0x00\n        /* \"#utility.yul\":13044:13046   */\n      0x20\n        /* \"#utility.yul\":13033:13042   */\n      dup3\n        /* \"#utility.yul\":13029:13047   */\n      add\n        /* \"#utility.yul\":13021:13047   */\n      swap1\n      pop\n        /* \"#utility.yul\":13057:13148   */\n      tag_486\n        /* \"#utility.yul\":13145:13146   */\n      0x00\n        /* \"#utility.yul\":13134:13143   */\n      dup4\n        /* \"#utility.yul\":13130:13147   */\n      add\n        /* \"#utility.yul\":13121:13127   */\n      dup5\n        /* \"#utility.yul\":13057:13148   */\n      tag_329\n      jump\t// in\n    tag_486:\n        /* \"#utility.yul\":12893:13155   */\n      swap3\n      swap2\n      pop\n      pop\n      jump\t// out\n        /* \"#utility.yul\":13161:13278   */\n    tag_330:\n        /* \"#utility.yul\":13270:13271   */\n      0x00\n        /* \"#utility.yul\":13267:13268   */\n      0x00\n        /* \"#utility.yul\":13260:13272   */\n      revert\n        /* \"#utility.yul\":13284:13386   */\n    tag_331:\n        /* \"#utility.yul\":13325:13331   */\n      0x00\n        /* \"#utility.yul\":13376:13378   */\n      0x1f\n        /* \"#utility.yul\":13372:13379   */\n      not\n        /* \"#utility.yul\":13367:13369   */\n      0x1f\n        /* \"#utility.yul\":13360:13365   */\n      dup4\n        /* \"#utility.yul\":13356:13370   */\n      add\n        /* \"#utility.yul\":13352:13380   */\n      and\n        /* \"#utility.yul\":13342:13380   */\n      swap1\n      pop\n        /* \"#utility.yul\":13284:13386   */\n      swap2\n      swap1\n      pop\n      jump\t// out\n        /* \"#utility.yul\":13392:13572   */\n    tag_332:\n        /* \"#utility.yul\":13440:13517   */\n      0x4e487b7100000000000000000000000000000000000000000000000000000000\n        /* \"#utility.yul\":13437:13438   */\n      0x00\n        /* \"#utility.yul\":13430:13518   */\n      mstore\n        /* \"#utility.yul\":13537:13541   */\n      0x41\n        /* \"#utility.yul\":13534:13535   */\n      0x04\n        /* \"#utility.yul\":13527:13542   */\n      mstore\n        /* \"#utility.yul\":13561:13565   */\n      0x24\n        /* \"#utility.yul\":13558:13559   */\n      0x00\n        /* \"#utility.yul\":13551:13566   */\n      revert\n        /* \"#utility.yul\":13578:13859   */\n    tag_333:\n        /* \"#utility.yul\":13661:13688   */\n      tag_491\n        /* \"#utility.yul\":13683:13687   */\n      dup3\n        /* \"#utility.yul\":13661:13688   */\n      tag_331\n      jump\t// in\n    tag_491:\n        /* \"#utility.yul\":13653:13659   */\n      dup2\n        /* \"#utility.yul\":13649:13689   */\n      add\n        /* \"#utility.yul\":13791:13797   */\n      dup2\n        /* \"#utility.yul\":13779:13789   */\n      dup2\n        /* \"#utility.yul\":13776:13798   */\n      lt\n        /* \"#utility.yul\":13755:13773   */\n      0xffffffffffffffff\n        /* \"#utility.yul\":13743:13753   */\n      dup3\n        /* \"#utility.yul\":13740:13774   */\n      gt\n        /* \"#utility.yul\":13737:13799   */\n      or\n        /* \"#utility.yul\":13734:13822   */\n      iszero\n      tag_492\n      jumpi\n        /* \"#utility.yul\":13802:13820   */\n      tag_493\n      tag_332\n      jump\t// in\n    tag_493:\n        /* \"#utility.yul\":13734:13822   */\n    tag_492:\n        /* \"#utility.yul\":13842:13852   */\n      dup1\n        /* \"#utility.yul\":13838:13840   */\n      0x40\n        /* \"#utility.yul\":13831:13853   */\n      mstore\n        /* \"#utility.yul\":13621:13859   */\n      pop\n        /* \"#utility.yul\":13578:13859   */\n      pop\n      pop\n      jump\t// out\n        /* \"#utility.yul\":13865:13994   */\n    tag_334:\n        /* \"#utility.yul\":13899:13905   */\n      0x00\n        /* \"#utility.yul\":13926:13946   */\n      tag_495\n      tag_288\n      jump\t// in\n    tag_495:\n        /* \"#utility.yul\":13916:13946   */\n      swap1\n      pop\n        /* \"#utility.yul\":13955:13988   */\n      tag_496\n        /* \"#utility.yul\":13983:13987   */\n      dup3\n        /* \"#utility.yul\":13975:13981   */\n      dup3\n        /* \"#utility.yul\":13955:13988   */\n      tag_333\n      jump\t// in\n    tag_496:\n        /* \"#utility.yul\":13865:13994   */\n      swap2\n      swap1\n      pop\n      jump\t// out\n        /* \"#utility.yul\":14123:14266   */\n    tag_336:\n        /* \"#utility.yul\":14180:14185   */\n      0x00\n        /* \"#utility.yul\":14211:14217   */\n      dup2\n        /* \"#utility.yul\":14205:14218   */\n      mload\n        /* \"#utility.yul\":14196:14218   */\n      swap1\n      pop\n        /* \"#utility.yul\":14227:14260   */\n      tag_499\n        /* \"#utility.yul\":14254:14259   */\n      dup2\n        /* \"#utility.yul\":14227:14260   */\n      tag_292\n      jump\t// in\n    tag_499:\n        /* \"#utility.yul\":14123:14266   */\n      swap3\n      swap2\n      pop\n      pop\n      jump\t// out\n        /* \"#utility.yul\":14272:14415   */\n    tag_337:\n        /* \"#utility.yul\":14329:14334   */\n      0x00\n        /* \"#utility.yul\":14360:14366   */\n      dup2\n        /* \"#utility.yul\":14354:14367   */\n      mload\n        /* \"#utility.yul\":14345:14367   */\n      swap1\n      pop\n        /* \"#utility.yul\":14376:14409   */\n      tag_501\n        /* \"#utility.yul\":14403:14408   */\n      dup2\n        /* \"#utility.yul\":14376:14409   */\n      tag_311\n      jump\t// in\n    tag_501:\n        /* \"#utility.yul\":14272:14415   */\n      swap3\n      swap2\n      pop\n      pop\n      jump\t// out\n        /* \"#utility.yul\":14421:14560   */\n    tag_338:\n        /* \"#utility.yul\":14476:14481   */\n      0x00\n        /* \"#utility.yul\":14507:14513   */\n      dup2\n        /* \"#utility.yul\":14501:14514   */\n      mload\n        /* \"#utility.yul\":14492:14514   */\n      swap1\n      pop\n        /* \"#utility.yul\":14523:14554   */\n      tag_503\n        /* \"#utility.yul\":14548:14553   */\n      dup2\n        /* \"#utility.yul\":14523:14554   */\n      tag_295\n      jump\t// in\n    tag_503:\n        /* \"#utility.yul\":14421:14560   */\n      swap3\n      swap2\n      pop\n      pop\n      jump\t// out\n        /* \"#utility.yul\":14566:14643   */\n    tag_339:\n        /* \"#utility.yul\":14603:14610   */\n      0x00\n        /* \"#utility.yul\":14632:14637   */\n      dup2\n        /* \"#utility.yul\":14621:14637   */\n      swap1\n      pop\n        /* \"#utility.yul\":14566:14643   */\n      swap2\n      swap1\n      pop\n      jump\t// out\n        /* \"#utility.yul\":14649:14771   */\n    tag_340:\n        /* \"#utility.yul\":14722:14746   */\n      tag_506\n        /* \"#utility.yul\":14740:14745   */\n      dup2\n        /* \"#utility.yul\":14722:14746   */\n      tag_339\n      jump\t// in\n    tag_506:\n        /* \"#utility.yul\":14715:14720   */\n      dup2\n        /* \"#utility.yul\":14712:14747   */\n      eq\n        /* \"#utility.yul\":14702:14765   */\n      tag_507\n      jumpi\n        /* \"#utility.yul\":14761:14762   */\n      0x00\n        /* \"#utility.yul\":14758:14759   */\n      0x00\n        /* \"#utility.yul\":14751:14763   */\n      revert\n        /* \"#utility.yul\":14702:14765   */\n    tag_507:\n        /* \"#utility.yul\":14649:14771   */\n      pop\n      jump\t// out\n        /* \"#utility.yul\":14777:14920   */\n    tag_341:\n        /* \"#utility.yul\":14834:14839   */\n      0x00\n        /* \"#utility.yul\":14865:14871   */\n      dup2\n        /* \"#utility.yul\":14859:14872   */\n      mload\n        /* \"#utility.yul\":14850:14872   */\n      swap1\n      pop\n        /* \"#utility.yul\":14881:14914   */\n      tag_509\n        /* \"#utility.yul\":14908:14913   */\n      dup2\n        /* \"#utility.yul\":14881:14914   */\n      tag_340\n      jump\t// in\n    tag_509:\n        /* \"#utility.yul\":14777:14920   */\n      swap3\n      swap2\n      pop\n      pop\n      jump\t// out\n        /* \"#utility.yul\":14926:15039   */\n    tag_342:\n        /* \"#utility.yul\":15013:15014   */\n      0x04\n        /* \"#utility.yul\":15006:15011   */\n      dup2\n        /* \"#utility.yul\":15003:15015   */\n      lt\n        /* \"#utility.yul\":14993:15033   */\n      tag_511\n      jumpi\n        /* \"#utility.yul\":15029:15030   */\n      0x00\n        /* \"#utility.yul\":15026:15027   */\n      0x00\n        /* \"#utility.yul\":15019:15031   */\n      revert\n        /* \"#utility.yul\":14993:15033   */\n    tag_511:\n        /* \"#utility.yul\":14926:15039   */\n      pop\n      jump\t// out\n        /* \"#utility.yul\":15045:15216   */\n    tag_343:\n        /* \"#utility.yul\":15116:15121   */\n      0x00\n        /* \"#utility.yul\":15147:15153   */\n      dup2\n        /* \"#utility.yul\":15141:15154   */\n      mload\n        /* \"#utility.yul\":15132:15154   */\n      swap1\n      pop\n        /* \"#utility.yul\":15163:15210   */\n      tag_513\n        /* \"#utility.yul\":15204:15209   */\n      dup2\n        /* \"#utility.yul\":15163:15210   */\n      tag_342\n      jump\t// in\n    tag_513:\n        /* \"#utility.yul\":15045:15216   */\n      swap3\n      swap2\n      pop\n      pop\n      jump\t// out\n        /* \"#utility.yul\":15255:17670   */\n    tag_344:\n        /* \"#utility.yul\":15337:15342   */\n      0x00\n        /* \"#utility.yul\":15381:15387   */\n      0x0180\n        /* \"#utility.yul\":15369:15378   */\n      dup3\n        /* \"#utility.yul\":15364:15367   */\n      dup5\n        /* \"#utility.yul\":15360:15379   */\n      sub\n        /* \"#utility.yul\":15356:15388   */\n      slt\n        /* \"#utility.yul\":15353:15472   */\n      iszero\n      tag_515\n      jumpi\n        /* \"#utility.yul\":15391:15470   */\n      tag_516\n      tag_330\n      jump\t// in\n    tag_516:\n        /* \"#utility.yul\":15353:15472   */\n    tag_515:\n        /* \"#utility.yul\":15490:15513   */\n      tag_517\n        /* \"#utility.yul\":15506:15512   */\n      0x0180\n        /* \"#utility.yul\":15490:15513   */\n      tag_334\n      jump\t// in\n    tag_517:\n        /* \"#utility.yul\":15481:15513   */\n      swap1\n      pop\n        /* \"#utility.yul\":15570:15571   */\n      0x00\n        /* \"#utility.yul\":15610:15670   */\n      tag_518\n        /* \"#utility.yul\":15666:15669   */\n      dup5\n        /* \"#utility.yul\":15657:15663   */\n      dup3\n        /* \"#utility.yul\":15646:15655   */\n      dup6\n        /* \"#utility.yul\":15642:15664   */\n      add\n        /* \"#utility.yul\":15610:15670   */\n      tag_336\n      jump\t// in\n    tag_518:\n        /* \"#utility.yul\":15603:15607   */\n      0x00\n        /* \"#utility.yul\":15596:15601   */\n      dup4\n        /* \"#utility.yul\":15592:15608   */\n      add\n        /* \"#utility.yul\":15585:15671   */\n      mstore\n        /* \"#utility.yul\":15523:15682   */\n      pop\n        /* \"#utility.yul\":15742:15744   */\n      0x20\n        /* \"#utility.yul\":15783:15843   */\n      tag_519\n        /* \"#utility.yul\":15839:15842   */\n      dup5\n        /* \"#utility.yul\":15830:15836   */\n      dup3\n        /* \"#utility.yul\":15819:15828   */\n      dup6\n        /* \"#utility.yul\":15815:15837   */\n      add\n        /* \"#utility.yul\":15783:15843   */\n      tag_337\n      jump\t// in\n    tag_519:\n        /* \"#utility.yul\":15776:15780   */\n      0x20\n        /* \"#utility.yul\":15769:15774   */\n      dup4\n        /* \"#utility.yul\":15765:15781   */\n      add\n        /* \"#utility.yul\":15758:15844   */\n      mstore\n        /* \"#utility.yul\":15692:15855   */\n      pop\n        /* \"#utility.yul\":15918:15920   */\n      0x40\n        /* \"#utility.yul\":15959:16017   */\n      tag_520\n        /* \"#utility.yul\":16013:16016   */\n      dup5\n        /* \"#utility.yul\":16004:16010   */\n      dup3\n        /* \"#utility.yul\":15993:16002   */\n      dup6\n        /* \"#utility.yul\":15989:16011   */\n      add\n        /* \"#utility.yul\":15959:16017   */\n      tag_338\n      jump\t// in\n    tag_520:\n        /* \"#utility.yul\":15952:15956   */\n      0x40\n        /* \"#utility.yul\":15945:15950   */\n      dup4\n        /* \"#utility.yul\":15941:15957   */\n      add\n        /* \"#utility.yul\":15934:16018   */\n      mstore\n        /* \"#utility.yul\":15865:16029   */\n      pop\n        /* \"#utility.yul\":16094:16096   */\n      0x60\n        /* \"#utility.yul\":16135:16193   */\n      tag_521\n        /* \"#utility.yul\":16189:16192   */\n      dup5\n        /* \"#utility.yul\":16180:16186   */\n      dup3\n        /* \"#utility.yul\":16169:16178   */\n      dup6\n        /* \"#utility.yul\":16165:16187   */\n      add\n        /* \"#utility.yul\":16135:16193   */\n      tag_338\n      jump\t// in\n    tag_521:\n        /* \"#utility.yul\":16128:16132   */\n      0x60\n        /* \"#utility.yul\":16121:16126   */\n      dup4\n        /* \"#utility.yul\":16117:16133   */\n      add\n        /* \"#utility.yul\":16110:16194   */\n      mstore\n        /* \"#utility.yul\":16039:16205   */\n      pop\n        /* \"#utility.yul\":16266:16269   */\n      0x80\n        /* \"#utility.yul\":16308:16368   */\n      tag_522\n        /* \"#utility.yul\":16364:16367   */\n      dup5\n        /* \"#utility.yul\":16355:16361   */\n      dup3\n        /* \"#utility.yul\":16344:16353   */\n      dup6\n        /* \"#utility.yul\":16340:16362   */\n      add\n        /* \"#utility.yul\":16308:16368   */\n      tag_336\n      jump\t// in\n    tag_522:\n        /* \"#utility.yul\":16301:16305   */\n      0x80\n        /* \"#utility.yul\":16294:16299   */\n      dup4\n        /* \"#utility.yul\":16290:16306   */\n      add\n        /* \"#utility.yul\":16283:16369   */\n      mstore\n        /* \"#utility.yul\":16215:16380   */\n      pop\n        /* \"#utility.yul\":16441:16444   */\n      0xa0\n        /* \"#utility.yul\":16483:16543   */\n      tag_523\n        /* \"#utility.yul\":16539:16542   */\n      dup5\n        /* \"#utility.yul\":16530:16536   */\n      dup3\n        /* \"#utility.yul\":16519:16528   */\n      dup6\n        /* \"#utility.yul\":16515:16537   */\n      add\n        /* \"#utility.yul\":16483:16543   */\n      tag_336\n      jump\t// in\n    tag_523:\n        /* \"#utility.yul\":16476:16480   */\n      0xa0\n        /* \"#utility.yul\":16469:16474   */\n      dup4\n        /* \"#utility.yul\":16465:16481   */\n      add\n        /* \"#utility.yul\":16458:16544   */\n      mstore\n        /* \"#utility.yul\":16390:16555   */\n      pop\n        /* \"#utility.yul\":16620:16623   */\n      0xc0\n        /* \"#utility.yul\":16662:16722   */\n      tag_524\n        /* \"#utility.yul\":16718:16721   */\n      dup5\n        /* \"#utility.yul\":16709:16715   */\n      dup3\n        /* \"#utility.yul\":16698:16707   */\n      dup6\n        /* \"#utility.yul\":16694:16716   */\n      add\n        /* \"#utility.yul\":16662:16722   */\n      tag_341\n      jump\t// in\n    tag_524:\n        /* \"#utility.yul\":16655:16659   */\n      0xc0\n        /* \"#utility.yul\":16648:16653   */\n      dup4\n        /* \"#utility.yul\":16644:16660   */\n      add\n        /* \"#utility.yul\":16637:16723   */\n      mstore\n        /* \"#utility.yul\":16565:16734   */\n      pop\n        /* \"#utility.yul\":16801:16804   */\n      0xe0\n        /* \"#utility.yul\":16843:16903   */\n      tag_525\n        /* \"#utility.yul\":16899:16902   */\n      dup5\n        /* \"#utility.yul\":16890:16896   */\n      dup3\n        /* \"#utility.yul\":16879:16888   */\n      dup6\n        /* \"#utility.yul\":16875:16897   */\n      add\n        /* \"#utility.yul\":16843:16903   */\n      tag_341\n      jump\t// in\n    tag_525:\n        /* \"#utility.yul\":16836:16840   */\n      0xe0\n        /* \"#utility.yul\":16829:16834   */\n      dup4\n        /* \"#utility.yul\":16825:16841   */\n      add\n        /* \"#utility.yul\":16818:16904   */\n      mstore\n        /* \"#utility.yul\":16744:16915   */\n      pop\n        /* \"#utility.yul\":16983:16986   */\n      0x0100\n        /* \"#utility.yul\":17027:17085   */\n      tag_526\n        /* \"#utility.yul\":17081:17084   */\n      dup5\n        /* \"#utility.yul\":17072:17078   */\n      dup3\n        /* \"#utility.yul\":17061:17070   */\n      dup6\n        /* \"#utility.yul\":17057:17079   */\n      add\n        /* \"#utility.yul\":17027:17085   */\n      tag_338\n      jump\t// in\n    tag_526:\n        /* \"#utility.yul\":17018:17024   */\n      0x0100\n        /* \"#utility.yul\":17011:17016   */\n      dup4\n        /* \"#utility.yul\":17007:17025   */\n      add\n        /* \"#utility.yul\":17000:17086   */\n      mstore\n        /* \"#utility.yul\":16925:17097   */\n      pop\n        /* \"#utility.yul\":17170:17173   */\n      0x0120\n        /* \"#utility.yul\":17214:17274   */\n      tag_527\n        /* \"#utility.yul\":17270:17273   */\n      dup5\n        /* \"#utility.yul\":17261:17267   */\n      dup3\n        /* \"#utility.yul\":17250:17259   */\n      dup6\n        /* \"#utility.yul\":17246:17268   */\n      add\n        /* \"#utility.yul\":17214:17274   */\n      tag_336\n      jump\t// in\n    tag_527:\n        /* \"#utility.yul\":17205:17211   */\n      0x0120\n        /* \"#utility.yul\":17198:17203   */\n      dup4\n        /* \"#utility.yul\":17194:17212   */\n      add\n        /* \"#utility.yul\":17187:17275   */\n      mstore\n        /* \"#utility.yul\":17107:17286   */\n      pop\n        /* \"#utility.yul\":17357:17360   */\n      0x0140\n        /* \"#utility.yul\":17401:17461   */\n      tag_528\n        /* \"#utility.yul\":17457:17460   */\n      dup5\n        /* \"#utility.yul\":17448:17454   */\n      dup3\n        /* \"#utility.yul\":17437:17446   */\n      dup6\n        /* \"#utility.yul\":17433:17455   */\n      add\n        /* \"#utility.yul\":17401:17461   */\n      tag_336\n      jump\t// in\n    tag_528:\n        /* \"#utility.yul\":17392:17398   */\n      0x0140\n        /* \"#utility.yul\":17385:17390   */\n      dup4\n        /* \"#utility.yul\":17381:17399   */\n      add\n        /* \"#utility.yul\":17374:17462   */\n      mstore\n        /* \"#utility.yul\":17296:17473   */\n      pop\n        /* \"#utility.yul\":17533:17536   */\n      0x0160\n        /* \"#utility.yul\":17577:17651   */\n      tag_529\n        /* \"#utility.yul\":17647:17650   */\n      dup5\n        /* \"#utility.yul\":17638:17644   */\n      dup3\n        /* \"#utility.yul\":17627:17636   */\n      dup6\n        /* \"#utility.yul\":17623:17645   */\n      add\n        /* \"#utility.yul\":17577:17651   */\n      tag_343\n      jump\t// in\n    tag_529:\n        /* \"#utility.yul\":17568:17574   */\n      0x0160\n        /* \"#utility.yul\":17561:17566   */\n      dup4\n        /* \"#utility.yul\":17557:17575   */\n      add\n        /* \"#utility.yul\":17550:17652   */\n      mstore\n        /* \"#utility.yul\":17483:17663   */\n      pop\n        /* \"#utility.yul\":15255:17670   */\n      swap3\n      swap2\n      pop\n      pop\n      jump\t// out\n        /* \"#utility.yul\":17676:18072   */\n    tag_85:\n        /* \"#utility.yul\":17768:17774   */\n      0x00\n        /* \"#utility.yul\":17817:17820   */\n      0x0180\n        /* \"#utility.yul\":17805:17814   */\n      dup3\n        /* \"#utility.yul\":17796:17803   */\n      dup5\n        /* \"#utility.yul\":17792:17815   */\n      sub\n        /* \"#utility.yul\":17788:17821   */\n      slt\n        /* \"#utility.yul\":17785:17905   */\n      iszero\n      tag_531\n      jumpi\n        /* \"#utility.yul\":17824:17903   */\n      tag_532\n      tag_289\n      jump\t// in\n    tag_532:\n        /* \"#utility.yul\":17785:17905   */\n    tag_531:\n        /* \"#utility.yul\":17944:17945   */\n      0x00\n        /* \"#utility.yul\":17969:18055   */\n      tag_533\n        /* \"#utility.yul\":18047:18054   */\n      dup5\n        /* \"#utility.yul\":18038:18044   */\n      dup3\n        /* \"#utility.yul\":18027:18036   */\n      dup6\n        /* \"#utility.yul\":18023:18045   */\n      add\n        /* \"#utility.yul\":17969:18055   */\n      tag_344\n      jump\t// in\n    tag_533:\n        /* \"#utility.yul\":17959:18055   */\n      swap2\n      pop\n        /* \"#utility.yul\":17915:18065   */\n      pop\n        /* \"#utility.yul\":17676:18072   */\n      swap3\n      swap2\n      pop\n      pop\n      jump\t// out\n        /* \"#utility.yul\":18078:18258   */\n    tag_88:\n        /* \"#utility.yul\":18126:18203   */\n      0x4e487b7100000000000000000000000000000000000000000000000000000000\n        /* \"#utility.yul\":18123:18124   */\n      0x00\n        /* \"#utility.yul\":18116:18204   */\n      mstore\n        /* \"#utility.yul\":18223:18227   */\n      0x21\n        /* \"#utility.yul\":18220:18221   */\n      0x04\n        /* \"#utility.yul\":18213:18228   */\n      mstore\n        /* \"#utility.yul\":18247:18251   */\n      0x24\n        /* \"#utility.yul\":18244:18245   */\n      0x00\n        /* \"#utility.yul\":18237:18252   */\n      revert\n        /* \"#utility.yul\":18264:18596   */\n    tag_95:\n        /* \"#utility.yul\":18385:18389   */\n      0x00\n        /* \"#utility.yul\":18423:18425   */\n      0x40\n        /* \"#utility.yul\":18412:18421   */\n      dup3\n        /* \"#utility.yul\":18408:18426   */\n      add\n        /* \"#utility.yul\":18400:18426   */\n      swap1\n      pop\n        /* \"#utility.yul\":18436:18507   */\n      tag_536\n        /* \"#utility.yul\":18504:18505   */\n      0x00\n        /* \"#utility.yul\":18493:18502   */\n      dup4\n        /* \"#utility.yul\":18489:18506   */\n      add\n        /* \"#utility.yul\":18480:18486   */\n      dup6\n        /* \"#utility.yul\":18436:18507   */\n      tag_319\n      jump\t// in\n    tag_536:\n        /* \"#utility.yul\":18517:18589   */\n      tag_537\n        /* \"#utility.yul\":18585:18587   */\n      0x20\n        /* \"#utility.yul\":18574:18583   */\n      dup4\n        /* \"#utility.yul\":18570:18588   */\n      add\n        /* \"#utility.yul\":18561:18567   */\n      dup5\n        /* \"#utility.yul\":18517:18589   */\n      tag_319\n      jump\t// in\n    tag_537:\n        /* \"#utility.yul\":18264:18596   */\n      swap4\n      swap3\n      pop\n      pop\n      pop\n      jump\t// out\n        /* \"#utility.yul\":18602:18918   */\n    tag_100:\n        /* \"#utility.yul\":18715:18719   */\n      0x00\n        /* \"#utility.yul\":18753:18755   */\n      0x40\n        /* \"#utility.yul\":18742:18751   */\n      dup3\n        /* \"#utility.yul\":18738:18756   */\n      add\n        /* \"#utility.yul\":18730:18756   */\n      swap1\n      pop\n        /* \"#utility.yul\":18766:18833   */\n      tag_539\n        /* \"#utility.yul\":18830:18831   */\n      0x00\n        /* \"#utility.yul\":18819:18828   */\n      dup4\n        /* \"#utility.yul\":18815:18832   */\n      add\n        /* \"#utility.yul\":18806:18812   */\n      dup6\n        /* \"#utility.yul\":18766:18833   */\n      tag_321\n      jump\t// in\n    tag_539:\n        /* \"#utility.yul\":18843:18911   */\n      tag_540\n        /* \"#utility.yul\":18907:18909   */\n      0x20\n        /* \"#utility.yul\":18896:18905   */\n      dup4\n        /* \"#utility.yul\":18892:18910   */\n      add\n        /* \"#utility.yul\":18883:18889   */\n      dup5\n        /* \"#utility.yul\":18843:18911   */\n      tag_321\n      jump\t// in\n    tag_540:\n        /* \"#utility.yul\":18602:18918   */\n      swap4\n      swap3\n      pop\n      pop\n      pop\n      jump\t// out\n        /* \"#utility.yul\":18924:19104   */\n    tag_345:\n        /* \"#utility.yul\":18972:19049   */\n      0x4e487b7100000000000000000000000000000000000000000000000000000000\n        /* \"#utility.yul\":18969:18970   */\n      0x00\n        /* \"#utility.yul\":18962:19050   */\n      mstore\n        /* \"#utility.yul\":19069:19073   */\n      0x11\n        /* \"#utility.yul\":19066:19067   */\n      0x04\n        /* \"#utility.yul\":19059:19074   */\n      mstore\n        /* \"#utility.yul\":19093:19097   */\n      0x24\n        /* \"#utility.yul\":19090:19091   */\n      0x00\n        /* \"#utility.yul\":19083:19098   */\n      revert\n        /* \"#utility.yul\":19110:19301   */\n    tag_107:\n        /* \"#utility.yul\":19150:19153   */\n      0x00\n        /* \"#utility.yul\":19169:19189   */\n      tag_543\n        /* \"#utility.yul\":19187:19188   */\n      dup3\n        /* \"#utility.yul\":19169:19189   */\n      tag_291\n      jump\t// in\n    tag_543:\n        /* \"#utility.yul\":19164:19189   */\n      swap2\n      pop\n        /* \"#utility.yul\":19203:19223   */\n      tag_544\n        /* \"#utility.yul\":19221:19222   */\n      dup4\n        /* \"#utility.yul\":19203:19223   */\n      tag_291\n      jump\t// in\n    tag_544:\n        /* \"#utility.yul\":19198:19223   */\n      swap3\n      pop\n        /* \"#utility.yul\":19246:19247   */\n      dup3\n        /* \"#utility.yul\":19243:19244   */\n      dup3\n        /* \"#utility.yul\":19239:19248   */\n      add\n        /* \"#utility.yul\":19232:19248   */\n      swap1\n      pop\n        /* \"#utility.yul\":19267:19270   */\n      dup1\n        /* \"#utility.yul\":19264:19265   */\n      dup3\n        /* \"#utility.yul\":19261:19271   */\n      gt\n        /* \"#utility.yul\":19258:19294   */\n      iszero\n      tag_545\n      jumpi\n        /* \"#utility.yul\":19274:19292   */\n      tag_546\n      tag_345\n      jump\t// in\n    tag_546:\n        /* \"#utility.yul\":19258:19294   */\n    tag_545:\n        /* \"#utility.yul\":19110:19301   */\n      swap3\n      swap2\n      pop\n      pop\n      jump\t// out\n        /* \"#utility.yul\":19307:19741   */\n    tag_109:\n        /* \"#utility.yul\":19452:19456   */\n      0x00\n        /* \"#utility.yul\":19490:19492   */\n      0x60\n        /* \"#utility.yul\":19479:19488   */\n      dup3\n        /* \"#utility.yul\":19475:19493   */\n      add\n        /* \"#utility.yul\":19467:19493   */\n      swap1\n      pop\n        /* \"#utility.yul\":19503:19570   */\n      tag_548\n        /* \"#utility.yul\":19567:19568   */\n      0x00\n        /* \"#utility.yul\":19556:19565   */\n      dup4\n        /* \"#utility.yul\":19552:19569   */\n      add\n        /* \"#utility.yul\":19543:19549   */\n      dup7\n        /* \"#utility.yul\":19503:19570   */\n      tag_321\n      jump\t// in\n    tag_548:\n        /* \"#utility.yul\":19580:19652   */\n      tag_549\n        /* \"#utility.yul\":19648:19650   */\n      0x20\n        /* \"#utility.yul\":19637:19646   */\n      dup4\n        /* \"#utility.yul\":19633:19651   */\n      add\n        /* \"#utility.yul\":19624:19630   */\n      dup6\n        /* \"#utility.yul\":19580:19652   */\n      tag_319\n      jump\t// in\n    tag_549:\n        /* \"#utility.yul\":19662:19734   */\n      tag_550\n        /* \"#utility.yul\":19730:19732   */\n      0x40\n        /* \"#utility.yul\":19719:19728   */\n      dup4\n        /* \"#utility.yul\":19715:19733   */\n      add\n        /* \"#utility.yul\":19706:19712   */\n      dup5\n        /* \"#utility.yul\":19662:19734   */\n      tag_319\n      jump\t// in\n    tag_550:\n        /* \"#utility.yul\":19307:19741   */\n      swap5\n      swap4\n      pop\n      pop\n      pop\n      pop\n      jump\t// out\n        /* \"#utility.yul\":19747:19927   */\n    tag_136:\n        /* \"#utility.yul\":19795:19872   */\n      0x4e487b7100000000000000000000000000000000000000000000000000000000\n        /* \"#utility.yul\":19792:19793   */\n      0x00\n        /* \"#utility.yul\":19785:19873   */\n      mstore\n        /* \"#utility.yul\":19892:19896   */\n      0x32\n        /* \"#utility.yul\":19889:19890   */\n      0x04\n        /* \"#utility.yul\":19882:19897   */\n      mstore\n        /* \"#utility.yul\":19916:19920   */\n      0x24\n        /* \"#utility.yul\":19913:19914   */\n      0x00\n        /* \"#utility.yul\":19906:19921   */\n      revert\n        /* \"#utility.yul\":19933:20080   */\n    tag_346:\n        /* \"#utility.yul\":20034:20045   */\n      0x00\n        /* \"#utility.yul\":20071:20074   */\n      dup2\n        /* \"#utility.yul\":20056:20074   */\n      swap1\n      pop\n        /* \"#utility.yul\":19933:20080   */\n      swap3\n      swap2\n      pop\n      pop\n      jump\t// out\n        /* \"#utility.yul\":20086:20200   */\n    tag_347:\n      pop\n      jump\t// out\n        /* \"#utility.yul\":20206:20604   */\n    tag_348:\n        /* \"#utility.yul\":20365:20368   */\n      0x00\n        /* \"#utility.yul\":20386:20469   */\n      tag_555\n        /* \"#utility.yul\":20467:20468   */\n      0x00\n        /* \"#utility.yul\":20462:20465   */\n      dup4\n        /* \"#utility.yul\":20386:20469   */\n      tag_346\n      jump\t// in\n    tag_555:\n        /* \"#utility.yul\":20379:20469   */\n      swap2\n      pop\n        /* \"#utility.yul\":20478:20571   */\n      tag_556\n        /* \"#utility.yul\":20567:20570   */\n      dup3\n        /* \"#utility.yul\":20478:20571   */\n      tag_347\n      jump\t// in\n    tag_556:\n        /* \"#utility.yul\":20596:20597   */\n      0x00\n        /* \"#utility.yul\":20591:20594   */\n      dup3\n        /* \"#utility.yul\":20587:20598   */\n      add\n        /* \"#utility.yul\":20580:20598   */\n      swap1\n      pop\n        /* \"#utility.yul\":20206:20604   */\n      swap2\n      swap1\n      pop\n      jump\t// out\n        /* \"#utility.yul\":20610:20989   */\n    tag_145:\n        /* \"#utility.yul\":20794:20797   */\n      0x00\n        /* \"#utility.yul\":20816:20963   */\n      tag_558\n        /* \"#utility.yul\":20959:20962   */\n      dup3\n        /* \"#utility.yul\":20816:20963   */\n      tag_348\n      jump\t// in\n    tag_558:\n        /* \"#utility.yul\":20809:20963   */\n      swap2\n      pop\n        /* \"#utility.yul\":20980:20983   */\n      dup2\n        /* \"#utility.yul\":20973:20983   */\n      swap1\n      pop\n        /* \"#utility.yul\":20610:20989   */\n      swap2\n      swap1\n      pop\n      jump\t// out\n        /* \"#utility.yul\":20995:21346   */\n    tag_171:\n        /* \"#utility.yul\":21065:21071   */\n      0x00\n        /* \"#utility.yul\":21114:21116   */\n      0x20\n        /* \"#utility.yul\":21102:21111   */\n      dup3\n        /* \"#utility.yul\":21093:21100   */\n      dup5\n        /* \"#utility.yul\":21089:21112   */\n      sub\n        /* \"#utility.yul\":21085:21117   */\n      slt\n        /* \"#utility.yul\":21082:21201   */\n      iszero\n      tag_560\n      jumpi\n        /* \"#utility.yul\":21120:21199   */\n      tag_561\n      tag_289\n      jump\t// in\n    tag_561:\n        /* \"#utility.yul\":21082:21201   */\n    tag_560:\n        /* \"#utility.yul\":21240:21241   */\n      0x00\n        /* \"#utility.yul\":21265:21329   */\n      tag_562\n        /* \"#utility.yul\":21321:21328   */\n      dup5\n        /* \"#utility.yul\":21312:21318   */\n      dup3\n        /* \"#utility.yul\":21301:21310   */\n      dup6\n        /* \"#utility.yul\":21297:21319   */\n      add\n        /* \"#utility.yul\":21265:21329   */\n      tag_336\n      jump\t// in\n    tag_562:\n        /* \"#utility.yul\":21255:21329   */\n      swap2\n      pop\n        /* \"#utility.yul\":21211:21339   */\n      pop\n        /* \"#utility.yul\":20995:21346   */\n      swap3\n      swap2\n      pop\n      pop\n      jump\t// out\n        /* \"#utility.yul\":21352:21762   */\n    tag_173:\n        /* \"#utility.yul\":21392:21399   */\n      0x00\n        /* \"#utility.yul\":21415:21435   */\n      tag_564\n        /* \"#utility.yul\":21433:21434   */\n      dup3\n        /* \"#utility.yul\":21415:21435   */\n      tag_291\n      jump\t// in\n    tag_564:\n        /* \"#utility.yul\":21410:21435   */\n      swap2\n      pop\n        /* \"#utility.yul\":21449:21469   */\n      tag_565\n        /* \"#utility.yul\":21467:21468   */\n      dup4\n        /* \"#utility.yul\":21449:21469   */\n      tag_291\n      jump\t// in\n    tag_565:\n        /* \"#utility.yul\":21444:21469   */\n      swap3\n      pop\n        /* \"#utility.yul\":21504:21505   */\n      dup3\n        /* \"#utility.yul\":21501:21502   */\n      dup3\n        /* \"#utility.yul\":21497:21506   */\n      mul\n        /* \"#utility.yul\":21526:21556   */\n      tag_566\n        /* \"#utility.yul\":21544:21555   */\n      dup2\n        /* \"#utility.yul\":21526:21556   */\n      tag_291\n      jump\t// in\n    tag_566:\n        /* \"#utility.yul\":21515:21556   */\n      swap2\n      pop\n        /* \"#utility.yul\":21705:21706   */\n      dup3\n        /* \"#utility.yul\":21696:21703   */\n      dup3\n        /* \"#utility.yul\":21692:21707   */\n      div\n        /* \"#utility.yul\":21689:21690   */\n      dup5\n        /* \"#utility.yul\":21686:21708   */\n      eq\n        /* \"#utility.yul\":21666:21667   */\n      dup4\n        /* \"#utility.yul\":21659:21668   */\n      iszero\n        /* \"#utility.yul\":21639:21722   */\n      or\n        /* \"#utility.yul\":21616:21755   */\n      tag_567\n      jumpi\n        /* \"#utility.yul\":21735:21753   */\n      tag_568\n      tag_345\n      jump\t// in\n    tag_568:\n        /* \"#utility.yul\":21616:21755   */\n    tag_567:\n        /* \"#utility.yul\":21400:21762   */\n      pop\n        /* \"#utility.yul\":21352:21762   */\n      swap3\n      swap2\n      pop\n      pop\n      jump\t// out\n        /* \"#utility.yul\":21768:21948   */\n    tag_349:\n        /* \"#utility.yul\":21816:21893   */\n      0x4e487b7100000000000000000000000000000000000000000000000000000000\n        /* \"#utility.yul\":21813:21814   */\n      0x00\n        /* \"#utility.yul\":21806:21894   */\n      mstore\n        /* \"#utility.yul\":21913:21917   */\n      0x12\n        /* \"#utility.yul\":21910:21911   */\n      0x04\n        /* \"#utility.yul\":21903:21918   */\n      mstore\n        /* \"#utility.yul\":21937:21941   */\n      0x24\n        /* \"#utility.yul\":21934:21935   */\n      0x00\n        /* \"#utility.yul\":21927:21942   */\n      revert\n        /* \"#utility.yul\":21954:22139   */\n    tag_175:\n        /* \"#utility.yul\":21994:21995   */\n      0x00\n        /* \"#utility.yul\":22011:22031   */\n      tag_571\n        /* \"#utility.yul\":22029:22030   */\n      dup3\n        /* \"#utility.yul\":22011:22031   */\n      tag_291\n      jump\t// in\n    tag_571:\n        /* \"#utility.yul\":22006:22031   */\n      swap2\n      pop\n        /* \"#utility.yul\":22045:22065   */\n      tag_572\n        /* \"#utility.yul\":22063:22064   */\n      dup4\n        /* \"#utility.yul\":22045:22065   */\n      tag_291\n      jump\t// in\n    tag_572:\n        /* \"#utility.yul\":22040:22065   */\n      swap3\n      pop\n        /* \"#utility.yul\":22084:22085   */\n      dup3\n        /* \"#utility.yul\":22074:22109   */\n      tag_573\n      jumpi\n        /* \"#utility.yul\":22089:22107   */\n      tag_574\n      tag_349\n      jump\t// in\n    tag_574:\n        /* \"#utility.yul\":22074:22109   */\n    tag_573:\n        /* \"#utility.yul\":22131:22132   */\n      dup3\n        /* \"#utility.yul\":22128:22129   */\n      dup3\n        /* \"#utility.yul\":22124:22133   */\n      div\n        /* \"#utility.yul\":22119:22133   */\n      swap1\n      pop\n        /* \"#utility.yul\":21954:22139   */\n      swap3\n      swap2\n      pop\n      pop\n      jump\t// out\n        /* \"#utility.yul\":22145:22339   */\n    tag_177:\n        /* \"#utility.yul\":22185:22189   */\n      0x00\n        /* \"#utility.yul\":22205:22225   */\n      tag_576\n        /* \"#utility.yul\":22223:22224   */\n      dup3\n        /* \"#utility.yul\":22205:22225   */\n      tag_291\n      jump\t// in\n    tag_576:\n        /* \"#utility.yul\":22200:22225   */\n      swap2\n      pop\n        /* \"#utility.yul\":22239:22259   */\n      tag_577\n        /* \"#utility.yul\":22257:22258   */\n      dup4\n        /* \"#utility.yul\":22239:22259   */\n      tag_291\n      jump\t// in\n    tag_577:\n        /* \"#utility.yul\":22234:22259   */\n      swap3\n      pop\n        /* \"#utility.yul\":22283:22284   */\n      dup3\n        /* \"#utility.yul\":22280:22281   */\n      dup3\n        /* \"#utility.yul\":22276:22285   */\n      sub\n        /* \"#utility.yul\":22268:22285   */\n      swap1\n      pop\n        /* \"#utility.yul\":22307:22308   */\n      dup2\n        /* \"#utility.yul\":22301:22305   */\n      dup2\n        /* \"#utility.yul\":22298:22309   */\n      gt\n        /* \"#utility.yul\":22295:22332   */\n      iszero\n      tag_578\n      jumpi\n        /* \"#utility.yul\":22312:22330   */\n      tag_579\n      tag_345\n      jump\t// in\n    tag_579:\n        /* \"#utility.yul\":22295:22332   */\n    tag_578:\n        /* \"#utility.yul\":22145:22339   */\n      swap3\n      swap2\n      pop\n      pop\n      jump\t// out\n\n    auxdata: 0xa26469706673582212208ee3762151fdb178b8ece32b1089bf9e642970eaa9361a62a9da012ce0890bbd64736f6c63430008230033\n}\n",
				"bytecode": {
					"linkReferences": {},
					"object": "60c060405234801561000f575f5ffd5b5060405161266938038061266983398181016040528101906100319190610154565b600161004f6100446100c460201b60201c565b6100ed60201b60201c565b5f01819055508173ffffffffffffffffffffffffffffffffffffffff1660808173ffffffffffffffffffffffffffffffffffffffff16815250508073ffffffffffffffffffffffffffffffffffffffff1660a08173ffffffffffffffffffffffffffffffffffffffff16815250505050610192565b5f7f9b779b17422d0df92223018b32b4d1fa46e071723d6817e2486d003becc55f005f1b905090565b5f819050919050565b5f5ffd5b5f73ffffffffffffffffffffffffffffffffffffffff82169050919050565b5f610123826100fa565b9050919050565b61013381610119565b811461013d575f5ffd5b50565b5f8151905061014e8161012a565b92915050565b5f5f6040838503121561016a576101696100f6565b5b5f61017785828601610140565b925050602061018885828601610140565b9150509250929050565b60805160a05161248c6101dd5f395f8181610eca0152818161127e01526114be01525f81816103020152818161098d01528181610d3f015281816112d40152611301015261248c5ff3fe6080604052600436106100a6575f3560e01c80636a09f6be116100635780636a09f6be146101ca57806379502c551461020b5780637e033ad214610235578063a632c45714610271578063c6b05266146102ad578063e852ebc8146102d7576100a6565b806303edf914146100aa5780631ccf6955146100c65780633a56fa62146101025780635b7baf641461013e5780635f16348f14610166578063677bd9ff146101a2575b5f5ffd5b6100c460048036038101906100bf9190611a1a565b6102ff565b005b3480156100d1575f5ffd5b506100ec60048036038101906100e79190611a58565b6107cb565b6040516100f99190611c1b565b60405180910390f35b34801561010d575f5ffd5b5061012860048036038101906101239190611c65565b6108df565b6040516101359190611d4b565b60405180910390f35b348015610149575f5ffd5b50610164600480360381019061015f9190611a58565b610982565b005b348015610171575f5ffd5b5061018c60048036038101906101879190611d6b565b610cfe565b6040516101999190611dca565b60405180910390f35b3480156101ad575f5ffd5b506101c860048036038101906101c39190611a58565b610d34565b005b3480156101d5575f5ffd5b506101f060048036038101906101eb9190611de3565b6111f4565b60405161020296959493929190611e4e565b60405180910390f35b348015610216575f5ffd5b5061021f61127c565b60405161022c9190611f08565b60405180910390f35b348015610240575f5ffd5b5061025b60048036038101906102569190611a58565b6112a0565b6040516102689190611f21565b60405180910390f35b34801561027c575f5ffd5b5061029760048036038101906102929190611a58565b6112bd565b6040516102a49190611dca565b60405180910390f35b3480156102b8575f5ffd5b506102c16112d2565b6040516102ce9190611f5a565b60405180910390f35b3480156102e2575f5ffd5b506102fd60048036038101906102f89190611a58565b6112f6565b005b5f7f000000000000000000000000000000000000000000000000000000000000000073ffffffffffffffffffffffffffffffffffffffff16638f1327c0846040518263ffffffff1660e01b81526004016103599190611dca565b61018060405180830381865afa158015610375573d5f5f3e3d5ffd5b505050506040513d601f19601f8201168201806040525081019061039991906121b0565b90505f60038111156103ae576103ad6121dc565b5b81610160015160038111156103c6576103c56121dc565b5b146103fd576040517f402bc00700000000000000000000000000000000000000000000000000000000815260040160405180910390fd5b806101400151421061043b576040517f7392756200000000000000000000000000000000000000000000000000000000815260040160405180910390fd5b806080015134101561048a573481608001516040517f171c7527000000000000000000000000000000000000000000000000000000008152600401610481929190612209565b60405180910390fd5b8060a001513411156104d957348160a001516040517f02fc3a450000000000000000000000000000000000000000000000000000000081526004016104d0929190612209565b60405180910390fd5b806060015160ff168260ff161061052d578181606001516040517fac5ac473000000000000000000000000000000000000000000000000000000008152600401610524929190612230565b60405180910390fd5b806020015173ffffffffffffffffffffffffffffffffffffffff163373ffffffffffffffffffffffffffffffffffffffff1603610596576040517f55d33e3e00000000000000000000000000000000000000000000000000000000815260040160405180910390fd5b5f6105a08261169d565b90505f5f5f8681526020019081526020015f208054905090505f5f8681526020019081526020015f206040518060c001604052803373ffffffffffffffffffffffffffffffffffffffff1681526020018660ff1681526020013481526020014281526020018481526020015f1515815250908060018154018082558091505060019003905f5260205f2090600502015f909190919091505f820151815f015f6101000a81548173ffffffffffffffffffffffffffffffffffffffff021916908373ffffffffffffffffffffffffffffffffffffffff1602179055506020820151815f0160146101000a81548160ff021916908360ff16021790555060408201518160010155606082015181600201556080820151816003015560a0820151816004015f6101000a81548160ff021916908315150217905550505060015f8681526020019081526020015f205f3373ffffffffffffffffffffffffffffffffffffffff1673ffffffffffffffffffffffffffffffffffffffff1681526020019081526020015f2081908060018154018082558091505060019003905f5260205f20015f90919091909150553460025f8781526020019081526020015f205f82825461076a9190612284565b925050819055503373ffffffffffffffffffffffffffffffffffffffff16857fbfcd8f4e47cc529f86cdc7eab8fb80e015a298e021fcaee72df1f76dd57cf4878634866040516107bc939291906122b7565b60405180910390a35050505050565b60605f5f8381526020019081526020015f20805480602002602001604051908101604052809291908181526020015f905b828210156108d4578382905f5260205f2090600502016040518060c00160405290815f82015f9054906101000a900473ffffffffffffffffffffffffffffffffffffffff1673ffffffffffffffffffffffffffffffffffffffff1673ffffffffffffffffffffffffffffffffffffffff1681526020015f820160149054906101000a900460ff1660ff1660ff168152602001600182015481526020016002820154815260200160038201548152602001600482015f9054906101000a900460ff161515151581525050815260200190600101906107fc565b505050509050919050565b606060015f8481526020019081526020015f205f8373ffffffffffffffffffffffffffffffffffffffff1673ffffffffffffffffffffffffffffffffffffffff1681526020019081526020015f2080548060200260200160405190810160405280929190818152602001828054801561097557602002820191905f5260205f20905b815481526020019060010190808311610961575b5050505050905092915050565b61098a61173a565b5f7f000000000000000000000000000000000000000000000000000000000000000073ffffffffffffffffffffffffffffffffffffffff16638f1327c0836040518263ffffffff1660e01b81526004016109e49190611dca565b61018060405180830381865afa158015610a00573d5f5f3e3d5ffd5b505050506040513d601f19601f82011682018060405250810190610a2491906121b0565b9050600380811115610a3957610a386121dc565b5b8161016001516003811115610a5157610a506121dc565b5b14610a88576040517f779df1a900000000000000000000000000000000000000000000000000000000815260040160405180910390fd5b5f60015f8481526020019081526020015f205f3373ffffffffffffffffffffffffffffffffffffffff1673ffffffffffffffffffffffffffffffffffffffff1681526020019081526020015f2090505f818054905003610b14576040517f9bc6cbe400000000000000000000000000000000000000000000000000000000815260040160405180910390fd5b5f5f90505f5f90505b8280549050811015610bc7575f5f5f8781526020019081526020015f20848381548110610b4d57610b4c6122ec565b5b905f5260205f20015481548110610b6757610b666122ec565b5b905f5260205f2090600502019050806004015f9054906101000a900460ff16610bb957806001015483610b9a9190612284565b92506001816004015f6101000a81548160ff0219169083151502179055505b508080600101915050610b1d565b505f8103610c01576040517f9bc6cbe400000000000000000000000000000000000000000000000000000000815260040160405180910390fd5b5f3373ffffffffffffffffffffffffffffffffffffffff1682604051610c2690612346565b5f6040518083038185875af1925050503d805f8114610c60576040519150601f19603f3d011682016040523d82523d5f602084013e610c65565b606091505b5050905080610ca0576040517f90b8ec1800000000000000000000000000000000000000000000000000000000815260040160405180910390fd5b3373ffffffffffffffffffffffffffffffffffffffff16857ff3f402280ef0a7905e124aa621b65eaeb2725c343e8b36d398ed78c29daf285c84604051610ce79190611dca565b60405180910390a350505050610cfb61175c565b50565b6001602052825f5260405f20602052815f5260405f208181548110610d21575f80fd5b905f5260205f20015f9250925050505481565b610d3c61173a565b5f7f000000000000000000000000000000000000000000000000000000000000000073ffffffffffffffffffffffffffffffffffffffff16638f1327c0836040518263ffffffff1660e01b8152600401610d969190611dca565b61018060405180830381865afa158015610db2573d5f5f3e3d5ffd5b505050506040513d601f19601f82011682018060405250810190610dd691906121b0565b905060026003811115610dec57610deb6121dc565b5b8161016001516003811115610e0457610e036121dc565b5b14610e3b576040517fe2a1659a00000000000000000000000000000000000000000000000000000000815260040160405180910390fd5b5f60015f8481526020019081526020015f205f3373ffffffffffffffffffffffffffffffffffffffff1673ffffffffffffffffffffffffffffffffffffffff1681526020019081526020015f2090505f818054905003610ec7576040517f9bc6cbe400000000000000000000000000000000000000000000000000000000815260040160405180910390fd5b5f7f000000000000000000000000000000000000000000000000000000000000000073ffffffffffffffffffffffffffffffffffffffff16631780a8926040518163ffffffff1660e01b8152600401602060405180830381865afa158015610f31573d5f5f3e3d5ffd5b505050506040513d601f19601f82011682018060405250810190610f55919061235a565b90505f60648260025f8881526020019081526020015f2054610f779190612385565b610f8191906123f3565b90505f8160025f8881526020019081526020015f2054610fa19190612423565b90505f610fb48787610100015187611776565b90505f8103610fef576040517f9bc6cbe400000000000000000000000000000000000000000000000000000000815260040160405180910390fd5b5f610fff88886101000151611851565b90505f83821115611028578184846110179190612385565b61102191906123f3565b905061102c565b8290505b5f5f90505b87805490508110156110f1575f5f5f8c81526020019081526020015f20898381548110611061576110606122ec565b5b905f5260205f2001548154811061107b5761107a6122ec565b5b905f5260205f2090600502019050806004015f9054906101000a900460ff161580156110c1575089610100015160ff16815f0160149054906101000a900460ff1660ff16145b156110e3576001816004015f6101000a81548160ff0219169083151502179055505b508080600101915050611031565b505f3373ffffffffffffffffffffffffffffffffffffffff168260405161111790612346565b5f6040518083038185875af1925050503d805f8114611151576040519150601f19603f3d011682016040523d82523d5f602084013e611156565b606091505b5050905080611191576040517f90b8ec1800000000000000000000000000000000000000000000000000000000815260040160405180910390fd5b3373ffffffffffffffffffffffffffffffffffffffff168a7f5380cf6fe903b40c6d5a9e0dfbca2f3a423f0a21520b4d5947ed5169bdba946d846040516111d89190611dca565b60405180910390a35050505050505050506111f161175c565b50565b5f602052815f5260405f20818154811061120c575f80fd5b905f5260205f2090600502015f9150915050805f015f9054906101000a900473ffffffffffffffffffffffffffffffffffffffff1690805f0160149054906101000a900460ff1690806001015490806002015490806003015490806004015f9054906101000a900460ff16905086565b7f000000000000000000000000000000000000000000000000000000000000000081565b6003602052805f5260405f205f915054906101000a900460ff1681565b6002602052805f5260405f205f915090505481565b7f000000000000000000000000000000000000000000000000000000000000000081565b6112fe61173a565b5f7f000000000000000000000000000000000000000000000000000000000000000073ffffffffffffffffffffffffffffffffffffffff16638f1327c0836040518263ffffffff1660e01b81526004016113589190611dca565b61018060405180830381865afa158015611374573d5f5f3e3d5ffd5b505050506040513d601f19601f8201168201806040525081019061139891906121b0565b9050600260038111156113ae576113ad6121dc565b5b81610160015160038111156113c6576113c56121dc565b5b146113fd576040517fe2a1659a00000000000000000000000000000000000000000000000000000000815260040160405180910390fd5b806020015173ffffffffffffffffffffffffffffffffffffffff163373ffffffffffffffffffffffffffffffffffffffff1614611466576040517f46bca2aa00000000000000000000000000000000000000000000000000000000815260040160405180910390fd5b60035f8381526020019081526020015f205f9054906101000a900460ff16156114bb576040517f058a3b7900000000000000000000000000000000000000000000000000000000815260040160405180910390fd5b5f7f000000000000000000000000000000000000000000000000000000000000000073ffffffffffffffffffffffffffffffffffffffff16631780a8926040518163ffffffff1660e01b8152600401602060405180830381865afa158015611525573d5f5f3e3d5ffd5b505050506040513d601f19601f82011682018060405250810190611549919061235a565b90505f60648260025f8781526020019081526020015f205461156b9190612385565b61157591906123f3565b9050600160035f8681526020019081526020015f205f6101000a81548160ff0219169083151502179055505f3373ffffffffffffffffffffffffffffffffffffffff16826040516115c590612346565b5f6040518083038185875af1925050503d805f81146115ff576040519150601f19603f3d011682016040523d82523d5f602084013e611604565b606091505b505090508061163f576040517f90b8ec1800000000000000000000000000000000000000000000000000000000815260040160405180910390fd5b3373ffffffffffffffffffffffffffffffffffffffff16857f207b15363f1e2f99cf2f39cacef16677e32cee18674ababce6ecd95ca90e3d36846040516116869190611dca565b60405180910390a35050505061169a61175c565b50565b5f5f610bb890505f6103e890505f8461012001518561014001516116c19190612423565b90505f81036116d557819350505050611735565b5f856101200151426116e79190612423565b90508181106116fc5782945050505050611735565b5f82848661170a9190612423565b836117159190612385565b61171f91906123f3565b9050808561172d9190612423565b955050505050505b919050565b611742611915565b600261175461174f611956565b61197f565b5f0181905550565b600161176e611769611956565b61197f565b5f0181905550565b5f5f5f90505b8280549050811015611849575f5f5f8781526020019081526020015f208483815481106117ac576117ab6122ec565b5b905f5260205f200154815481106117c6576117c56122ec565b5b905f5260205f2090600502019050806004015f9054906101000a900460ff1615801561180757508460ff16815f0160149054906101000a900460ff1660ff16145b1561183b576103e8816003015482600101546118239190612385565b61182d91906123f3565b836118389190612284565b92505b50808060010191505061177c565b509392505050565b5f5f5f5f8581526020019081526020015f2090505f5f90505b818054905081101561190d575f82828154811061188a576118896122ec565b5b905f5260205f2090600502019050806004015f9054906101000a900460ff161580156118cb57508460ff16815f0160149054906101000a900460ff1660ff16145b156118ff576103e8816003015482600101546118e79190612385565b6118f191906123f3565b846118fc9190612284565b93505b50808060010191505061186a565b505092915050565b61191d611988565b15611954576040517f3ee5aeb500000000000000000000000000000000000000000000000000000000815260040160405180910390fd5b565b5f7f9b779b17422d0df92223018b32b4d1fa46e071723d6817e2486d003becc55f005f1b905090565b5f819050919050565b5f600261199b611996611956565b61197f565b5f015414905090565b5f604051905090565b5f5ffd5b5f819050919050565b6119c3816119b1565b81146119cd575f5ffd5b50565b5f813590506119de816119ba565b92915050565b5f60ff82169050919050565b6119f9816119e4565b8114611a03575f5ffd5b50565b5f81359050611a14816119f0565b92915050565b5f5f60408385031215611a3057611a2f6119ad565b5b5f611a3d858286016119d0565b9250506020611a4e85828601611a06565b9150509250929050565b5f60208284031215611a6d57611a6c6119ad565b5b5f611a7a848285016119d0565b91505092915050565b5f81519050919050565b5f82825260208201905092915050565b5f819050602082019050919050565b5f73ffffffffffffffffffffffffffffffffffffffff82169050919050565b5f611ad582611aac565b9050919050565b611ae581611acb565b82525050565b611af4816119e4565b82525050565b611b03816119b1565b82525050565b5f8115159050919050565b611b1d81611b09565b82525050565b60c082015f820151611b375f850182611adc565b506020820151611b4a6020850182611aeb565b506040820151611b5d6040850182611afa565b506060820151611b706060850182611afa565b506080820151611b836080850182611afa565b5060a0820151611b9660a0850182611b14565b50505050565b5f611ba78383611b23565b60c08301905092915050565b5f602082019050919050565b5f611bc982611a83565b611bd38185611a8d565b9350611bde83611a9d565b805f5b83811015611c0e578151611bf58882611b9c565b9750611c0083611bb3565b925050600181019050611be1565b5085935050505092915050565b5f6020820190508181035f830152611c338184611bbf565b905092915050565b611c4481611acb565b8114611c4e575f5ffd5b50565b5f81359050611c5f81611c3b565b92915050565b5f5f60408385031215611c7b57611c7a6119ad565b5b5f611c88858286016119d0565b9250506020611c9985828601611c51565b9150509250929050565b5f81519050919050565b5f82825260208201905092915050565b5f819050602082019050919050565b5f611cd78383611afa565b60208301905092915050565b5f602082019050919050565b5f611cf982611ca3565b611d038185611cad565b9350611d0e83611cbd565b805f5b83811015611d3e578151611d258882611ccc565b9750611d3083611ce3565b925050600181019050611d11565b5085935050505092915050565b5f6020820190508181035f830152611d638184611cef565b905092915050565b5f5f5f60608486031215611d8257611d816119ad565b5b5f611d8f868287016119d0565b9350506020611da086828701611c51565b9250506040611db1868287016119d0565b9150509250925092565b611dc4816119b1565b82525050565b5f602082019050611ddd5f830184611dbb565b92915050565b5f5f60408385031215611df957611df86119ad565b5b5f611e06858286016119d0565b9250506020611e17858286016119d0565b9150509250929050565b611e2a81611acb565b82525050565b611e39816119e4565b82525050565b611e4881611b09565b82525050565b5f60c082019050611e615f830189611e21565b611e6e6020830188611e30565b611e7b6040830187611dbb565b611e886060830186611dbb565b611e956080830185611dbb565b611ea260a0830184611e3f565b979650505050505050565b5f819050919050565b5f611ed0611ecb611ec684611aac565b611ead565b611aac565b9050919050565b5f611ee182611eb6565b9050919050565b5f611ef282611ed7565b9050919050565b611f0281611ee8565b82525050565b5f602082019050611f1b5f830184611ef9565b92915050565b5f602082019050611f345f830184611e3f565b92915050565b5f611f4482611ed7565b9050919050565b611f5481611f3a565b82525050565b5f602082019050611f6d5f830184611f4b565b92915050565b5f5ffd5b5f601f19601f8301169050919050565b7f4e487b71000000000000000000000000000000000000000000000000000000005f52604160045260245ffd5b611fbd82611f77565b810181811067ffffffffffffffff82111715611fdc57611fdb611f87565b5b80604052505050565b5f611fee6119a4565b9050611ffa8282611fb4565b919050565b5f8151905061200d816119ba565b92915050565b5f8151905061202181611c3b565b92915050565b5f81519050612035816119f0565b92915050565b5f819050919050565b61204d8161203b565b8114612057575f5ffd5b50565b5f8151905061206881612044565b92915050565b6004811061207a575f5ffd5b50565b5f8151905061208b8161206e565b92915050565b5f61018082840312156120a7576120a6611f73565b5b6120b2610180611fe5565b90505f6120c184828501611fff565b5f8301525060206120d484828501612013565b60208301525060406120e884828501612027565b60408301525060606120fc84828501612027565b606083015250608061211084828501611fff565b60808301525060a061212484828501611fff565b60a08301525060c06121388482850161205a565b60c08301525060e061214c8482850161205a565b60e08301525061010061216184828501612027565b6101008301525061012061217784828501611fff565b6101208301525061014061218d84828501611fff565b610140830152506101606121a38482850161207d565b6101608301525092915050565b5f61018082840312156121c6576121c56119ad565b5b5f6121d384828501612091565b91505092915050565b7f4e487b71000000000000000000000000000000000000000000000000000000005f52602160045260245ffd5b5f60408201905061221c5f830185611dbb565b6122296020830184611dbb565b9392505050565b5f6040820190506122435f830185611e30565b6122506020830184611e30565b9392505050565b7f4e487b71000000000000000000000000000000000000000000000000000000005f52601160045260245ffd5b5f61228e826119b1565b9150612299836119b1565b92508282019050808211156122b1576122b0612257565b5b92915050565b5f6060820190506122ca5f830186611e30565b6122d76020830185611dbb565b6122e46040830184611dbb565b949350505050565b7f4e487b71000000000000000000000000000000000000000000000000000000005f52603260045260245ffd5b5f81905092915050565b50565b5f6123315f83612319565b915061233c82612323565b5f82019050919050565b5f61235082612326565b9150819050919050565b5f6020828403121561236f5761236e6119ad565b5b5f61237c84828501611fff565b91505092915050565b5f61238f826119b1565b915061239a836119b1565b92508282026123a8816119b1565b915082820484148315176123bf576123be612257565b5b5092915050565b7f4e487b71000000000000000000000000000000000000000000000000000000005f52601260045260245ffd5b5f6123fd826119b1565b9150612408836119b1565b925082612418576124176123c6565b5b828204905092915050565b5f61242d826119b1565b9150612438836119b1565b92508282039050818111156124505761244f612257565b5b9291505056fea26469706673582212208ee3762151fdb178b8ece32b1089bf9e642970eaa9361a62a9da012ce0890bbd64736f6c63430008230033",
					"opcodes": "PUSH1 0xC0 PUSH1 0x40 MSTORE CALLVALUE DUP1 ISZERO PUSH2 0xF JUMPI PUSH0 PUSH0 REVERT JUMPDEST POP PUSH1 0x40 MLOAD PUSH2 0x2669 CODESIZE SUB DUP1 PUSH2 0x2669 DUP4 CODECOPY DUP2 DUP2 ADD PUSH1 0x40 MSTORE DUP2 ADD SWAP1 PUSH2 0x31 SWAP2 SWAP1 PUSH2 0x154 JUMP JUMPDEST PUSH1 0x1 PUSH2 0x4F PUSH2 0x44 PUSH2 0xC4 PUSH1 0x20 SHL PUSH1 0x20 SHR JUMP JUMPDEST PUSH2 0xED PUSH1 0x20 SHL PUSH1 0x20 SHR JUMP JUMPDEST PUSH0 ADD DUP2 SWAP1 SSTORE POP DUP2 PUSH20 0xFFFFFFFFFFFFFFFFFFFFFFFFFFFFFFFFFFFFFFFF AND PUSH1 0x80 DUP2 PUSH20 0xFFFFFFFFFFFFFFFFFFFFFFFFFFFFFFFFFFFFFFFF AND DUP2 MSTORE POP POP DUP1 PUSH20 0xFFFFFFFFFFFFFFFFFFFFFFFFFFFFFFFFFFFFFFFF AND PUSH1 0xA0 DUP2 PUSH20 0xFFFFFFFFFFFFFFFFFFFFFFFFFFFFFFFFFFFFFFFF AND DUP2 MSTORE POP POP POP POP PUSH2 0x192 JUMP JUMPDEST PUSH0 PUSH32 0x9B779B17422D0DF92223018B32B4D1FA46E071723D6817E2486D003BECC55F00 PUSH0 SHL SWAP1 POP SWAP1 JUMP JUMPDEST PUSH0 DUP2 SWAP1 POP SWAP2 SWAP1 POP JUMP JUMPDEST PUSH0 PUSH0 REVERT JUMPDEST PUSH0 PUSH20 0xFFFFFFFFFFFFFFFFFFFFFFFFFFFFFFFFFFFFFFFF DUP3 AND SWAP1 POP SWAP2 SWAP1 POP JUMP JUMPDEST PUSH0 PUSH2 0x123 DUP3 PUSH2 0xFA JUMP JUMPDEST SWAP1 POP SWAP2 SWAP1 POP JUMP JUMPDEST PUSH2 0x133 DUP2 PUSH2 0x119 JUMP JUMPDEST DUP2 EQ PUSH2 0x13D JUMPI PUSH0 PUSH0 REVERT JUMPDEST POP JUMP JUMPDEST PUSH0 DUP2 MLOAD SWAP1 POP PUSH2 0x14E DUP2 PUSH2 0x12A JUMP JUMPDEST SWAP3 SWAP2 POP POP JUMP JUMPDEST PUSH0 PUSH0 PUSH1 0x40 DUP4 DUP6 SUB SLT ISZERO PUSH2 0x16A JUMPI PUSH2 0x169 PUSH2 0xF6 JUMP JUMPDEST JUMPDEST PUSH0 PUSH2 0x177 DUP6 DUP3 DUP7 ADD PUSH2 0x140 JUMP JUMPDEST SWAP3 POP POP PUSH1 0x20 PUSH2 0x188 DUP6 DUP3 DUP7 ADD PUSH2 0x140 JUMP JUMPDEST SWAP2 POP POP SWAP3 POP SWAP3 SWAP1 POP JUMP JUMPDEST PUSH1 0x80 MLOAD PUSH1 0xA0 MLOAD PUSH2 0x248C PUSH2 0x1DD PUSH0 CODECOPY PUSH0 DUP2 DUP2 PUSH2 0xECA ADD MSTORE DUP2 DUP2 PUSH2 0x127E ADD MSTORE PUSH2 0x14BE ADD MSTORE PUSH0 DUP2 DUP2 PUSH2 0x302 ADD MSTORE DUP2 DUP2 PUSH2 0x98D ADD MSTORE DUP2 DUP2 PUSH2 0xD3F ADD MSTORE DUP2 DUP2 PUSH2 0x12D4 ADD MSTORE PUSH2 0x1301 ADD MSTORE PUSH2 0x248C PUSH0 RETURN INVALID PUSH1 0x80 PUSH1 0x40 MSTORE PUSH1 0x4 CALLDATASIZE LT PUSH2 0xA6 JUMPI PUSH0 CALLDATALOAD PUSH1 0xE0 SHR DUP1 PUSH4 0x6A09F6BE GT PUSH2 0x63 JUMPI DUP1 PUSH4 0x6A09F6BE EQ PUSH2 0x1CA JUMPI DUP1 PUSH4 0x79502C55 EQ PUSH2 0x20B JUMPI DUP1 PUSH4 0x7E033AD2 EQ PUSH2 0x235 JUMPI DUP1 PUSH4 0xA632C457 EQ PUSH2 0x271 JUMPI DUP1 PUSH4 0xC6B05266 EQ PUSH2 0x2AD JUMPI DUP1 PUSH4 0xE852EBC8 EQ PUSH2 0x2D7 JUMPI PUSH2 0xA6 JUMP JUMPDEST DUP1 PUSH4 0x3EDF914 EQ PUSH2 0xAA JUMPI DUP1 PUSH4 0x1CCF6955 EQ PUSH2 0xC6 JUMPI DUP1 PUSH4 0x3A56FA62 EQ PUSH2 0x102 JUMPI DUP1 PUSH4 0x5B7BAF64 EQ PUSH2 0x13E JUMPI DUP1 PUSH4 0x5F16348F EQ PUSH2 0x166 JUMPI DUP1 PUSH4 0x677BD9FF EQ PUSH2 0x1A2 JUMPI JUMPDEST PUSH0 PUSH0 REVERT JUMPDEST PUSH2 0xC4 PUSH1 0x4 DUP1 CALLDATASIZE SUB DUP2 ADD SWAP1 PUSH2 0xBF SWAP2 SWAP1 PUSH2 0x1A1A JUMP JUMPDEST PUSH2 0x2FF JUMP JUMPDEST STOP JUMPDEST CALLVALUE DUP1 ISZERO PUSH2 0xD1 JUMPI PUSH0 PUSH0 REVERT JUMPDEST POP PUSH2 0xEC PUSH1 0x4 DUP1 CALLDATASIZE SUB DUP2 ADD SWAP1 PUSH2 0xE7 SWAP2 SWAP1 PUSH2 0x1A58 JUMP JUMPDEST PUSH2 0x7CB JUMP JUMPDEST PUSH1 0x40 MLOAD PUSH2 0xF9 SWAP2 SWAP1 PUSH2 0x1C1B JUMP JUMPDEST PUSH1 0x40 MLOAD DUP1 SWAP2 SUB SWAP1 RETURN JUMPDEST CALLVALUE DUP1 ISZERO PUSH2 0x10D JUMPI PUSH0 PUSH0 REVERT JUMPDEST POP PUSH2 0x128 PUSH1 0x4 DUP1 CALLDATASIZE SUB DUP2 ADD SWAP1 PUSH2 0x123 SWAP2 SWAP1 PUSH2 0x1C65 JUMP JUMPDEST PUSH2 0x8DF JUMP JUMPDEST PUSH1 0x40 MLOAD PUSH2 0x135 SWAP2 SWAP1 PUSH2 0x1D4B JUMP JUMPDEST PUSH1 0x40 MLOAD DUP1 SWAP2 SUB SWAP1 RETURN JUMPDEST CALLVALUE DUP1 ISZERO PUSH2 0x149 JUMPI PUSH0 PUSH0 REVERT JUMPDEST POP PUSH2 0x164 PUSH1 0x4 DUP1 CALLDATASIZE SUB DUP2 ADD SWAP1 PUSH2 0x15F SWAP2 SWAP1 PUSH2 0x1A58 JUMP JUMPDEST PUSH2 0x982 JUMP JUMPDEST STOP JUMPDEST CALLVALUE DUP1 ISZERO PUSH2 0x171 JUMPI PUSH0 PUSH0 REVERT JUMPDEST POP PUSH2 0x18C PUSH1 0x4 DUP1 CALLDATASIZE SUB DUP2 ADD SWAP1 PUSH2 0x187 SWAP2 SWAP1 PUSH2 0x1D6B JUMP JUMPDEST PUSH2 0xCFE JUMP JUMPDEST PUSH1 0x40 MLOAD PUSH2 0x199 SWAP2 SWAP1 PUSH2 0x1DCA JUMP JUMPDEST PUSH1 0x40 MLOAD DUP1 SWAP2 SUB SWAP1 RETURN JUMPDEST CALLVALUE DUP1 ISZERO PUSH2 0x1AD JUMPI PUSH0 PUSH0 REVERT JUMPDEST POP PUSH2 0x1C8 PUSH1 0x4 DUP1 CALLDATASIZE SUB DUP2 ADD SWAP1 PUSH2 0x1C3 SWAP2 SWAP1 PUSH2 0x1A58 JUMP JUMPDEST PUSH2 0xD34 JUMP JUMPDEST STOP JUMPDEST CALLVALUE DUP1 ISZERO PUSH2 0x1D5 JUMPI PUSH0 PUSH0 REVERT JUMPDEST POP PUSH2 0x1F0 PUSH1 0x4 DUP1 CALLDATASIZE SUB DUP2 ADD SWAP1 PUSH2 0x1EB SWAP2 SWAP1 PUSH2 0x1DE3 JUMP JUMPDEST PUSH2 0x11F4 JUMP JUMPDEST PUSH1 0x40 MLOAD PUSH2 0x202 SWAP7 SWAP6 SWAP5 SWAP4 SWAP3 SWAP2 SWAP1 PUSH2 0x1E4E JUMP JUMPDEST PUSH1 0x40 MLOAD DUP1 SWAP2 SUB SWAP1 RETURN JUMPDEST CALLVALUE DUP1 ISZERO PUSH2 0x216 JUMPI PUSH0 PUSH0 REVERT JUMPDEST POP PUSH2 0x21F PUSH2 0x127C JUMP JUMPDEST PUSH1 0x40 MLOAD PUSH2 0x22C SWAP2 SWAP1 PUSH2 0x1F08 JUMP JUMPDEST PUSH1 0x40 MLOAD DUP1 SWAP2 SUB SWAP1 RETURN JUMPDEST CALLVALUE DUP1 ISZERO PUSH2 0x240 JUMPI PUSH0 PUSH0 REVERT JUMPDEST POP PUSH2 0x25B PUSH1 0x4 DUP1 CALLDATASIZE SUB DUP2 ADD SWAP1 PUSH2 0x256 SWAP2 SWAP1 PUSH2 0x1A58 JUMP JUMPDEST PUSH2 0x12A0 JUMP JUMPDEST PUSH1 0x40 MLOAD PUSH2 0x268 SWAP2 SWAP1 PUSH2 0x1F21 JUMP JUMPDEST PUSH1 0x40 MLOAD DUP1 SWAP2 SUB SWAP1 RETURN JUMPDEST CALLVALUE DUP1 ISZERO PUSH2 0x27C JUMPI PUSH0 PUSH0 REVERT JUMPDEST POP PUSH2 0x297 PUSH1 0x4 DUP1 CALLDATASIZE SUB DUP2 ADD SWAP1 PUSH2 0x292 SWAP2 SWAP1 PUSH2 0x1A58 JUMP JUMPDEST PUSH2 0x12BD JUMP JUMPDEST PUSH1 0x40 MLOAD PUSH2 0x2A4 SWAP2 SWAP1 PUSH2 0x1DCA JUMP JUMPDEST PUSH1 0x40 MLOAD DUP1 SWAP2 SUB SWAP1 RETURN JUMPDEST CALLVALUE DUP1 ISZERO PUSH2 0x2B8 JUMPI PUSH0 PUSH0 REVERT JUMPDEST POP PUSH2 0x2C1 PUSH2 0x12D2 JUMP JUMPDEST PUSH1 0x40 MLOAD PUSH2 0x2CE SWAP2 SWAP1 PUSH2 0x1F5A JUMP JUMPDEST PUSH1 0x40 MLOAD DUP1 SWAP2 SUB SWAP1 RETURN JUMPDEST CALLVALUE DUP1 ISZERO PUSH2 0x2E2 JUMPI PUSH0 PUSH0 REVERT JUMPDEST POP PUSH2 0x2FD PUSH1 0x4 DUP1 CALLDATASIZE SUB DUP2 ADD SWAP1 PUSH2 0x2F8 SWAP2 SWAP1 PUSH2 0x1A58 JUMP JUMPDEST PUSH2 0x12F6 JUMP JUMPDEST STOP JUMPDEST PUSH0 PUSH32 0x0 PUSH20 0xFFFFFFFFFFFFFFFFFFFFFFFFFFFFFFFFFFFFFFFF AND PUSH4 0x8F1327C0 DUP5 PUSH1 0x40 MLOAD DUP3 PUSH4 0xFFFFFFFF AND PUSH1 0xE0 SHL DUP2 MSTORE PUSH1 0x4 ADD PUSH2 0x359 SWAP2 SWAP1 PUSH2 0x1DCA JUMP JUMPDEST PUSH2 0x180 PUSH1 0x40 MLOAD DUP1 DUP4 SUB DUP2 DUP7 GAS STATICCALL ISZERO DUP1 ISZERO PUSH2 0x375 JUMPI RETURNDATASIZE PUSH0 PUSH0 RETURNDATACOPY RETURNDATASIZE PUSH0 REVERT JUMPDEST POP POP POP POP PUSH1 0x40 MLOAD RETURNDATASIZE PUSH1 0x1F NOT PUSH1 0x1F DUP3 ADD AND DUP3 ADD DUP1 PUSH1 0x40 MSTORE POP DUP2 ADD SWAP1 PUSH2 0x399 SWAP2 SWAP1 PUSH2 0x21B0 JUMP JUMPDEST SWAP1 POP PUSH0 PUSH1 0x3 DUP2 GT ISZERO PUSH2 0x3AE JUMPI PUSH2 0x3AD PUSH2 0x21DC JUMP JUMPDEST JUMPDEST DUP2 PUSH2 0x160 ADD MLOAD PUSH1 0x3 DUP2 GT ISZERO PUSH2 0x3C6 JUMPI PUSH2 0x3C5 PUSH2 0x21DC JUMP JUMPDEST JUMPDEST EQ PUSH2 0x3FD JUMPI PUSH1 0x40 MLOAD PUSH32 0x402BC00700000000000000000000000000000000000000000000000000000000 DUP2 MSTORE PUSH1 0x4 ADD PUSH1 0x40 MLOAD DUP1 SWAP2 SUB SWAP1 REVERT JUMPDEST DUP1 PUSH2 0x140 ADD MLOAD TIMESTAMP LT PUSH2 0x43B JUMPI PUSH1 0x40 MLOAD PUSH32 0x7392756200000000000000000000000000000000000000000000000000000000 DUP2 MSTORE PUSH1 0x4 ADD PUSH1 0x40 MLOAD DUP1 SWAP2 SUB SWAP1 REVERT JUMPDEST DUP1 PUSH1 0x80 ADD MLOAD CALLVALUE LT ISZERO PUSH2 0x48A JUMPI CALLVALUE DUP2 PUSH1 0x80 ADD MLOAD PUSH1 0x40 MLOAD PUSH32 0x171C752700000000000000000000000000000000000000000000000000000000 DUP2 MSTORE PUSH1 0x4 ADD PUSH2 0x481 SWAP3 SWAP2 SWAP1 PUSH2 0x2209 JUMP JUMPDEST PUSH1 0x40 MLOAD DUP1 SWAP2 SUB SWAP1 REVERT JUMPDEST DUP1 PUSH1 0xA0 ADD MLOAD CALLVALUE GT ISZERO PUSH2 0x4D9 JUMPI CALLVALUE DUP2 PUSH1 0xA0 ADD MLOAD PUSH1 0x40 MLOAD PUSH32 0x2FC3A4500000000000000000000000000000000000000000000000000000000 DUP2 MSTORE PUSH1 0x4 ADD PUSH2 0x4D0 SWAP3 SWAP2 SWAP1 PUSH2 0x2209 JUMP JUMPDEST PUSH1 0x40 MLOAD DUP1 SWAP2 SUB SWAP1 REVERT JUMPDEST DUP1 PUSH1 0x60 ADD MLOAD PUSH1 0xFF AND DUP3 PUSH1 0xFF AND LT PUSH2 0x52D JUMPI DUP2 DUP2 PUSH1 0x60 ADD MLOAD PUSH1 0x40 MLOAD PUSH32 0xAC5AC47300000000000000000000000000000000000000000000000000000000 DUP2 MSTORE PUSH1 0x4 ADD PUSH2 0x524 SWAP3 SWAP2 SWAP1 PUSH2 0x2230 JUMP JUMPDEST PUSH1 0x40 MLOAD DUP1 SWAP2 SUB SWAP1 REVERT JUMPDEST DUP1 PUSH1 0x20 ADD MLOAD PUSH20 0xFFFFFFFFFFFFFFFFFFFFFFFFFFFFFFFFFFFFFFFF AND CALLER PUSH20 0xFFFFFFFFFFFFFFFFFFFFFFFFFFFFFFFFFFFFFFFF AND SUB PUSH2 0x596 JUMPI PUSH1 0x40 MLOAD PUSH32 0x55D33E3E00000000000000000000000000000000000000000000000000000000 DUP2 MSTORE PUSH1 0x4 ADD PUSH1 0x40 MLOAD DUP1 SWAP2 SUB SWAP1 REVERT JUMPDEST PUSH0 PUSH2 0x5A0 DUP3 PUSH2 0x169D JUMP JUMPDEST SWAP1 POP PUSH0 PUSH0 PUSH0 DUP7 DUP2 MSTORE PUSH1 0x20 ADD SWAP1 DUP2 MSTORE PUSH1 0x20 ADD PUSH0 KECCAK256 DUP1 SLOAD SWAP1 POP SWAP1 POP PUSH0 PUSH0 DUP7 DUP2 MSTORE PUSH1 0x20 ADD SWAP1 DUP2 MSTORE PUSH1 0x20 ADD PUSH0 KECCAK256 PUSH1 0x40 MLOAD DUP1 PUSH1 0xC0 ADD PUSH1 0x40 MSTORE DUP1 CALLER PUSH20 0xFFFFFFFFFFFFFFFFFFFFFFFFFFFFFFFFFFFFFFFF AND DUP2 MSTORE PUSH1 0x20 ADD DUP7 PUSH1 0xFF AND DUP2 MSTORE PUSH1 0x20 ADD CALLVALUE DUP2 MSTORE PUSH1 0x20 ADD TIMESTAMP DUP2 MSTORE PUSH1 0x20 ADD DUP5 DUP2 MSTORE PUSH1 0x20 ADD PUSH0 ISZERO ISZERO DUP2 MSTORE POP SWAP1 DUP1 PUSH1 0x1 DUP2 SLOAD ADD DUP1 DUP3 SSTORE DUP1 SWAP2 POP POP PUSH1 0x1 SWAP1 SUB SWAP1 PUSH0 MSTORE PUSH1 0x20 PUSH0 KECCAK256 SWAP1 PUSH1 0x5 MUL ADD PUSH0 SWAP1 SWAP2 SWAP1 SWAP2 SWAP1 SWAP2 POP PUSH0 DUP3 ADD MLOAD DUP2 PUSH0 ADD PUSH0 PUSH2 0x100 EXP DUP2 SLOAD DUP2 PUSH20 0xFFFFFFFFFFFFFFFFFFFFFFFFFFFFFFFFFFFFFFFF MUL NOT AND SWAP1 DUP4 PUSH20 0xFFFFFFFFFFFFFFFFFFFFFFFFFFFFFFFFFFFFFFFF AND MUL OR SWAP1 SSTORE POP PUSH1 0x20 DUP3 ADD MLOAD DUP2 PUSH0 ADD PUSH1 0x14 PUSH2 0x100 EXP DUP2 SLOAD DUP2 PUSH1 0xFF MUL NOT AND SWAP1 DUP4 PUSH1 0xFF AND MUL OR SWAP1 SSTORE POP PUSH1 0x40 DUP3 ADD MLOAD DUP2 PUSH1 0x1 ADD SSTORE PUSH1 0x60 DUP3 ADD MLOAD DUP2 PUSH1 0x2 ADD SSTORE PUSH1 0x80 DUP3 ADD MLOAD DUP2 PUSH1 0x3 ADD SSTORE PUSH1 0xA0 DUP3 ADD MLOAD DUP2 PUSH1 0x4 ADD PUSH0 PUSH2 0x100 EXP DUP2 SLOAD DUP2 PUSH1 0xFF MUL NOT AND SWAP1 DUP4 ISZERO ISZERO MUL OR SWAP1 SSTORE POP POP POP PUSH1 0x1 PUSH0 DUP7 DUP2 MSTORE PUSH1 0x20 ADD SWAP1 DUP2 MSTORE PUSH1 0x20 ADD PUSH0 KECCAK256 PUSH0 CALLER PUSH20 0xFFFFFFFFFFFFFFFFFFFFFFFFFFFFFFFFFFFFFFFF AND PUSH20 0xFFFFFFFFFFFFFFFFFFFFFFFFFFFFFFFFFFFFFFFF AND DUP2 MSTORE PUSH1 0x20 ADD SWAP1 DUP2 MSTORE PUSH1 0x20 ADD PUSH0 KECCAK256 DUP2 SWAP1 DUP1 PUSH1 0x1 DUP2 SLOAD ADD DUP1 DUP3 SSTORE DUP1 SWAP2 POP POP PUSH1 0x1 SWAP1 SUB SWAP1 PUSH0 MSTORE PUSH1 0x20 PUSH0 KECCAK256 ADD PUSH0 SWAP1 SWAP2 SWAP1 SWAP2 SWAP1 SWAP2 POP SSTORE CALLVALUE PUSH1 0x2 PUSH0 DUP8 DUP2 MSTORE PUSH1 0x20 ADD SWAP1 DUP2 MSTORE PUSH1 0x20 ADD PUSH0 KECCAK256 PUSH0 DUP3 DUP3 SLOAD PUSH2 0x76A SWAP2 SWAP1 PUSH2 0x2284 JUMP JUMPDEST SWAP3 POP POP DUP2 SWAP1 SSTORE POP CALLER PUSH20 0xFFFFFFFFFFFFFFFFFFFFFFFFFFFFFFFFFFFFFFFF AND DUP6 PUSH32 0xBFCD8F4E47CC529F86CDC7EAB8FB80E015A298E021FCAEE72DF1F76DD57CF487 DUP7 CALLVALUE DUP7 PUSH1 0x40 MLOAD PUSH2 0x7BC SWAP4 SWAP3 SWAP2 SWAP1 PUSH2 0x22B7 JUMP JUMPDEST PUSH1 0x40 MLOAD DUP1 SWAP2 SUB SWAP1 LOG3 POP POP POP POP POP JUMP JUMPDEST PUSH1 0x60 PUSH0 PUSH0 DUP4 DUP2 MSTORE PUSH1 0x20 ADD SWAP1 DUP2 MSTORE PUSH1 0x20 ADD PUSH0 KECCAK256 DUP1 SLOAD DUP1 PUSH1 0x20 MUL PUSH1 0x20 ADD PUSH1 0x40 MLOAD SWAP1 DUP2 ADD PUSH1 0x40 MSTORE DUP1 SWAP3 SWAP2 SWAP1 DUP2 DUP2 MSTORE PUSH1 0x20 ADD PUSH0 SWAP1 JUMPDEST DUP3 DUP3 LT ISZERO PUSH2 0x8D4 JUMPI DUP4 DUP3 SWAP1 PUSH0 MSTORE PUSH1 0x20 PUSH0 KECCAK256 SWAP1 PUSH1 0x5 MUL ADD PUSH1 0x40 MLOAD DUP1 PUSH1 0xC0 ADD PUSH1 0x40 MSTORE SWAP1 DUP2 PUSH0 DUP3 ADD PUSH0 SWAP1 SLOAD SWAP1 PUSH2 0x100 EXP SWAP1 DIV PUSH20 0xFFFFFFFFFFFFFFFFFFFFFFFFFFFFFFFFFFFFFFFF AND PUSH20 0xFFFFFFFFFFFFFFFFFFFFFFFFFFFFFFFFFFFFFFFF AND PUSH20 0xFFFFFFFFFFFFFFFFFFFFFFFFFFFFFFFFFFFFFFFF AND DUP2 MSTORE PUSH1 0x20 ADD PUSH0 DUP3 ADD PUSH1 0x14 SWAP1 SLOAD SWAP1 PUSH2 0x100 EXP SWAP1 DIV PUSH1 0xFF AND PUSH1 0xFF AND PUSH1 0xFF AND DUP2 MSTORE PUSH1 0x20 ADD PUSH1 0x1 DUP3 ADD SLOAD DUP2 MSTORE PUSH1 0x20 ADD PUSH1 0x2 DUP3 ADD SLOAD DUP2 MSTORE PUSH1 0x20 ADD PUSH1 0x3 DUP3 ADD SLOAD DUP2 MSTORE PUSH1 0x20 ADD PUSH1 0x4 DUP3 ADD PUSH0 SWAP1 SLOAD SWAP1 PUSH2 0x100 EXP SWAP1 DIV PUSH1 0xFF AND ISZERO ISZERO ISZERO ISZERO DUP2 MSTORE POP POP DUP2 MSTORE PUSH1 0x20 ADD SWAP1 PUSH1 0x1 ADD SWAP1 PUSH2 0x7FC JUMP JUMPDEST POP POP POP POP SWAP1 POP SWAP2 SWAP1 POP JUMP JUMPDEST PUSH1 0x60 PUSH1 0x1 PUSH0 DUP5 DUP2 MSTORE PUSH1 0x20 ADD SWAP1 DUP2 MSTORE PUSH1 0x20 ADD PUSH0 KECCAK256 PUSH0 DUP4 PUSH20 0xFFFFFFFFFFFFFFFFFFFFFFFFFFFFFFFFFFFFFFFF AND PUSH20 0xFFFFFFFFFFFFFFFFFFFFFFFFFFFFFFFFFFFFFFFF AND DUP2 MSTORE PUSH1 0x20 ADD SWAP1 DUP2 MSTORE PUSH1 0x20 ADD PUSH0 KECCAK256 DUP1 SLOAD DUP1 PUSH1 0x20 MUL PUSH1 0x20 ADD PUSH1 0x40 MLOAD SWAP1 DUP2 ADD PUSH1 0x40 MSTORE DUP1 SWAP3 SWAP2 SWAP1 DUP2 DUP2 MSTORE PUSH1 0x20 ADD DUP3 DUP1 SLOAD DUP1 ISZERO PUSH2 0x975 JUMPI PUSH1 0x20 MUL DUP3 ADD SWAP2 SWAP1 PUSH0 MSTORE PUSH1 0x20 PUSH0 KECCAK256 SWAP1 JUMPDEST DUP2 SLOAD DUP2 MSTORE PUSH1 0x20 ADD SWAP1 PUSH1 0x1 ADD SWAP1 DUP1 DUP4 GT PUSH2 0x961 JUMPI JUMPDEST POP POP POP POP POP SWAP1 POP SWAP3 SWAP2 POP POP JUMP JUMPDEST PUSH2 0x98A PUSH2 0x173A JUMP JUMPDEST PUSH0 PUSH32 0x0 PUSH20 0xFFFFFFFFFFFFFFFFFFFFFFFFFFFFFFFFFFFFFFFF AND PUSH4 0x8F1327C0 DUP4 PUSH1 0x40 MLOAD DUP3 PUSH4 0xFFFFFFFF AND PUSH1 0xE0 SHL DUP2 MSTORE PUSH1 0x4 ADD PUSH2 0x9E4 SWAP2 SWAP1 PUSH2 0x1DCA JUMP JUMPDEST PUSH2 0x180 PUSH1 0x40 MLOAD DUP1 DUP4 SUB DUP2 DUP7 GAS STATICCALL ISZERO DUP1 ISZERO PUSH2 0xA00 JUMPI RETURNDATASIZE PUSH0 PUSH0 RETURNDATACOPY RETURNDATASIZE PUSH0 REVERT JUMPDEST POP POP POP POP PUSH1 0x40 MLOAD RETURNDATASIZE PUSH1 0x1F NOT PUSH1 0x1F DUP3 ADD AND DUP3 ADD DUP1 PUSH1 0x40 MSTORE POP DUP2 ADD SWAP1 PUSH2 0xA24 SWAP2 SWAP1 PUSH2 0x21B0 JUMP JUMPDEST SWAP1 POP PUSH1 0x3 DUP1 DUP2 GT ISZERO PUSH2 0xA39 JUMPI PUSH2 0xA38 PUSH2 0x21DC JUMP JUMPDEST JUMPDEST DUP2 PUSH2 0x160 ADD MLOAD PUSH1 0x3 DUP2 GT ISZERO PUSH2 0xA51 JUMPI PUSH2 0xA50 PUSH2 0x21DC JUMP JUMPDEST JUMPDEST EQ PUSH2 0xA88 JUMPI PUSH1 0x40 MLOAD PUSH32 0x779DF1A900000000000000000000000000000000000000000000000000000000 DUP2 MSTORE PUSH1 0x4 ADD PUSH1 0x40 MLOAD DUP1 SWAP2 SUB SWAP1 REVERT JUMPDEST PUSH0 PUSH1 0x1 PUSH0 DUP5 DUP2 MSTORE PUSH1 0x20 ADD SWAP1 DUP2 MSTORE PUSH1 0x20 ADD PUSH0 KECCAK256 PUSH0 CALLER PUSH20 0xFFFFFFFFFFFFFFFFFFFFFFFFFFFFFFFFFFFFFFFF AND PUSH20 0xFFFFFFFFFFFFFFFFFFFFFFFFFFFFFFFFFFFFFFFF AND DUP2 MSTORE PUSH1 0x20 ADD SWAP1 DUP2 MSTORE PUSH1 0x20 ADD PUSH0 KECCAK256 SWAP1 POP PUSH0 DUP2 DUP1 SLOAD SWAP1 POP SUB PUSH2 0xB14 JUMPI PUSH1 0x40 MLOAD PUSH32 0x9BC6CBE400000000000000000000000000000000000000000000000000000000 DUP2 MSTORE PUSH1 0x4 ADD PUSH1 0x40 MLOAD DUP1 SWAP2 SUB SWAP1 REVERT JUMPDEST PUSH0 PUSH0 SWAP1 POP PUSH0 PUSH0 SWAP1 POP JUMPDEST DUP3 DUP1 SLOAD SWAP1 POP DUP2 LT ISZERO PUSH2 0xBC7 JUMPI PUSH0 PUSH0 PUSH0 DUP8 DUP2 MSTORE PUSH1 0x20 ADD SWAP1 DUP2 MSTORE PUSH1 0x20 ADD PUSH0 KECCAK256 DUP5 DUP4 DUP2 SLOAD DUP2 LT PUSH2 0xB4D JUMPI PUSH2 0xB4C PUSH2 0x22EC JUMP JUMPDEST JUMPDEST SWAP1 PUSH0 MSTORE PUSH1 0x20 PUSH0 KECCAK256 ADD SLOAD DUP2 SLOAD DUP2 LT PUSH2 0xB67 JUMPI PUSH2 0xB66 PUSH2 0x22EC JUMP JUMPDEST JUMPDEST SWAP1 PUSH0 MSTORE PUSH1 0x20 PUSH0 KECCAK256 SWAP1 PUSH1 0x5 MUL ADD SWAP1 POP DUP1 PUSH1 0x4 ADD PUSH0 SWAP1 SLOAD SWAP1 PUSH2 0x100 EXP SWAP1 DIV PUSH1 0xFF AND PUSH2 0xBB9 JUMPI DUP1 PUSH1 0x1 ADD SLOAD DUP4 PUSH2 0xB9A SWAP2 SWAP1 PUSH2 0x2284 JUMP JUMPDEST SWAP3 POP PUSH1 0x1 DUP2 PUSH1 0x4 ADD PUSH0 PUSH2 0x100 EXP DUP2 SLOAD DUP2 PUSH1 0xFF MUL NOT AND SWAP1 DUP4 ISZERO ISZERO MUL OR SWAP1 SSTORE POP JUMPDEST POP DUP1 DUP1 PUSH1 0x1 ADD SWAP2 POP POP PUSH2 0xB1D JUMP JUMPDEST POP PUSH0 DUP2 SUB PUSH2 0xC01 JUMPI PUSH1 0x40 MLOAD PUSH32 0x9BC6CBE400000000000000000000000000000000000000000000000000000000 DUP2 MSTORE PUSH1 0x4 ADD PUSH1 0x40 MLOAD DUP1 SWAP2 SUB SWAP1 REVERT JUMPDEST PUSH0 CALLER PUSH20 0xFFFFFFFFFFFFFFFFFFFFFFFFFFFFFFFFFFFFFFFF AND DUP3 PUSH1 0x40 MLOAD PUSH2 0xC26 SWAP1 PUSH2 0x2346 JUMP JUMPDEST PUSH0 PUSH1 0x40 MLOAD DUP1 DUP4 SUB DUP2 DUP6 DUP8 GAS CALL SWAP3 POP POP POP RETURNDATASIZE DUP1 PUSH0 DUP2 EQ PUSH2 0xC60 JUMPI PUSH1 0x40 MLOAD SWAP2 POP PUSH1 0x1F NOT PUSH1 0x3F RETURNDATASIZE ADD AND DUP3 ADD PUSH1 0x40 MSTORE RETURNDATASIZE DUP3 MSTORE RETURNDATASIZE PUSH0 PUSH1 0x20 DUP5 ADD RETURNDATACOPY PUSH2 0xC65 JUMP JUMPDEST PUSH1 0x60 SWAP2 POP JUMPDEST POP POP SWAP1 POP DUP1 PUSH2 0xCA0 JUMPI PUSH1 0x40 MLOAD PUSH32 0x90B8EC1800000000000000000000000000000000000000000000000000000000 DUP2 MSTORE PUSH1 0x4 ADD PUSH1 0x40 MLOAD DUP1 SWAP2 SUB SWAP1 REVERT JUMPDEST CALLER PUSH20 0xFFFFFFFFFFFFFFFFFFFFFFFFFFFFFFFFFFFFFFFF AND DUP6 PUSH32 0xF3F402280EF0A7905E124AA621B65EAEB2725C343E8B36D398ED78C29DAF285C DUP5 PUSH1 0x40 MLOAD PUSH2 0xCE7 SWAP2 SWAP1 PUSH2 0x1DCA JUMP JUMPDEST PUSH1 0x40 MLOAD DUP1 SWAP2 SUB SWAP1 LOG3 POP POP POP POP PUSH2 0xCFB PUSH2 0x175C JUMP JUMPDEST POP JUMP JUMPDEST PUSH1 0x1 PUSH1 0x20 MSTORE DUP3 PUSH0 MSTORE PUSH1 0x40 PUSH0 KECCAK256 PUSH1 0x20 MSTORE DUP2 PUSH0 MSTORE PUSH1 0x40 PUSH0 KECCAK256 DUP2 DUP2 SLOAD DUP2 LT PUSH2 0xD21 JUMPI PUSH0 DUP1 REVERT JUMPDEST SWAP1 PUSH0 MSTORE PUSH1 0x20 PUSH0 KECCAK256 ADD PUSH0 SWAP3 POP SWAP3 POP POP POP SLOAD DUP2 JUMP JUMPDEST PUSH2 0xD3C PUSH2 0x173A JUMP JUMPDEST PUSH0 PUSH32 0x0 PUSH20 0xFFFFFFFFFFFFFFFFFFFFFFFFFFFFFFFFFFFFFFFF AND PUSH4 0x8F1327C0 DUP4 PUSH1 0x40 MLOAD DUP3 PUSH4 0xFFFFFFFF AND PUSH1 0xE0 SHL DUP2 MSTORE PUSH1 0x4 ADD PUSH2 0xD96 SWAP2 SWAP1 PUSH2 0x1DCA JUMP JUMPDEST PUSH2 0x180 PUSH1 0x40 MLOAD DUP1 DUP4 SUB DUP2 DUP7 GAS STATICCALL ISZERO DUP1 ISZERO PUSH2 0xDB2 JUMPI RETURNDATASIZE PUSH0 PUSH0 RETURNDATACOPY RETURNDATASIZE PUSH0 REVERT JUMPDEST POP POP POP POP PUSH1 0x40 MLOAD RETURNDATASIZE PUSH1 0x1F NOT PUSH1 0x1F DUP3 ADD AND DUP3 ADD DUP1 PUSH1 0x40 MSTORE POP DUP2 ADD SWAP1 PUSH2 0xDD6 SWAP2 SWAP1 PUSH2 0x21B0 JUMP JUMPDEST SWAP1 POP PUSH1 0x2 PUSH1 0x3 DUP2 GT ISZERO PUSH2 0xDEC JUMPI PUSH2 0xDEB PUSH2 0x21DC JUMP JUMPDEST JUMPDEST DUP2 PUSH2 0x160 ADD MLOAD PUSH1 0x3 DUP2 GT ISZERO PUSH2 0xE04 JUMPI PUSH2 0xE03 PUSH2 0x21DC JUMP JUMPDEST JUMPDEST EQ PUSH2 0xE3B JUMPI PUSH1 0x40 MLOAD PUSH32 0xE2A1659A00000000000000000000000000000000000000000000000000000000 DUP2 MSTORE PUSH1 0x4 ADD PUSH1 0x40 MLOAD DUP1 SWAP2 SUB SWAP1 REVERT JUMPDEST PUSH0 PUSH1 0x1 PUSH0 DUP5 DUP2 MSTORE PUSH1 0x20 ADD SWAP1 DUP2 MSTORE PUSH1 0x20 ADD PUSH0 KECCAK256 PUSH0 CALLER PUSH20 0xFFFFFFFFFFFFFFFFFFFFFFFFFFFFFFFFFFFFFFFF AND PUSH20 0xFFFFFFFFFFFFFFFFFFFFFFFFFFFFFFFFFFFFFFFF AND DUP2 MSTORE PUSH1 0x20 ADD SWAP1 DUP2 MSTORE PUSH1 0x20 ADD PUSH0 KECCAK256 SWAP1 POP PUSH0 DUP2 DUP1 SLOAD SWAP1 POP SUB PUSH2 0xEC7 JUMPI PUSH1 0x40 MLOAD PUSH32 0x9BC6CBE400000000000000000000000000000000000000000000000000000000 DUP2 MSTORE PUSH1 0x4 ADD PUSH1 0x40 MLOAD DUP1 SWAP2 SUB SWAP1 REVERT JUMPDEST PUSH0 PUSH32 0x0 PUSH20 0xFFFFFFFFFFFFFFFFFFFFFFFFFFFFFFFFFFFFFFFF AND PUSH4 0x1780A892 PUSH1 0x40 MLOAD DUP2 PUSH4 0xFFFFFFFF AND PUSH1 0xE0 SHL DUP2 MSTORE PUSH1 0x4 ADD PUSH1 0x20 PUSH1 0x40 MLOAD DUP1 DUP4 SUB DUP2 DUP7 GAS STATICCALL ISZERO DUP1 ISZERO PUSH2 0xF31 JUMPI RETURNDATASIZE PUSH0 PUSH0 RETURNDATACOPY RETURNDATASIZE PUSH0 REVERT JUMPDEST POP POP POP POP PUSH1 0x40 MLOAD RETURNDATASIZE PUSH1 0x1F NOT PUSH1 0x1F DUP3 ADD AND DUP3 ADD DUP1 PUSH1 0x40 MSTORE POP DUP2 ADD SWAP1 PUSH2 0xF55 SWAP2 SWAP1 PUSH2 0x235A JUMP JUMPDEST SWAP1 POP PUSH0 PUSH1 0x64 DUP3 PUSH1 0x2 PUSH0 DUP9 DUP2 MSTORE PUSH1 0x20 ADD SWAP1 DUP2 MSTORE PUSH1 0x20 ADD PUSH0 KECCAK256 SLOAD PUSH2 0xF77 SWAP2 SWAP1 PUSH2 0x2385 JUMP JUMPDEST PUSH2 0xF81 SWAP2 SWAP1 PUSH2 0x23F3 JUMP JUMPDEST SWAP1 POP PUSH0 DUP2 PUSH1 0x2 PUSH0 DUP9 DUP2 MSTORE PUSH1 0x20 ADD SWAP1 DUP2 MSTORE PUSH1 0x20 ADD PUSH0 KECCAK256 SLOAD PUSH2 0xFA1 SWAP2 SWAP1 PUSH2 0x2423 JUMP JUMPDEST SWAP1 POP PUSH0 PUSH2 0xFB4 DUP8 DUP8 PUSH2 0x100 ADD MLOAD DUP8 PUSH2 0x1776 JUMP JUMPDEST SWAP1 POP PUSH0 DUP2 SUB PUSH2 0xFEF JUMPI PUSH1 0x40 MLOAD PUSH32 0x9BC6CBE400000000000000000000000000000000000000000000000000000000 DUP2 MSTORE PUSH1 0x4 ADD PUSH1 0x40 MLOAD DUP1 SWAP2 SUB SWAP1 REVERT JUMPDEST PUSH0 PUSH2 0xFFF DUP9 DUP9 PUSH2 0x100 ADD MLOAD PUSH2 0x1851 JUMP JUMPDEST SWAP1 POP PUSH0 DUP4 DUP3 GT ISZERO PUSH2 0x1028 JUMPI DUP2 DUP5 DUP5 PUSH2 0x1017 SWAP2 SWAP1 PUSH2 0x2385 JUMP JUMPDEST PUSH2 0x1021 SWAP2 SWAP1 PUSH2 0x23F3 JUMP JUMPDEST SWAP1 POP PUSH2 0x102C JUMP JUMPDEST DUP3 SWAP1 POP JUMPDEST PUSH0 PUSH0 SWAP1 POP JUMPDEST DUP8 DUP1 SLOAD SWAP1 POP DUP2 LT ISZERO PUSH2 0x10F1 JUMPI PUSH0 PUSH0 PUSH0 DUP13 DUP2 MSTORE PUSH1 0x20 ADD SWAP1 DUP2 MSTORE PUSH1 0x20 ADD PUSH0 KECCAK256 DUP10 DUP4 DUP2 SLOAD DUP2 LT PUSH2 0x1061 JUMPI PUSH2 0x1060 PUSH2 0x22EC JUMP JUMPDEST JUMPDEST SWAP1 PUSH0 MSTORE PUSH1 0x20 PUSH0 KECCAK256 ADD SLOAD DUP2 SLOAD DUP2 LT PUSH2 0x107B JUMPI PUSH2 0x107A PUSH2 0x22EC JUMP JUMPDEST JUMPDEST SWAP1 PUSH0 MSTORE PUSH1 0x20 PUSH0 KECCAK256 SWAP1 PUSH1 0x5 MUL ADD SWAP1 POP DUP1 PUSH1 0x4 ADD PUSH0 SWAP1 SLOAD SWAP1 PUSH2 0x100 EXP SWAP1 DIV PUSH1 0xFF AND ISZERO DUP1 ISZERO PUSH2 0x10C1 JUMPI POP DUP10 PUSH2 0x100 ADD MLOAD PUSH1 0xFF AND DUP2 PUSH0 ADD PUSH1 0x14 SWAP1 SLOAD SWAP1 PUSH2 0x100 EXP SWAP1 DIV PUSH1 0xFF AND PUSH1 0xFF AND EQ JUMPDEST ISZERO PUSH2 0x10E3 JUMPI PUSH1 0x1 DUP2 PUSH1 0x4 ADD PUSH0 PUSH2 0x100 EXP DUP2 SLOAD DUP2 PUSH1 0xFF MUL NOT AND SWAP1 DUP4 ISZERO ISZERO MUL OR SWAP1 SSTORE POP JUMPDEST POP DUP1 DUP1 PUSH1 0x1 ADD SWAP2 POP POP PUSH2 0x1031 JUMP JUMPDEST POP PUSH0 CALLER PUSH20 0xFFFFFFFFFFFFFFFFFFFFFFFFFFFFFFFFFFFFFFFF AND DUP3 PUSH1 0x40 MLOAD PUSH2 0x1117 SWAP1 PUSH2 0x2346 JUMP JUMPDEST PUSH0 PUSH1 0x40 MLOAD DUP1 DUP4 SUB DUP2 DUP6 DUP8 GAS CALL SWAP3 POP POP POP RETURNDATASIZE DUP1 PUSH0 DUP2 EQ PUSH2 0x1151 JUMPI PUSH1 0x40 MLOAD SWAP2 POP PUSH1 0x1F NOT PUSH1 0x3F RETURNDATASIZE ADD AND DUP3 ADD PUSH1 0x40 MSTORE RETURNDATASIZE DUP3 MSTORE RETURNDATASIZE PUSH0 PUSH1 0x20 DUP5 ADD RETURNDATACOPY PUSH2 0x1156 JUMP JUMPDEST PUSH1 0x60 SWAP2 POP JUMPDEST POP POP SWAP1 POP DUP1 PUSH2 0x1191 JUMPI PUSH1 0x40 MLOAD PUSH32 0x90B8EC1800000000000000000000000000000000000000000000000000000000 DUP2 MSTORE PUSH1 0x4 ADD PUSH1 0x40 MLOAD DUP1 SWAP2 SUB SWAP1 REVERT JUMPDEST CALLER PUSH20 0xFFFFFFFFFFFFFFFFFFFFFFFFFFFFFFFFFFFFFFFF AND DUP11 PUSH32 0x5380CF6FE903B40C6D5A9E0DFBCA2F3A423F0A21520B4D5947ED5169BDBA946D DUP5 PUSH1 0x40 MLOAD PUSH2 0x11D8 SWAP2 SWAP1 PUSH2 0x1DCA JUMP JUMPDEST PUSH1 0x40 MLOAD DUP1 SWAP2 SUB SWAP1 LOG3 POP POP POP POP POP POP POP POP POP PUSH2 0x11F1 PUSH2 0x175C JUMP JUMPDEST POP JUMP JUMPDEST PUSH0 PUSH1 0x20 MSTORE DUP2 PUSH0 MSTORE PUSH1 0x40 PUSH0 KECCAK256 DUP2 DUP2 SLOAD DUP2 LT PUSH2 0x120C JUMPI PUSH0 DUP1 REVERT JUMPDEST SWAP1 PUSH0 MSTORE PUSH1 0x20 PUSH0 KECCAK256 SWAP1 PUSH1 0x5 MUL ADD PUSH0 SWAP2 POP SWAP2 POP POP DUP1 PUSH0 ADD PUSH0 SWAP1 SLOAD SWAP1 PUSH2 0x100 EXP SWAP1 DIV PUSH20 0xFFFFFFFFFFFFFFFFFFFFFFFFFFFFFFFFFFFFFFFF AND SWAP1 DUP1 PUSH0 ADD PUSH1 0x14 SWAP1 SLOAD SWAP1 PUSH2 0x100 EXP SWAP1 DIV PUSH1 0xFF AND SWAP1 DUP1 PUSH1 0x1 ADD SLOAD SWAP1 DUP1 PUSH1 0x2 ADD SLOAD SWAP1 DUP1 PUSH1 0x3 ADD SLOAD SWAP1 DUP1 PUSH1 0x4 ADD PUSH0 SWAP1 SLOAD SWAP1 PUSH2 0x100 EXP SWAP1 DIV PUSH1 0xFF AND SWAP1 POP DUP7 JUMP JUMPDEST PUSH32 0x0 DUP2 JUMP JUMPDEST PUSH1 0x3 PUSH1 0x20 MSTORE DUP1 PUSH0 MSTORE PUSH1 0x40 PUSH0 KECCAK256 PUSH0 SWAP2 POP SLOAD SWAP1 PUSH2 0x100 EXP SWAP1 DIV PUSH1 0xFF AND DUP2 JUMP JUMPDEST PUSH1 0x2 PUSH1 0x20 MSTORE DUP1 PUSH0 MSTORE PUSH1 0x40 PUSH0 KECCAK256 PUSH0 SWAP2 POP SWAP1 POP SLOAD DUP2 JUMP JUMPDEST PUSH32 0x0 DUP2 JUMP JUMPDEST PUSH2 0x12FE PUSH2 0x173A JUMP JUMPDEST PUSH0 PUSH32 0x0 PUSH20 0xFFFFFFFFFFFFFFFFFFFFFFFFFFFFFFFFFFFFFFFF AND PUSH4 0x8F1327C0 DUP4 PUSH1 0x40 MLOAD DUP3 PUSH4 0xFFFFFFFF AND PUSH1 0xE0 SHL DUP2 MSTORE PUSH1 0x4 ADD PUSH2 0x1358 SWAP2 SWAP1 PUSH2 0x1DCA JUMP JUMPDEST PUSH2 0x180 PUSH1 0x40 MLOAD DUP1 DUP4 SUB DUP2 DUP7 GAS STATICCALL ISZERO DUP1 ISZERO PUSH2 0x1374 JUMPI RETURNDATASIZE PUSH0 PUSH0 RETURNDATACOPY RETURNDATASIZE PUSH0 REVERT JUMPDEST POP POP POP POP PUSH1 0x40 MLOAD RETURNDATASIZE PUSH1 0x1F NOT PUSH1 0x1F DUP3 ADD AND DUP3 ADD DUP1 PUSH1 0x40 MSTORE POP DUP2 ADD SWAP1 PUSH2 0x1398 SWAP2 SWAP1 PUSH2 0x21B0 JUMP JUMPDEST SWAP1 POP PUSH1 0x2 PUSH1 0x3 DUP2 GT ISZERO PUSH2 0x13AE JUMPI PUSH2 0x13AD PUSH2 0x21DC JUMP JUMPDEST JUMPDEST DUP2 PUSH2 0x160 ADD MLOAD PUSH1 0x3 DUP2 GT ISZERO PUSH2 0x13C6 JUMPI PUSH2 0x13C5 PUSH2 0x21DC JUMP JUMPDEST JUMPDEST EQ PUSH2 0x13FD JUMPI PUSH1 0x40 MLOAD PUSH32 0xE2A1659A00000000000000000000000000000000000000000000000000000000 DUP2 MSTORE PUSH1 0x4 ADD PUSH1 0x40 MLOAD DUP1 SWAP2 SUB SWAP1 REVERT JUMPDEST DUP1 PUSH1 0x20 ADD MLOAD PUSH20 0xFFFFFFFFFFFFFFFFFFFFFFFFFFFFFFFFFFFFFFFF AND CALLER PUSH20 0xFFFFFFFFFFFFFFFFFFFFFFFFFFFFFFFFFFFFFFFF AND EQ PUSH2 0x1466 JUMPI PUSH1 0x40 MLOAD PUSH32 0x46BCA2AA00000000000000000000000000000000000000000000000000000000 DUP2 MSTORE PUSH1 0x4 ADD PUSH1 0x40 MLOAD DUP1 SWAP2 SUB SWAP1 REVERT JUMPDEST PUSH1 0x3 PUSH0 DUP4 DUP2 MSTORE PUSH1 0x20 ADD SWAP1 DUP2 MSTORE PUSH1 0x20 ADD PUSH0 KECCAK256 PUSH0 SWAP1 SLOAD SWAP1 PUSH2 0x100 EXP SWAP1 DIV PUSH1 0xFF AND ISZERO PUSH2 0x14BB JUMPI PUSH1 0x40 MLOAD PUSH32 0x58A3B7900000000000000000000000000000000000000000000000000000000 DUP2 MSTORE PUSH1 0x4 ADD PUSH1 0x40 MLOAD DUP1 SWAP2 SUB SWAP1 REVERT JUMPDEST PUSH0 PUSH32 0x0 PUSH20 0xFFFFFFFFFFFFFFFFFFFFFFFFFFFFFFFFFFFFFFFF AND PUSH4 0x1780A892 PUSH1 0x40 MLOAD DUP2 PUSH4 0xFFFFFFFF AND PUSH1 0xE0 SHL DUP2 MSTORE PUSH1 0x4 ADD PUSH1 0x20 PUSH1 0x40 MLOAD DUP1 DUP4 SUB DUP2 DUP7 GAS STATICCALL ISZERO DUP1 ISZERO PUSH2 0x1525 JUMPI RETURNDATASIZE PUSH0 PUSH0 RETURNDATACOPY RETURNDATASIZE PUSH0 REVERT JUMPDEST POP POP POP POP PUSH1 0x40 MLOAD RETURNDATASIZE PUSH1 0x1F NOT PUSH1 0x1F DUP3 ADD AND DUP3 ADD DUP1 PUSH1 0x40 MSTORE POP DUP2 ADD SWAP1 PUSH2 0x1549 SWAP2 SWAP1 PUSH2 0x235A JUMP JUMPDEST SWAP1 POP PUSH0 PUSH1 0x64 DUP3 PUSH1 0x2 PUSH0 DUP8 DUP2 MSTORE PUSH1 0x20 ADD SWAP1 DUP2 MSTORE PUSH1 0x20 ADD PUSH0 KECCAK256 SLOAD PUSH2 0x156B SWAP2 SWAP1 PUSH2 0x2385 JUMP JUMPDEST PUSH2 0x1575 SWAP2 SWAP1 PUSH2 0x23F3 JUMP JUMPDEST SWAP1 POP PUSH1 0x1 PUSH1 0x3 PUSH0 DUP7 DUP2 MSTORE PUSH1 0x20 ADD SWAP1 DUP2 MSTORE PUSH1 0x20 ADD PUSH0 KECCAK256 PUSH0 PUSH2 0x100 EXP DUP2 SLOAD DUP2 PUSH1 0xFF MUL NOT AND SWAP1 DUP4 ISZERO ISZERO MUL OR SWAP1 SSTORE POP PUSH0 CALLER PUSH20 0xFFFFFFFFFFFFFFFFFFFFFFFFFFFFFFFFFFFFFFFF AND DUP3 PUSH1 0x40 MLOAD PUSH2 0x15C5 SWAP1 PUSH2 0x2346 JUMP JUMPDEST PUSH0 PUSH1 0x40 MLOAD DUP1 DUP4 SUB DUP2 DUP6 DUP8 GAS CALL SWAP3 POP POP POP RETURNDATASIZE DUP1 PUSH0 DUP2 EQ PUSH2 0x15FF JUMPI PUSH1 0x40 MLOAD SWAP2 POP PUSH1 0x1F NOT PUSH1 0x3F RETURNDATASIZE ADD AND DUP3 ADD PUSH1 0x40 MSTORE RETURNDATASIZE DUP3 MSTORE RETURNDATASIZE PUSH0 PUSH1 0x20 DUP5 ADD RETURNDATACOPY PUSH2 0x1604 JUMP JUMPDEST PUSH1 0x60 SWAP2 POP JUMPDEST POP POP SWAP1 POP DUP1 PUSH2 0x163F JUMPI PUSH1 0x40 MLOAD PUSH32 0x90B8EC1800000000000000000000000000000000000000000000000000000000 DUP2 MSTORE PUSH1 0x4 ADD PUSH1 0x40 MLOAD DUP1 SWAP2 SUB SWAP1 REVERT JUMPDEST CALLER PUSH20 0xFFFFFFFFFFFFFFFFFFFFFFFFFFFFFFFFFFFFFFFF AND DUP6 PUSH32 0x207B15363F1E2F99CF2F39CACEF16677E32CEE18674ABABCE6ECD95CA90E3D36 DUP5 PUSH1 0x40 MLOAD PUSH2 0x1686 SWAP2 SWAP1 PUSH2 0x1DCA JUMP JUMPDEST PUSH1 0x40 MLOAD DUP1 SWAP2 SUB SWAP1 LOG3 POP POP POP POP PUSH2 0x169A PUSH2 0x175C JUMP JUMPDEST POP JUMP JUMPDEST PUSH0 PUSH0 PUSH2 0xBB8 SWAP1 POP PUSH0 PUSH2 0x3E8 SWAP1 POP PUSH0 DUP5 PUSH2 0x120 ADD MLOAD DUP6 PUSH2 0x140 ADD MLOAD PUSH2 0x16C1 SWAP2 SWAP1 PUSH2 0x2423 JUMP JUMPDEST SWAP1 POP PUSH0 DUP2 SUB PUSH2 0x16D5 JUMPI DUP2 SWAP4 POP POP POP POP PUSH2 0x1735 JUMP JUMPDEST PUSH0 DUP6 PUSH2 0x120 ADD MLOAD TIMESTAMP PUSH2 0x16E7 SWAP2 SWAP1 PUSH2 0x2423 JUMP JUMPDEST SWAP1 POP DUP2 DUP2 LT PUSH2 0x16FC JUMPI DUP3 SWAP5 POP POP POP POP POP PUSH2 0x1735 JUMP JUMPDEST PUSH0 DUP3 DUP5 DUP7 PUSH2 0x170A SWAP2 SWAP1 PUSH2 0x2423 JUMP JUMPDEST DUP4 PUSH2 0x1715 SWAP2 SWAP1 PUSH2 0x2385 JUMP JUMPDEST PUSH2 0x171F SWAP2 SWAP1 PUSH2 0x23F3 JUMP JUMPDEST SWAP1 POP DUP1 DUP6 PUSH2 0x172D SWAP2 SWAP1 PUSH2 0x2423 JUMP JUMPDEST SWAP6 POP POP POP POP POP POP JUMPDEST SWAP2 SWAP1 POP JUMP JUMPDEST PUSH2 0x1742 PUSH2 0x1915 JUMP JUMPDEST PUSH1 0x2 PUSH2 0x1754 PUSH2 0x174F PUSH2 0x1956 JUMP JUMPDEST PUSH2 0x197F JUMP JUMPDEST PUSH0 ADD DUP2 SWAP1 SSTORE POP JUMP JUMPDEST PUSH1 0x1 PUSH2 0x176E PUSH2 0x1769 PUSH2 0x1956 JUMP JUMPDEST PUSH2 0x197F JUMP JUMPDEST PUSH0 ADD DUP2 SWAP1 SSTORE POP JUMP JUMPDEST PUSH0 PUSH0 PUSH0 SWAP1 POP JUMPDEST DUP3 DUP1 SLOAD SWAP1 POP DUP2 LT ISZERO PUSH2 0x1849 JUMPI PUSH0 PUSH0 PUSH0 DUP8 DUP2 MSTORE PUSH1 0x20 ADD SWAP1 DUP2 MSTORE PUSH1 0x20 ADD PUSH0 KECCAK256 DUP5 DUP4 DUP2 SLOAD DUP2 LT PUSH2 0x17AC JUMPI PUSH2 0x17AB PUSH2 0x22EC JUMP JUMPDEST JUMPDEST SWAP1 PUSH0 MSTORE PUSH1 0x20 PUSH0 KECCAK256 ADD SLOAD DUP2 SLOAD DUP2 LT PUSH2 0x17C6 JUMPI PUSH2 0x17C5 PUSH2 0x22EC JUMP JUMPDEST JUMPDEST SWAP1 PUSH0 MSTORE PUSH1 0x20 PUSH0 KECCAK256 SWAP1 PUSH1 0x5 MUL ADD SWAP1 POP DUP1 PUSH1 0x4 ADD PUSH0 SWAP1 SLOAD SWAP1 PUSH2 0x100 EXP SWAP1 DIV PUSH1 0xFF AND ISZERO DUP1 ISZERO PUSH2 0x1807 JUMPI POP DUP5 PUSH1 0xFF AND DUP2 PUSH0 ADD PUSH1 0x14 SWAP1 SLOAD SWAP1 PUSH2 0x100 EXP SWAP1 DIV PUSH1 0xFF AND PUSH1 0xFF AND EQ JUMPDEST ISZERO PUSH2 0x183B JUMPI PUSH2 0x3E8 DUP2 PUSH1 0x3 ADD SLOAD DUP3 PUSH1 0x1 ADD SLOAD PUSH2 0x1823 SWAP2 SWAP1 PUSH2 0x2385 JUMP JUMPDEST PUSH2 0x182D SWAP2 SWAP1 PUSH2 0x23F3 JUMP JUMPDEST DUP4 PUSH2 0x1838 SWAP2 SWAP1 PUSH2 0x2284 JUMP JUMPDEST SWAP3 POP JUMPDEST POP DUP1 DUP1 PUSH1 0x1 ADD SWAP2 POP POP PUSH2 0x177C JUMP JUMPDEST POP SWAP4 SWAP3 POP POP POP JUMP JUMPDEST PUSH0 PUSH0 PUSH0 PUSH0 DUP6 DUP2 MSTORE PUSH1 0x20 ADD SWAP1 DUP2 MSTORE PUSH1 0x20 ADD PUSH0 KECCAK256 SWAP1 POP PUSH0 PUSH0 SWAP1 POP JUMPDEST DUP2 DUP1 SLOAD SWAP1 POP DUP2 LT ISZERO PUSH2 0x190D JUMPI PUSH0 DUP3 DUP3 DUP2 SLOAD DUP2 LT PUSH2 0x188A JUMPI PUSH2 0x1889 PUSH2 0x22EC JUMP JUMPDEST JUMPDEST SWAP1 PUSH0 MSTORE PUSH1 0x20 PUSH0 KECCAK256 SWAP1 PUSH1 0x5 MUL ADD SWAP1 POP DUP1 PUSH1 0x4 ADD PUSH0 SWAP1 SLOAD SWAP1 PUSH2 0x100 EXP SWAP1 DIV PUSH1 0xFF AND ISZERO DUP1 ISZERO PUSH2 0x18CB JUMPI POP DUP5 PUSH1 0xFF AND DUP2 PUSH0 ADD PUSH1 0x14 SWAP1 SLOAD SWAP1 PUSH2 0x100 EXP SWAP1 DIV PUSH1 0xFF AND PUSH1 0xFF AND EQ JUMPDEST ISZERO PUSH2 0x18FF JUMPI PUSH2 0x3E8 DUP2 PUSH1 0x3 ADD SLOAD DUP3 PUSH1 0x1 ADD SLOAD PUSH2 0x18E7 SWAP2 SWAP1 PUSH2 0x2385 JUMP JUMPDEST PUSH2 0x18F1 SWAP2 SWAP1 PUSH2 0x23F3 JUMP JUMPDEST DUP5 PUSH2 0x18FC SWAP2 SWAP1 PUSH2 0x2284 JUMP JUMPDEST SWAP4 POP JUMPDEST POP DUP1 DUP1 PUSH1 0x1 ADD SWAP2 POP POP PUSH2 0x186A JUMP JUMPDEST POP POP SWAP3 SWAP2 POP POP JUMP JUMPDEST PUSH2 0x191D PUSH2 0x1988 JUMP JUMPDEST ISZERO PUSH2 0x1954 JUMPI PUSH1 0x40 MLOAD PUSH32 0x3EE5AEB500000000000000000000000000000000000000000000000000000000 DUP2 MSTORE PUSH1 0x4 ADD PUSH1 0x40 MLOAD DUP1 SWAP2 SUB SWAP1 REVERT JUMPDEST JUMP JUMPDEST PUSH0 PUSH32 0x9B779B17422D0DF92223018B32B4D1FA46E071723D6817E2486D003BECC55F00 PUSH0 SHL SWAP1 POP SWAP1 JUMP JUMPDEST PUSH0 DUP2 SWAP1 POP SWAP2 SWAP1 POP JUMP JUMPDEST PUSH0 PUSH1 0x2 PUSH2 0x199B PUSH2 0x1996 PUSH2 0x1956 JUMP JUMPDEST PUSH2 0x197F JUMP JUMPDEST PUSH0 ADD SLOAD EQ SWAP1 POP SWAP1 JUMP JUMPDEST PUSH0 PUSH1 0x40 MLOAD SWAP1 POP SWAP1 JUMP JUMPDEST PUSH0 PUSH0 REVERT JUMPDEST PUSH0 DUP2 SWAP1 POP SWAP2 SWAP1 POP JUMP JUMPDEST PUSH2 0x19C3 DUP2 PUSH2 0x19B1 JUMP JUMPDEST DUP2 EQ PUSH2 0x19CD JUMPI PUSH0 PUSH0 REVERT JUMPDEST POP JUMP JUMPDEST PUSH0 DUP2 CALLDATALOAD SWAP1 POP PUSH2 0x19DE DUP2 PUSH2 0x19BA JUMP JUMPDEST SWAP3 SWAP2 POP POP JUMP JUMPDEST PUSH0 PUSH1 0xFF DUP3 AND SWAP1 POP SWAP2 SWAP1 POP JUMP JUMPDEST PUSH2 0x19F9 DUP2 PUSH2 0x19E4 JUMP JUMPDEST DUP2 EQ PUSH2 0x1A03 JUMPI PUSH0 PUSH0 REVERT JUMPDEST POP JUMP JUMPDEST PUSH0 DUP2 CALLDATALOAD SWAP1 POP PUSH2 0x1A14 DUP2 PUSH2 0x19F0 JUMP JUMPDEST SWAP3 SWAP2 POP POP JUMP JUMPDEST PUSH0 PUSH0 PUSH1 0x40 DUP4 DUP6 SUB SLT ISZERO PUSH2 0x1A30 JUMPI PUSH2 0x1A2F PUSH2 0x19AD JUMP JUMPDEST JUMPDEST PUSH0 PUSH2 0x1A3D DUP6 DUP3 DUP7 ADD PUSH2 0x19D0 JUMP JUMPDEST SWAP3 POP POP PUSH1 0x20 PUSH2 0x1A4E DUP6 DUP3 DUP7 ADD PUSH2 0x1A06 JUMP JUMPDEST SWAP2 POP POP SWAP3 POP SWAP3 SWAP1 POP JUMP JUMPDEST PUSH0 PUSH1 0x20 DUP3 DUP5 SUB SLT ISZERO PUSH2 0x1A6D JUMPI PUSH2 0x1A6C PUSH2 0x19AD JUMP JUMPDEST JUMPDEST PUSH0 PUSH2 0x1A7A DUP5 DUP3 DUP6 ADD PUSH2 0x19D0 JUMP JUMPDEST SWAP2 POP POP SWAP3 SWAP2 POP POP JUMP JUMPDEST PUSH0 DUP2 MLOAD SWAP1 POP SWAP2 SWAP1 POP JUMP JUMPDEST PUSH0 DUP3 DUP3 MSTORE PUSH1 0x20 DUP3 ADD SWAP1 POP SWAP3 SWAP2 POP POP JUMP JUMPDEST PUSH0 DUP2 SWAP1 POP PUSH1 0x20 DUP3 ADD SWAP1 POP SWAP2 SWAP1 POP JUMP JUMPDEST PUSH0 PUSH20 0xFFFFFFFFFFFFFFFFFFFFFFFFFFFFFFFFFFFFFFFF DUP3 AND SWAP1 POP SWAP2 SWAP1 POP JUMP JUMPDEST PUSH0 PUSH2 0x1AD5 DUP3 PUSH2 0x1AAC JUMP JUMPDEST SWAP1 POP SWAP2 SWAP1 POP JUMP JUMPDEST PUSH2 0x1AE5 DUP2 PUSH2 0x1ACB JUMP JUMPDEST DUP3 MSTORE POP POP JUMP JUMPDEST PUSH2 0x1AF4 DUP2 PUSH2 0x19E4 JUMP JUMPDEST DUP3 MSTORE POP POP JUMP JUMPDEST PUSH2 0x1B03 DUP2 PUSH2 0x19B1 JUMP JUMPDEST DUP3 MSTORE POP POP JUMP JUMPDEST PUSH0 DUP2 ISZERO ISZERO SWAP1 POP SWAP2 SWAP1 POP JUMP JUMPDEST PUSH2 0x1B1D DUP2 PUSH2 0x1B09 JUMP JUMPDEST DUP3 MSTORE POP POP JUMP JUMPDEST PUSH1 0xC0 DUP3 ADD PUSH0 DUP3 ADD MLOAD PUSH2 0x1B37 PUSH0 DUP6 ADD DUP3 PUSH2 0x1ADC JUMP JUMPDEST POP PUSH1 0x20 DUP3 ADD MLOAD PUSH2 0x1B4A PUSH1 0x20 DUP6 ADD DUP3 PUSH2 0x1AEB JUMP JUMPDEST POP PUSH1 0x40 DUP3 ADD MLOAD PUSH2 0x1B5D PUSH1 0x40 DUP6 ADD DUP3 PUSH2 0x1AFA JUMP JUMPDEST POP PUSH1 0x60 DUP3 ADD MLOAD PUSH2 0x1B70 PUSH1 0x60 DUP6 ADD DUP3 PUSH2 0x1AFA JUMP JUMPDEST POP PUSH1 0x80 DUP3 ADD MLOAD PUSH2 0x1B83 PUSH1 0x80 DUP6 ADD DUP3 PUSH2 0x1AFA JUMP JUMPDEST POP PUSH1 0xA0 DUP3 ADD MLOAD PUSH2 0x1B96 PUSH1 0xA0 DUP6 ADD DUP3 PUSH2 0x1B14 JUMP JUMPDEST POP POP POP POP JUMP JUMPDEST PUSH0 PUSH2 0x1BA7 DUP4 DUP4 PUSH2 0x1B23 JUMP JUMPDEST PUSH1 0xC0 DUP4 ADD SWAP1 POP SWAP3 SWAP2 POP POP JUMP JUMPDEST PUSH0 PUSH1 0x20 DUP3 ADD SWAP1 POP SWAP2 SWAP1 POP JUMP JUMPDEST PUSH0 PUSH2 0x1BC9 DUP3 PUSH2 0x1A83 JUMP JUMPDEST PUSH2 0x1BD3 DUP2 DUP6 PUSH2 0x1A8D JUMP JUMPDEST SWAP4 POP PUSH2 0x1BDE DUP4 PUSH2 0x1A9D JUMP JUMPDEST DUP1 PUSH0 JUMPDEST DUP4 DUP2 LT ISZERO PUSH2 0x1C0E JUMPI DUP2 MLOAD PUSH2 0x1BF5 DUP9 DUP3 PUSH2 0x1B9C JUMP JUMPDEST SWAP8 POP PUSH2 0x1C00 DUP4 PUSH2 0x1BB3 JUMP JUMPDEST SWAP3 POP POP PUSH1 0x1 DUP2 ADD SWAP1 POP PUSH2 0x1BE1 JUMP JUMPDEST POP DUP6 SWAP4 POP POP POP POP SWAP3 SWAP2 POP POP JUMP JUMPDEST PUSH0 PUSH1 0x20 DUP3 ADD SWAP1 POP DUP2 DUP2 SUB PUSH0 DUP4 ADD MSTORE PUSH2 0x1C33 DUP2 DUP5 PUSH2 0x1BBF JUMP JUMPDEST SWAP1 POP SWAP3 SWAP2 POP POP JUMP JUMPDEST PUSH2 0x1C44 DUP2 PUSH2 0x1ACB JUMP JUMPDEST DUP2 EQ PUSH2 0x1C4E JUMPI PUSH0 PUSH0 REVERT JUMPDEST POP JUMP JUMPDEST PUSH0 DUP2 CALLDATALOAD SWAP1 POP PUSH2 0x1C5F DUP2 PUSH2 0x1C3B JUMP JUMPDEST SWAP3 SWAP2 POP POP JUMP JUMPDEST PUSH0 PUSH0 PUSH1 0x40 DUP4 DUP6 SUB SLT ISZERO PUSH2 0x1C7B JUMPI PUSH2 0x1C7A PUSH2 0x19AD JUMP JUMPDEST JUMPDEST PUSH0 PUSH2 0x1C88 DUP6 DUP3 DUP7 ADD PUSH2 0x19D0 JUMP JUMPDEST SWAP3 POP POP PUSH1 0x20 PUSH2 0x1C99 DUP6 DUP3 DUP7 ADD PUSH2 0x1C51 JUMP JUMPDEST SWAP2 POP POP SWAP3 POP SWAP3 SWAP1 POP JUMP JUMPDEST PUSH0 DUP2 MLOAD SWAP1 POP SWAP2 SWAP1 POP JUMP JUMPDEST PUSH0 DUP3 DUP3 MSTORE PUSH1 0x20 DUP3 ADD SWAP1 POP SWAP3 SWAP2 POP POP JUMP JUMPDEST PUSH0 DUP2 SWAP1 POP PUSH1 0x20 DUP3 ADD SWAP1 POP SWAP2 SWAP1 POP JUMP JUMPDEST PUSH0 PUSH2 0x1CD7 DUP4 DUP4 PUSH2 0x1AFA JUMP JUMPDEST PUSH1 0x20 DUP4 ADD SWAP1 POP SWAP3 SWAP2 POP POP JUMP JUMPDEST PUSH0 PUSH1 0x20 DUP3 ADD SWAP1 POP SWAP2 SWAP1 POP JUMP JUMPDEST PUSH0 PUSH2 0x1CF9 DUP3 PUSH2 0x1CA3 JUMP JUMPDEST PUSH2 0x1D03 DUP2 DUP6 PUSH2 0x1CAD JUMP JUMPDEST SWAP4 POP PUSH2 0x1D0E DUP4 PUSH2 0x1CBD JUMP JUMPDEST DUP1 PUSH0 JUMPDEST DUP4 DUP2 LT ISZERO PUSH2 0x1D3E JUMPI DUP2 MLOAD PUSH2 0x1D25 DUP9 DUP3 PUSH2 0x1CCC JUMP JUMPDEST SWAP8 POP PUSH2 0x1D30 DUP4 PUSH2 0x1CE3 JUMP JUMPDEST SWAP3 POP POP PUSH1 0x1 DUP2 ADD SWAP1 POP PUSH2 0x1D11 JUMP JUMPDEST POP DUP6 SWAP4 POP POP POP POP SWAP3 SWAP2 POP POP JUMP JUMPDEST PUSH0 PUSH1 0x20 DUP3 ADD SWAP1 POP DUP2 DUP2 SUB PUSH0 DUP4 ADD MSTORE PUSH2 0x1D63 DUP2 DUP5 PUSH2 0x1CEF JUMP JUMPDEST SWAP1 POP SWAP3 SWAP2 POP POP JUMP JUMPDEST PUSH0 PUSH0 PUSH0 PUSH1 0x60 DUP5 DUP7 SUB SLT ISZERO PUSH2 0x1D82 JUMPI PUSH2 0x1D81 PUSH2 0x19AD JUMP JUMPDEST JUMPDEST PUSH0 PUSH2 0x1D8F DUP7 DUP3 DUP8 ADD PUSH2 0x19D0 JUMP JUMPDEST SWAP4 POP POP PUSH1 0x20 PUSH2 0x1DA0 DUP7 DUP3 DUP8 ADD PUSH2 0x1C51 JUMP JUMPDEST SWAP3 POP POP PUSH1 0x40 PUSH2 0x1DB1 DUP7 DUP3 DUP8 ADD PUSH2 0x19D0 JUMP JUMPDEST SWAP2 POP POP SWAP3 POP SWAP3 POP SWAP3 JUMP JUMPDEST PUSH2 0x1DC4 DUP2 PUSH2 0x19B1 JUMP JUMPDEST DUP3 MSTORE POP POP JUMP JUMPDEST PUSH0 PUSH1 0x20 DUP3 ADD SWAP1 POP PUSH2 0x1DDD PUSH0 DUP4 ADD DUP5 PUSH2 0x1DBB JUMP JUMPDEST SWAP3 SWAP2 POP POP JUMP JUMPDEST PUSH0 PUSH0 PUSH1 0x40 DUP4 DUP6 SUB SLT ISZERO PUSH2 0x1DF9 JUMPI PUSH2 0x1DF8 PUSH2 0x19AD JUMP JUMPDEST JUMPDEST PUSH0 PUSH2 0x1E06 DUP6 DUP3 DUP7 ADD PUSH2 0x19D0 JUMP JUMPDEST SWAP3 POP POP PUSH1 0x20 PUSH2 0x1E17 DUP6 DUP3 DUP7 ADD PUSH2 0x19D0 JUMP JUMPDEST SWAP2 POP POP SWAP3 POP SWAP3 SWAP1 POP JUMP JUMPDEST PUSH2 0x1E2A DUP2 PUSH2 0x1ACB JUMP JUMPDEST DUP3 MSTORE POP POP JUMP JUMPDEST PUSH2 0x1E39 DUP2 PUSH2 0x19E4 JUMP JUMPDEST DUP3 MSTORE POP POP JUMP JUMPDEST PUSH2 0x1E48 DUP2 PUSH2 0x1B09 JUMP JUMPDEST DUP3 MSTORE POP POP JUMP JUMPDEST PUSH0 PUSH1 0xC0 DUP3 ADD SWAP1 POP PUSH2 0x1E61 PUSH0 DUP4 ADD DUP10 PUSH2 0x1E21 JUMP JUMPDEST PUSH2 0x1E6E PUSH1 0x20 DUP4 ADD DUP9 PUSH2 0x1E30 JUMP JUMPDEST PUSH2 0x1E7B PUSH1 0x40 DUP4 ADD DUP8 PUSH2 0x1DBB JUMP JUMPDEST PUSH2 0x1E88 PUSH1 0x60 DUP4 ADD DUP7 PUSH2 0x1DBB JUMP JUMPDEST PUSH2 0x1E95 PUSH1 0x80 DUP4 ADD DUP6 PUSH2 0x1DBB JUMP JUMPDEST PUSH2 0x1EA2 PUSH1 0xA0 DUP4 ADD DUP5 PUSH2 0x1E3F JUMP JUMPDEST SWAP8 SWAP7 POP POP POP POP POP POP POP JUMP JUMPDEST PUSH0 DUP2 SWAP1 POP SWAP2 SWAP1 POP JUMP JUMPDEST PUSH0 PUSH2 0x1ED0 PUSH2 0x1ECB PUSH2 0x1EC6 DUP5 PUSH2 0x1AAC JUMP JUMPDEST PUSH2 0x1EAD JUMP JUMPDEST PUSH2 0x1AAC JUMP JUMPDEST SWAP1 POP SWAP2 SWAP1 POP JUMP JUMPDEST PUSH0 PUSH2 0x1EE1 DUP3 PUSH2 0x1EB6 JUMP JUMPDEST SWAP1 POP SWAP2 SWAP1 POP JUMP JUMPDEST PUSH0 PUSH2 0x1EF2 DUP3 PUSH2 0x1ED7 JUMP JUMPDEST SWAP1 POP SWAP2 SWAP1 POP JUMP JUMPDEST PUSH2 0x1F02 DUP2 PUSH2 0x1EE8 JUMP JUMPDEST DUP3 MSTORE POP POP JUMP JUMPDEST PUSH0 PUSH1 0x20 DUP3 ADD SWAP1 POP PUSH2 0x1F1B PUSH0 DUP4 ADD DUP5 PUSH2 0x1EF9 JUMP JUMPDEST SWAP3 SWAP2 POP POP JUMP JUMPDEST PUSH0 PUSH1 0x20 DUP3 ADD SWAP1 POP PUSH2 0x1F34 PUSH0 DUP4 ADD DUP5 PUSH2 0x1E3F JUMP JUMPDEST SWAP3 SWAP2 POP POP JUMP JUMPDEST PUSH0 PUSH2 0x1F44 DUP3 PUSH2 0x1ED7 JUMP JUMPDEST SWAP1 POP SWAP2 SWAP1 POP JUMP JUMPDEST PUSH2 0x1F54 DUP2 PUSH2 0x1F3A JUMP JUMPDEST DUP3 MSTORE POP POP JUMP JUMPDEST PUSH0 PUSH1 0x20 DUP3 ADD SWAP1 POP PUSH2 0x1F6D PUSH0 DUP4 ADD DUP5 PUSH2 0x1F4B JUMP JUMPDEST SWAP3 SWAP2 POP POP JUMP JUMPDEST PUSH0 PUSH0 REVERT JUMPDEST PUSH0 PUSH1 0x1F NOT PUSH1 0x1F DUP4 ADD AND SWAP1 POP SWAP2 SWAP1 POP JUMP JUMPDEST PUSH32 0x4E487B7100000000000000000000000000000000000000000000000000000000 PUSH0 MSTORE PUSH1 0x41 PUSH1 0x4 MSTORE PUSH1 0x24 PUSH0 REVERT JUMPDEST PUSH2 0x1FBD DUP3 PUSH2 0x1F77 JUMP JUMPDEST DUP2 ADD DUP2 DUP2 LT PUSH8 0xFFFFFFFFFFFFFFFF DUP3 GT OR ISZERO PUSH2 0x1FDC JUMPI PUSH2 0x1FDB PUSH2 0x1F87 JUMP JUMPDEST JUMPDEST DUP1 PUSH1 0x40 MSTORE POP POP POP JUMP JUMPDEST PUSH0 PUSH2 0x1FEE PUSH2 0x19A4 JUMP JUMPDEST SWAP1 POP PUSH2 0x1FFA DUP3 DUP3 PUSH2 0x1FB4 JUMP JUMPDEST SWAP2 SWAP1 POP JUMP JUMPDEST PUSH0 DUP2 MLOAD SWAP1 POP PUSH2 0x200D DUP2 PUSH2 0x19BA JUMP JUMPDEST SWAP3 SWAP2 POP POP JUMP JUMPDEST PUSH0 DUP2 MLOAD SWAP1 POP PUSH2 0x2021 DUP2 PUSH2 0x1C3B JUMP JUMPDEST SWAP3 SWAP2 POP POP JUMP JUMPDEST PUSH0 DUP2 MLOAD SWAP1 POP PUSH2 0x2035 DUP2 PUSH2 0x19F0 JUMP JUMPDEST SWAP3 SWAP2 POP POP JUMP JUMPDEST PUSH0 DUP2 SWAP1 POP SWAP2 SWAP1 POP JUMP JUMPDEST PUSH2 0x204D DUP2 PUSH2 0x203B JUMP JUMPDEST DUP2 EQ PUSH2 0x2057 JUMPI PUSH0 PUSH0 REVERT JUMPDEST POP JUMP JUMPDEST PUSH0 DUP2 MLOAD SWAP1 POP PUSH2 0x2068 DUP2 PUSH2 0x2044 JUMP JUMPDEST SWAP3 SWAP2 POP POP JUMP JUMPDEST PUSH1 0x4 DUP2 LT PUSH2 0x207A JUMPI PUSH0 PUSH0 REVERT JUMPDEST POP JUMP JUMPDEST PUSH0 DUP2 MLOAD SWAP1 POP PUSH2 0x208B DUP2 PUSH2 0x206E JUMP JUMPDEST SWAP3 SWAP2 POP POP JUMP JUMPDEST PUSH0 PUSH2 0x180 DUP3 DUP5 SUB SLT ISZERO PUSH2 0x20A7 JUMPI PUSH2 0x20A6 PUSH2 0x1F73 JUMP JUMPDEST JUMPDEST PUSH2 0x20B2 PUSH2 0x180 PUSH2 0x1FE5 JUMP JUMPDEST SWAP1 POP PUSH0 PUSH2 0x20C1 DUP5 DUP3 DUP6 ADD PUSH2 0x1FFF JUMP JUMPDEST PUSH0 DUP4 ADD MSTORE POP PUSH1 0x20 PUSH2 0x20D4 DUP5 DUP3 DUP6 ADD PUSH2 0x2013 JUMP JUMPDEST PUSH1 0x20 DUP4 ADD MSTORE POP PUSH1 0x40 PUSH2 0x20E8 DUP5 DUP3 DUP6 ADD PUSH2 0x2027 JUMP JUMPDEST PUSH1 0x40 DUP4 ADD MSTORE POP PUSH1 0x60 PUSH2 0x20FC DUP5 DUP3 DUP6 ADD PUSH2 0x2027 JUMP JUMPDEST PUSH1 0x60 DUP4 ADD MSTORE POP PUSH1 0x80 PUSH2 0x2110 DUP5 DUP3 DUP6 ADD PUSH2 0x1FFF JUMP JUMPDEST PUSH1 0x80 DUP4 ADD MSTORE POP PUSH1 0xA0 PUSH2 0x2124 DUP5 DUP3 DUP6 ADD PUSH2 0x1FFF JUMP JUMPDEST PUSH1 0xA0 DUP4 ADD MSTORE POP PUSH1 0xC0 PUSH2 0x2138 DUP5 DUP3 DUP6 ADD PUSH2 0x205A JUMP JUMPDEST PUSH1 0xC0 DUP4 ADD MSTORE POP PUSH1 0xE0 PUSH2 0x214C DUP5 DUP3 DUP6 ADD PUSH2 0x205A JUMP JUMPDEST PUSH1 0xE0 DUP4 ADD MSTORE POP PUSH2 0x100 PUSH2 0x2161 DUP5 DUP3 DUP6 ADD PUSH2 0x2027 JUMP JUMPDEST PUSH2 0x100 DUP4 ADD MSTORE POP PUSH2 0x120 PUSH2 0x2177 DUP5 DUP3 DUP6 ADD PUSH2 0x1FFF JUMP JUMPDEST PUSH2 0x120 DUP4 ADD MSTORE POP PUSH2 0x140 PUSH2 0x218D DUP5 DUP3 DUP6 ADD PUSH2 0x1FFF JUMP JUMPDEST PUSH2 0x140 DUP4 ADD MSTORE POP PUSH2 0x160 PUSH2 0x21A3 DUP5 DUP3 DUP6 ADD PUSH2 0x207D JUMP JUMPDEST PUSH2 0x160 DUP4 ADD MSTORE POP SWAP3 SWAP2 POP POP JUMP JUMPDEST PUSH0 PUSH2 0x180 DUP3 DUP5 SUB SLT ISZERO PUSH2 0x21C6 JUMPI PUSH2 0x21C5 PUSH2 0x19AD JUMP JUMPDEST JUMPDEST PUSH0 PUSH2 0x21D3 DUP5 DUP3 DUP6 ADD PUSH2 0x2091 JUMP JUMPDEST SWAP2 POP POP SWAP3 SWAP2 POP POP JUMP JUMPDEST PUSH32 0x4E487B7100000000000000000000000000000000000000000000000000000000 PUSH0 MSTORE PUSH1 0x21 PUSH1 0x4 MSTORE PUSH1 0x24 PUSH0 REVERT JUMPDEST PUSH0 PUSH1 0x40 DUP3 ADD SWAP1 POP PUSH2 0x221C PUSH0 DUP4 ADD DUP6 PUSH2 0x1DBB JUMP JUMPDEST PUSH2 0x2229 PUSH1 0x20 DUP4 ADD DUP5 PUSH2 0x1DBB JUMP JUMPDEST SWAP4 SWAP3 POP POP POP JUMP JUMPDEST PUSH0 PUSH1 0x40 DUP3 ADD SWAP1 POP PUSH2 0x2243 PUSH0 DUP4 ADD DUP6 PUSH2 0x1E30 JUMP JUMPDEST PUSH2 0x2250 PUSH1 0x20 DUP4 ADD DUP5 PUSH2 0x1E30 JUMP JUMPDEST SWAP4 SWAP3 POP POP POP JUMP JUMPDEST PUSH32 0x4E487B7100000000000000000000000000000000000000000000000000000000 PUSH0 MSTORE PUSH1 0x11 PUSH1 0x4 MSTORE PUSH1 0x24 PUSH0 REVERT JUMPDEST PUSH0 PUSH2 0x228E DUP3 PUSH2 0x19B1 JUMP JUMPDEST SWAP2 POP PUSH2 0x2299 DUP4 PUSH2 0x19B1 JUMP JUMPDEST SWAP3 POP DUP3 DUP3 ADD SWAP1 POP DUP1 DUP3 GT ISZERO PUSH2 0x22B1 JUMPI PUSH2 0x22B0 PUSH2 0x2257 JUMP JUMPDEST JUMPDEST SWAP3 SWAP2 POP POP JUMP JUMPDEST PUSH0 PUSH1 0x60 DUP3 ADD SWAP1 POP PUSH2 0x22CA PUSH0 DUP4 ADD DUP7 PUSH2 0x1E30 JUMP JUMPDEST PUSH2 0x22D7 PUSH1 0x20 DUP4 ADD DUP6 PUSH2 0x1DBB JUMP JUMPDEST PUSH2 0x22E4 PUSH1 0x40 DUP4 ADD DUP5 PUSH2 0x1DBB JUMP JUMPDEST SWAP5 SWAP4 POP POP POP POP JUMP JUMPDEST PUSH32 0x4E487B7100000000000000000000000000000000000000000000000000000000 PUSH0 MSTORE PUSH1 0x32 PUSH1 0x4 MSTORE PUSH1 0x24 PUSH0 REVERT JUMPDEST PUSH0 DUP2 SWAP1 POP SWAP3 SWAP2 POP POP JUMP JUMPDEST POP JUMP JUMPDEST PUSH0 PUSH2 0x2331 PUSH0 DUP4 PUSH2 0x2319 JUMP JUMPDEST SWAP2 POP PUSH2 0x233C DUP3 PUSH2 0x2323 JUMP JUMPDEST PUSH0 DUP3 ADD SWAP1 POP SWAP2 SWAP1 POP JUMP JUMPDEST PUSH0 PUSH2 0x2350 DUP3 PUSH2 0x2326 JUMP JUMPDEST SWAP2 POP DUP2 SWAP1 POP SWAP2 SWAP1 POP JUMP JUMPDEST PUSH0 PUSH1 0x20 DUP3 DUP5 SUB SLT ISZERO PUSH2 0x236F JUMPI PUSH2 0x236E PUSH2 0x19AD JUMP JUMPDEST JUMPDEST PUSH0 PUSH2 0x237C DUP5 DUP3 DUP6 ADD PUSH2 0x1FFF JUMP JUMPDEST SWAP2 POP POP SWAP3 SWAP2 POP POP JUMP JUMPDEST PUSH0 PUSH2 0x238F DUP3 PUSH2 0x19B1 JUMP JUMPDEST SWAP2 POP PUSH2 0x239A DUP4 PUSH2 0x19B1 JUMP JUMPDEST SWAP3 POP DUP3 DUP3 MUL PUSH2 0x23A8 DUP2 PUSH2 0x19B1 JUMP JUMPDEST SWAP2 POP DUP3 DUP3 DIV DUP5 EQ DUP4 ISZERO OR PUSH2 0x23BF JUMPI PUSH2 0x23BE PUSH2 0x2257 JUMP JUMPDEST JUMPDEST POP SWAP3 SWAP2 POP POP JUMP JUMPDEST PUSH32 0x4E487B7100000000000000000000000000000000000000000000000000000000 PUSH0 MSTORE PUSH1 0x12 PUSH1 0x4 MSTORE PUSH1 0x24 PUSH0 REVERT JUMPDEST PUSH0 PUSH2 0x23FD DUP3 PUSH2 0x19B1 JUMP JUMPDEST SWAP2 POP PUSH2 0x2408 DUP4 PUSH2 0x19B1 JUMP JUMPDEST SWAP3 POP DUP3 PUSH2 0x2418 JUMPI PUSH2 0x2417 PUSH2 0x23C6 JUMP JUMPDEST JUMPDEST DUP3 DUP3 DIV SWAP1 POP SWAP3 SWAP2 POP POP JUMP JUMPDEST PUSH0 PUSH2 0x242D DUP3 PUSH2 0x19B1 JUMP JUMPDEST SWAP2 POP PUSH2 0x2438 DUP4 PUSH2 0x19B1 JUMP JUMPDEST SWAP3 POP DUP3 DUP3 SUB SWAP1 POP DUP2 DUP2 GT ISZERO PUSH2 0x2450 JUMPI PUSH2 0x244F PUSH2 0x2257 JUMP JUMPDEST JUMPDEST SWAP3 SWAP2 POP POP JUMP INVALID LOG2 PUSH5 0x6970667358 0x22 SLT KECCAK256 DUP15 CALLF 0x7621 MLOAD REVERT 0xB1 PUSH25 0xB8ECE32B1089BF9E642970EAA9361A62A9DA012CE0890BBD64 PUSH20 0x6F6C634300082300330000000000000000000000 "
				},
				"gasEstimates": {
					"creation": {
						"codeDepositCost": "1871200",
						"executionCost": "infinite",
						"totalCost": "infinite"
					},
					"external": {
						"bets(uint256,uint256)": "infinite",
						"claimRefund(uint256)": "infinite",
						"claimWinnings(uint256)": "infinite",
						"config()": "infinite",
						"gameManager()": "infinite",
						"getBets(uint256)": "infinite",
						"getPlayerBetIndices(uint256,address)": "infinite",
						"houseFeeWithdrawn(uint256)": "2829",
						"placeBet(uint256,uint8)": "infinite",
						"playerBetIndices(uint256,address,uint256)": "infinite",
						"totalPot(uint256)": "infinite",
						"withdrawHouseFee(uint256)": "infinite"
					},
					"internal": {
						"_calcRawPayout(uint256,uint8,uint256[] storage pointer)": "infinite",
						"_calcTotalRawPayout(uint256,uint8)": "infinite",
						"_calculateMultiplier(struct IGameManager.Round memory)": "infinite"
					}
				},
				"methodIdentifiers": {
					"bets(uint256,uint256)": "6a09f6be",
					"claimRefund(uint256)": "5b7baf64",
					"claimWinnings(uint256)": "677bd9ff",
					"config()": "79502c55",
					"gameManager()": "c6b05266",
					"getBets(uint256)": "1ccf6955",
					"getPlayerBetIndices(uint256,address)": "3a56fa62",
					"houseFeeWithdrawn(uint256)": "7e033ad2",
					"placeBet(uint256,uint8)": "03edf914",
					"playerBetIndices(uint256,address,uint256)": "5f16348f",
					"totalPot(uint256)": "a632c457",
					"withdrawHouseFee(uint256)": "e852ebc8"
				}
			},
			"storageLayout": {
				"storage": [
					{
						"astId": 313,
						"contract": "backend/Betting.sol:Betting",
						"label": "bets",
						"offset": 0,
						"slot": "0",
						"type": "t_mapping(t_uint256,t_array(t_struct(Bet)300_storage)dyn_storage)"
					},
					{
						"astId": 321,
						"contract": "backend/Betting.sol:Betting",
						"label": "playerBetIndices",
						"offset": 0,
						"slot": "1",
						"type": "t_mapping(t_uint256,t_mapping(t_address,t_array(t_uint256)dyn_storage))"
					},
					{
						"astId": 326,
						"contract": "backend/Betting.sol:Betting",
						"label": "totalPot",
						"offset": 0,
						"slot": "2",
						"type": "t_mapping(t_uint256,t_uint256)"
					},
					{
						"astId": 331,
						"contract": "backend/Betting.sol:Betting",
						"label": "houseFeeWithdrawn",
						"offset": 0,
						"slot": "3",
						"type": "t_mapping(t_uint256,t_bool)"
					}
				],
				"types": {
					"t_address": {
						"encoding": "inplace",
						"label": "address",
						"numberOfBytes": "20"
					},
					"t_array(t_struct(Bet)300_storage)dyn_storage": {
						"base": "t_struct(Bet)300_storage",
						"encoding": "dynamic_array",
						"label": "struct Betting.Bet[]",
						"numberOfBytes": "32"
					},
					"t_array(t_uint256)dyn_storage": {
						"base": "t_uint256",
						"encoding": "dynamic_array",
						"label": "uint256[]",
						"numberOfBytes": "32"
					},
					"t_bool": {
						"encoding": "inplace",
						"label": "bool",
						"numberOfBytes": "1"
					},
					"t_mapping(t_address,t_array(t_uint256)dyn_storage)": {
						"encoding": "mapping",
						"key": "t_address",
						"label": "mapping(address => uint256[])",
						"numberOfBytes": "32",
						"value": "t_array(t_uint256)dyn_storage"
					},
					"t_mapping(t_uint256,t_array(t_struct(Bet)300_storage)dyn_storage)": {
						"encoding": "mapping",
						"key": "t_uint256",
						"label": "mapping(uint256 => struct Betting.Bet[])",
						"numberOfBytes": "32",
						"value": "t_array(t_struct(Bet)300_storage)dyn_storage"
					},
					"t_mapping(t_uint256,t_bool)": {
						"encoding": "mapping",
						"key": "t_uint256",
						"label": "mapping(uint256 => bool)",
						"numberOfBytes": "32",
						"value": "t_bool"
					},
					"t_mapping(t_uint256,t_mapping(t_address,t_array(t_uint256)dyn_storage))": {
						"encoding": "mapping",
						"key": "t_uint256",
						"label": "mapping(uint256 => mapping(address => uint256[]))",
						"numberOfBytes": "32",
						"value": "t_mapping(t_address,t_array(t_uint256)dyn_storage)"
					},
					"t_mapping(t_uint256,t_uint256)": {
						"encoding": "mapping",
						"key": "t_uint256",
						"label": "mapping(uint256 => uint256)",
						"numberOfBytes": "32",
						"value": "t_uint256"
					},
					"t_struct(Bet)300_storage": {
						"encoding": "inplace",
						"label": "struct Betting.Bet",
						"members": [
							{
								"astId": 289,
								"contract": "backend/Betting.sol:Betting",
								"label": "player",
								"offset": 0,
								"slot": "0",
								"type": "t_address"
							},
							{
								"astId": 291,
								"contract": "backend/Betting.sol:Betting",
								"label": "chosenColour",
								"offset": 20,
								"slot": "0",
								"type": "t_uint8"
							},
							{
								"astId": 293,
								"contract": "backend/Betting.sol:Betting",
								"label": "amount",
								"offset": 0,
								"slot": "1",
								"type": "t_uint256"
							},
							{
								"astId": 295,
								"contract": "backend/Betting.sol:Betting",
								"label": "timestamp",
								"offset": 0,
								"slot": "2",
								"type": "t_uint256"
							},
							{
								"astId": 297,
								"contract": "backend/Betting.sol:Betting",
								"label": "multiplier",
								"offset": 0,
								"slot": "3",
								"type": "t_uint256"
							},
							{
								"astId": 299,
								"contract": "backend/Betting.sol:Betting",
								"label": "claimed",
								"offset": 0,
								"slot": "4",
								"type": "t_bool"
							}
						],
						"numberOfBytes": "160"
					},
					"t_uint256": {
						"encoding": "inplace",
						"label": "uint256",
						"numberOfBytes": "32"
					},
					"t_uint8": {
						"encoding": "inplace",
						"label": "uint8",
						"numberOfBytes": "1"
					}
				}
			},
			"userdoc": {
				"kind": "user",
				"methods": {
					"claimRefund(uint256)": {
						"notice": "Players call this to get their wager back after a cancellation."
					},
					"claimWinnings(uint256)": {
						"notice": "Winning players call this to withdraw their payout after resolution."
					},
					"getBets(uint256)": {
						"notice": "Returns all bets placed in a round (public read)."
					},
					"getPlayerBetIndices(uint256,address)": {
						"notice": "Returns the indices of a specific player's bets in a round."
					},
					"placeBet(uint256,uint8)": {
						"notice": "Place a bet on a colour in an open round."
					},
					"withdrawHouseFee(uint256)": {
						"notice": "House calls this once per round to collect the platform fee."
					}
				},
				"version": 1
			}
		}
	}
}